:020000040800F2
:1000000000100020B5020008E9130008EB130008F7
:1000100000000000000000000000000000000000E0
:10002000000000000000000000000000EF130008C6
:100030000000000000000000F1130008F9020008B1
:10004000F9020008F9020008F9020008F9020008A4
:10005000F9020008F9020008F9020008890A0008FC
:10006000F9020008F9020008F9020008F902000884
:100070007D0F0008F9020008F9020008F9020008E3
:10008000FD020008F902000800000000F902000863
:10009000F9020008F9020008F9020008F902000854
:1000A000F9020008F9020008F902000885100008AA
:1000B000F902000800000000F9020008000000003A
:0400C0005FF808F1EC
:1000C40002B4714649084900095C49008E4402BCE7
:1000D4007047C046002934D00123002210B488425E
:1000E4002CD301242407A14204D2814202D2090163
:1000F4001B01F8E7E400A14204D2814202D2490084
:100104005B00F8E7884201D3401A1A434C08A04226
:1001140002D3001B5C0822438C08A04202D3001BBC
:100124009C082243CC08A04202D3001BDC082243D3
:10013400002803D01B0901D00909E3E7101C10BCF7
:100144007047002801D00020C04307B4024802A130
:100154004018029003BDC046D90000000029F0D029
:1001640003B5FFF7B9FF0EBC4243891A1847C046CE
:10017400002941D010B4041C4C40A44601230022A1
:10018400002900D54942002800D5404288422CD39A
:1001940001242407A14204D2814202D209011B0195
:1001A400F8E7E400A14204D2814202D249005B0094
:1001B400F8E7884201D3401A1A434C08A04202D3FC
:1001C400001B5C0822438C08A04202D3001B9C083D
:1001D4002243CC08A04202D3001BDC08224300289F
:1001E40003D01B0901D00909E3E7101C6446002C65
:1001F40000D5404210BC7047002806D003DB002025
:10020400C043400801E08020000607B4024802A170
:100214004018029003BDC046190000000029EBD02D
:1002240003B5FFF7A7FF0EBC4243891A1847C0461F
:100234007047C046F0B5051C0F2A2FD90B1C034389
:10024400051C9C072CD10C1C031C151C2668103D96
:100254001E6066685E60A6689E60E6681034DE60B4
:1002640010330F2DF2D8131C103B1B0901331B0153
:10027400C518C9180F231A40032A0FD90E1C2C1CA9
:10028400131C80CE043B80C4032BFAD8131F9B0895
:1002940001339B0003242240C918ED18002A05D01D
:1002A4000023CC5CEC5401339342FAD1F0BDC04638
:1002B400002103E00A4B5B584350043109480A4BC0
:1002C40042189A42F6D3094A02E00023136004322A
:1002D400074B9A42F9D301F08BF800F03FF87047CE
:1002E400781D000800000020E0000020E00000204D
:1002F4004C030020FEE7000000B5064B1A8AD10724
:1003040006D5022252421A82034B1A8801321A80FD
:1003140000BDC0460004004022010020034A044BF3
:1003240010885B6A0004C0187047C0462201002090
:100334000004004008B5FFF7F1FFFA218900FFF738
:10034400C9FE08BD38B5041CFFF7E8FF051CFFF71C
:10035400E5FF401BA042FAD338BD0000F0B58BB0D6
:1003640001F046F8C020C002012101F093FAC1480F
:10037400012101F0ABFA0121BF4801F099FA00F024
:100384007DFF00F0BDFDE120400200F00BFE00F017
:1003940051FB00F065FD012309A825210370694480
:1003A40003230B702622272300246A446B44147011
:1003B4001C700425B14808A90895802601F004F9A9
:1003C40090203602C00508A9089601F0FDF8AB4854
:1003D400291C221C01F031F99020C005311C221C7B
:1003E40001F02BF9FFF79AFFA54D06902B88A54C39
:1003F400002B04D02378002B01D100F03FFC23789C
:10040400002B00D0D1E12C88002C00D0CDE100F0ED
:1004140035FC00F07FFB9C4B9C4D1B789C4F02935A
:100424009C4B1B880393E31902201E5E2B78F11763
:10043400701848404000FA2158438900FFF74AFEEB
:100444006422954B101AE0520298002806D10398B2
:10045400111C7043FFF78CFE904BE05202340135BF
:10046400062CE0D18A4B00241B88251C0793261CEC
:100474008A4BEF5E8A4B5B5F874AA85E64215843D0
:100484004942FFF775FE874B38180190019FF05CD5
:1004940064217843FFF76CFE8349844A0290AA5E84
:1004A400605853423818984203DB031C904200DD25
:1004B400131C019FAF22F8173F184740BC46002188
:1004C40092006046FF0F82424F4169461C22515EF2
:1004D4007842034004914F2900DC0023744A724F90
:1004E400B05C3B5158437349FFF742FE724F05908D
:1004F400E359019F7148FB1A9FB22B5E3AB2D3189D
:100504006F4A9621B05C49005843FFF731FE6B49AE
:10051400F2B26F52684F01996A4BE151029F022A6D
:100524000ED105997A181018674A904206DBFA2210
:100534005200904200DD101C80B204E0634802E0E7
:10054400C019059FC0190136585304340235032ECF
:100554008ED14F4B5E4C08201A5E5E4B962A14DDFA
:1005640000229A56002A23D15B4A1278FA2A1FD114
:100574002278092A1CD8049C962C19DC01221A70B2
:100584003E48042101F059F812E000229A56012A4B
:1005940005D100221A703948042101F04EF84E4B5F
:1005A4001A78F92A04D82178092901D801321A7055
:1005B400484B37491B785BB2002B04D000268B5F75
:1005C4004F2B02DC00231A1C02E0FA223223920091
:1005D4003F4800780A2801D90020088009880027AC
:1005E4000DB20397BD4207DBFA200E1C8000854242
:1005F40000DD061C30B20390324CA446261C0024B5
:10060400345F674666460220385E0427F65F039F20
:1006140002963E19029F361AF61B9E4201DA1E1CF0
:1006240012E00026B54208DB0FB2BC46FA270E1CC6
:10063400BF00BC4500DD3E1C36B23619029F361A97
:10064400F61B964200DD161C244F7E630026B5423D
:1006540008DB0FB2BC46FA270E1CBF00BC4500DD08
:100664003E1C36B2361B029F361AF6199E4237DA02
:100674001E1C48E003002000014A02000004004858
:10068400CE00002028000020EC0000208D00002077
:10069400B000002020000020E6000020E000002040
:1006A4002A010020970000201001002022000020D1
:1006B40094000020B80B0000FC000020F40000208F
:1006C40090000020EE0000200CFEFFFF0CFE000056
:1006D400930000200801002020010020002C01408C
:1006E4000026B54208DB0FB2BC46FA270E1CBF0039
:1006F400BC4500DD3E1C36B2361B029F361AF61985
:10070400964200DD161CAB4F3E640026B54208DB62
:100714000FB2BC46FA270E1CBF00BC4500DD3E1CD0
:1007240036B2361B029F3618F61B9E4201DA1E1C97
:1007340012E00026B54208DB0FB2BC46FA270E1CB5
:10074400BF00BC4500DD3E1C36B2361B029F361886
:10075400F61B964200DD161C974F7E630026B542B9
:1007640008DB0FB2BC46FA270E1CBF00BC4500DDF7
:100774003E1C36B23619029F3618F6199E4210DB1B
:1007840000239D4206DBFA230DB29B009D4200DD4F
:10079400191C0BB21B191B1802981B18934200DD7D
:1007A400131C8022D205136402E0844B64221A7065
:1007B400834800F0B5FEFFF7BDFD824C2368C01AE4
:1007C400642857D97D4B1A7801321A70FFF7B2FDAD
:1007D4007D4B0F221A707D4B20601A7851B200298C
:1007E40001DD013A1A707A4C2278002A0DD00123D7
:1007F400902080211A40C0050902002A00D01A1C4A
:1008040000F01BFF2378013B2370724AAF21138849
:1008140049008B421DD1704B01241D786F4801356E
:10082400EDB21D700421254008D0002200F005FF20
:1008340090208021C0050902221C07E0221C00F040
:10084400FCFE90208021C00509022A1C00F0F5FE60
:1008540010E063490024085F6249884201DC0133E7
:1008640002E00A2B06D90A3B138003E000F060FC87
:10087400257001E0554C142500F04EFC0028F5D1FC
:100884008EE02878012808D8504B1B785BB2002BE7
:1008940000DC87E0002800D184E00138C0B2287071
:1008A4000E287FD8504CFFF70BFC6A6E6058504AF4
:1008B400443E362E261E160E08004C480A2100F02F
:1008C4004BFC4B4B2CE04B480A2100F045FC484BB9
:1008D4000221585E50E048480A2100F03DFC444B98
:1008E4000422985E48E045480A2100F035FC404B5C
:1008F4000627D85F40E042480A2100F02DFC3C4B1B
:100904000821585E38E03F480A2100F025FC384BA6
:100914000A22985E30E03C480A2100F01DFC304B6E
:100924000027D85F28E039480A2100F015FC384B2D
:1009340010E038480A2100F00FFC354B12E036482D
:100944000A2100F009FC324B14E034480A2100F07B
:1009540003FC334B0021585E0EE032480A2100F0BC
:10096400FBFB2F4B0222985E06E02F480A2100F081
:10097400F3FB2B4B0427D85F00F006FC0BE02B485D
:100984000A2100F0E9FB201C022100F0E5FB201CF9
:10099400022100F0E1FB201C022100F0DDFB01E05C
:1009A400234E094DFFF7BAFC069C001BB04200D948
:1009B40018E566E7002C0140004401409300002044
:1009C400002401400C0100201D0100201C01002016
:1009D40028000020240100202101002000040048F8
:1009E4001E0100202B0100000A000020000000204E
:1009F400B00000209A0000201600002033000020E0
:100A04005B000020290000208300002065000020F6
:100A14002A0100206F000020790000203D00002002
:100A24004001002047000020510000200C0000205D
:100A3400CF07000070B586B001A903230025012467
:100A44004B71802602239020F6010D71CB718C71BD
:100A5400C005019600F0B8FD281C0E2100F006FE2A
:100A640003A80823057143718471039600F078FD8F
:100A740005A8072303704470847001F043F906B09D
:100A840070BD000070B5194B194A596A802350692A
:100A9400DB01184228D053619022D205128A1A42EF
:100AA40022D0144B89B21A881C1C8A1A124B92B297
:100AB4009A4203D9114B00221A7014E0104BD0183B
:100AC400104B80B298420ED80F4B002018700B4880
:100AD4000378052B07D80D4D0126EE540C4D5E000E
:100AE400013372530370218070BDC046000400407E
:100AF4000004014026010020881300002801002082
:100B04000BFEFFFFCE07000093000020C80000206A
:100B1400BC000020F0B51D4B00221D4F111C9C464B
:100B24006446085D3B5C002B2BD01A4D1A4E4300E3
:100B34005B5B945BE41A012C23D0CCB2174E184DA6
:100B4400002C0AD1B34216DDFA24E400A34201DCEE
:100B5400144E09E0FA24A4000DE0B34207DDFA24A0
:100B6400E400A34205DC104E9C19A4B203E00F4C30
:100B740001E0FA246400AC52074C1353044B0024E4
:100B84001C54013102320629CAD1F0BD701D00087F
:100B9400C8000020BC000020A4000020E7030000DF
:100BA400B000002018FCFFFF24FAFFFF0CFE000039
:100BB40073B5051C0E1C80212D48090200F0BFFDF1
:100BC4000128F8D080239B01009380232848D0215A
:100BD40001225B0400F09CFD264C03E0013CA4B21E
:100BE400002C34D02248022100F0A9FD0028F5D0C1
:100BF4001F48291C00F09EFD1E4C03E0013CA4B2DA
:100C0400002C24D01A48802100F099FD0028F5D04A
:100C14000023009380231648D02101229B0400F076
:100C240077FD144C03E0013CA4B2002C0FD0104813
:100C3400022100F084FD0028F5D00D48311C00F09D
:100C440079FD0C4C08E0013CA4B2002C04D10A4B01
:100C54001A8801321A8009E00548202100F06FFD4E
:100C64000028F0D00248202100F06EFD73BDC0467C
:100C74000054004051C300003201002070B586B01A
:100C840080216F48090200F05AFD0128F8D0802322
:100C94009B0100936A48D0210122002300F038FD13
:100CA400684C03E0013CA4B2002C26D06448022125
:100CB40000F045FD0028F5D061483B2100F03AFDE5
:100CC400604C03E0013CA4B2002C16D05C484021E7
:100CD40000F035FD0028F5D090239B01009380237C
:100CE4009B045748D0210E2200F012FD564D0023DC
:100CF40016E0013CA4B2002C04D1544B1A880132F2
:100D04008CE0504C4E48042100F019FD0028F0D02E
:100D14004B482C7800F010FD02AB18552B780133AA
:100D24002B702B780D2BECD94548202100F007FDC2
:100D34000028F9D04248202100F006FD02AB987843
:100D4400D9780002084300B2C117490F0918404A74
:100D5400C91049421180187859780002084300B23A
:100D6400C117490F0918C910494251801879597996
:100D74000002084300B2C117490F0918C9104942BB
:100D840091801A7A587A12023249024352420A80F6
:100D94009A7AD87A1202024352424A80187B5A7BCA
:100DA4000002031C13435B428B802B4B1B88002BDC
:100DB40036D02A480022940055006D5E2658013230
:100DC4007519D2B22550022AF5D91F4990200A700C
:100DD40080210122C0050902134200D0002200F044
:100DE4002CFC1D4B1B88012B15D11C4E0024A50087
:100DF400FA21A8594900FFF7BBF90134E4B2A8511C
:100E0400022CF4D9104B902080211C70C0050902DB
:100E1400012200F012FC104B1A88013A1A800CE0EF
:100E24000E485A009C00555A245801332C1BDBB23F
:100E34005452022BF5D9044A137006B070BDC04653
:100E44000054004051C30000300100203201002052
:100E5400400100202A010020CE000020340100209F
:100E640070B58AB0224CC02308A901250893022337
:100E74000B718D71CD71201C00F0A6FB201C2A1C67
:100E8400062100F0E1FB2A1C201C072100F0DCFBFA
:100E9400184E194B0024301C019301A9AB23059370
:100EA4000294039404940694079400F0F3FB291C21
:100EB400124D301C00F020FC281CFFF743FA80215F
:100EC4006B20FFF775FE281CFFF73CFA6B2003210B
:100ED400FFF76EFE211C1A20FFF76AFE1B20182163
:100EE400FFF766FE1C201021FFF762FE0AB070BDFA
:100EF40000040048005400400A0210008813000057
:100F040030B58BB00024032307A990200B7104256E
:100F1400CC71C005079500F057FB01A90C718C60DA
:100F2400CC600C614C611248019400F0BDFA104889
:100F3400291C072200F0D7FA291C01220C4800F0D2
:100F4400F4FA012409A80C2303704570847000F09E
:100F5400D9FE074800F0CCFA0548211C00F0BAFA83
:100F64000348044900F0ECFA0028F9D00BB030BD76
:100F7400002401400100000108B5074B0422196850
:100F8400114207D01A60186C0449C001FFF7A2F897
:100F9400034B188008BDC04600240140BA0300007A
:100FA4001E01002070B59025ED058AB0061C0921AC
:100FB400281C012200F048FB0122281C0A2100F011
:100FC40043FBC023DB0007A90793022300240B7112
:100FD40003234B718C71CC71281C00F0F5FA029438
:100FE400039404940694104C01A90C23201C01962C
:100FF400059300F0E1FD09A81B23012503700523D7
:101004004370857000F07EFE2A1C201C074900F006
:1010140040FE2A1C201C064900F03BFE291C201C13
:1010240000F024FE0AB070BD00380140050105003F
:101034000601060010B50C4B1A78002A13D10B4A8E
:101044000B4C1178227891420DD001221A70094874
:10105400094900F01EFE2378084A0648D15C013392
:10106400237000F00EFE10BD47010020480200204E
:101074004601002000380140060106004B02002012
:1010840038B51C481C4900F01BFE00280CD0194838
:10109400194900F032FE194D16482C7800F0F5FD80
:1010A400174B185501342C701248164900F008FEED
:1010B40000281DD00F48134900F01FFE1249134A9F
:1010C40008781378124998420AD00878002807D083
:1010D40010490848C95C0133137000F0D2FD07E0E1
:1010E40000220A700348074900F0D3FDFFF7A2FF6E
:1010F40038BDC04600380140050105004902002002
:101104004801002006010600480200204601002094
:10111400470100204B020020034B1878034B1B7837
:10112400C01AC0B27047C046490200204A020020DB
:1011340000B5064A0649137809780020994203D07D
:101144000449C85C0133137000BDC0464A02002044
:101154004902002048010020F8B5094A0023167806
:10116400141C084D03E0C75C0133AF54DBB29A1979
:10117400D2B28B42F7DB2270FFF75CFFF8BDC046AA
:10118400480200204B02002030B589B084B22025EB
:10119400002802DA6442A4B22D250A2201A83249A9
:1011A400FFF748F8002304AA938004932F4A03E02E
:1011B4002F480B1C2418A4B2591CC9B29442F7D866
:1011C40004AA137053782B4A03E02B4BE418A4B2FF
:1011D4000B1C591CC9B29442F7D804AA53709378D3
:1011E40002E0643CA4B2131C5A1CD2B2632CF8D89B
:1011F40004AA9370D37802E00A3CA4B2131C5A1CCC
:10120400D2B2092CF8D8184904AAD37014710A313F
:10121400062206A8FFF70EF800210B1C01AA58426B
:101224005841CCB2052C01D1002814D104AC0C5D7A
:10123400145D302C04D0002802D006ABCD5408E055
:10124400002B09D008A84318113B1B78D05C06ABCF
:10125400C854012300E0002301310629DFD106A888
:10126400FFF77AFF09B030BD601D00080F270000AA
:10127400F0D8FFFFE703000018FCFFFFF0B5534F61
:101284008DB0381C06AC00F04BFB2F232380504B51
:1012940000260793381C0023211C2681A372668034
:1012A40000F0B2FB381C012100F0F0FB0BA8102366
:1012B4000125037000234370857000F023FD2A1C70
:1012C400291C381C00F06EFC424B09AF0993022321
:1012D4003B7103237B7190200023BB71FB71391C8C
:1012E400C00500F071F98023AB40391C3A480993DA
:1012F40000F06AF99020C0050321022200F0A4F94D
:101304009020C0050821022200F09EF99020C0051B
:101314000B21022200F098F9022208212E4800F045
:1013240093F92E4FFA239B00381C63600023A372A9
:1013340025802681668000F0F3FA381C211C00F019
:1013440063FB8020C00500F0EBFA8020211CC0055F
:1013540000F05AFB224800F0E3FA211C204800F078
:1013640053FB01AC7023381C2380211C0223A3816E
:1013740003966580268200F0A3FB381C211C00F034
:10138400DFFB211C164800F09BFB8020211CC005BC
:1013940000F0D6FB381C291C00F078FB381C291CF3
:1013A40000F07FFB8020291CC00500F07AFB802020
:1013B400291CC00500F06AFB291C094800F071FBD8
:1013C400291C074800F062FB0DB0F0BD000400408A
:1013D400FFFF00000809000000040048002C014041
:1013E40000440140704700B5FEE7704770470000B5
:1013F40000B5254B01221968114319605868234927
:10140400014059601868224901401960186821494F
:10141400014019605868204901405960D96A0F2079
:101424008143D962186B1D4901401963596B91437B
:10143400002259639A601A4A112111605A685A604D
:101444005A685A605968174A0A405A605968A02273
:1014540092030A435A601968802252040A43802185
:101464001A6089041868084A0842FBD051680320AE
:101474008143516051680220014351600C22596834
:1014840011400829FBD100BD001002400CB8FFF840
:10149400FFFFF6FEFFFFFBFFFFFFC0FFACFEFFFFF9
:1014A40000200240FF7FC0FF10B58A680B68C46843
:1014B4001343CA6813430A6913434A691343044A2A
:1014C400224013430A7952031343C36010BDC0463C
:1014D40003D2FFFF00B583680122002900D1022254
:1014E4001343836000BD836A19438162426170477C
:1014F40010B58168802212060A438260031C002210
:10150400064C013210199968002801D00029F7DB34
:101514009A680020824200DB186C10BD0010FFFFA7
:101524008368042213438360704700B54368002A2C
:1015340002D01943416001E08B43436000BD0000C9
:1015440000B5CB0103D58268044B134000E0036867
:101554000B40181C431E984100BDC046FFFFFFFE10
:1015640010B583790268002B23D0164BD1431C6835
:101574000C401C605C68214059600179C9180C68F2
:1015840022430A6002689C68D1430C409C60DC687A
:101594002140D9604179102906D199681143996095
:1015A400D9680A43DA600BE006480B1819680A4345
:1015B40005E0044903795B18196891430A1C1A6011
:1015C40010BDC04600040140F7B50B680193002329
:1015D4001A1C0125019E95402E40AE4228D10D795A
:1015E4006F1E012F12D8846803279F40BC43846078
:1015F4004F7984689F403C4384608788B7438780E1
:101604008E79878896403E43B6B286800326076863
:101614009E40F6433740076007689D403D430560A0
:10162400C5682E40C660CD79C6689D403543C56007
:1016340001320233102ACCD1F7BD00B5002A01D003
:10164400816100E0018500BD30B507230B40C90866
:10165400083189000C589B000F259D40AC430C5069
:101664000C589A40131C23430B5030BD30B5032251
:101674000A408908064B02318900CC5892000F2594
:101684009540AC43CC50CC5890402043C85030BD1A
:101694000000014010B5026801239A430260046807
:1016A400124A22408C68240222434C68224302607E
:1016B4000C680F4A2240026102681343036000234E
:1016C40083600A69C3608B691343836082688023E3
:1016D4001B02134383600268CB68134303604268B0
:1016E400044B13404A691343436010BDFFE0CF002D
:1016F400FFFFFFF0FF7FFF0700B501230268002909
:1017040001D0134301E09A43131C036000BD0000A1
:1017140010B58905890D44680B4305490C402343E2
:10172400029C234314041A1C2243426010BDC04689
:10173400009800FC81627047406AC0B270478069BB
:101744000840431E98417047C161704770B54A4DC7
:10175400041C68680C231840FEF7B2FC20202020EB
:1017640020202020072020201E006E68C023B602FF
:101774006A68360F5B0202361A4202D13F4B5E435F
:1017840008E03D4B3E48D96A0F2319400131FEF76A
:10179400A1FC4643266004E03A4B00E0384B23604A
:1017A40000266B68384A1B061B0FD35C2168D9409E
:1017B40061600B1C69684905490F525CD340A36002
:1017C4002A6BD10501D4314B06E02B4A52685104EF
:1017D40001D45B0800E09B08E3602B6B5A0601D43C
:1017E4002B4B01E080231B0223612B6BD90601D410
:1017F400234B00E023686361296B03231E4A1942CB
:1018040001D1A36811E0116B1940012901D12368AA
:101814000BE0116B1940022902D180231B0204E062
:10182400126B1340032B01D1154BA361C023296B09
:101834009B02114A194201D1A36815E0106B802163
:1018440018404902884201D123680DE0106B8021C1
:1018540018408902884202D180231B0204E0126BE3
:101864001A409A4201D1064BE3612B6B1A0600D44D
:10187400044E266270BDC0460010024000093D00BF
:1018840000127A00006CDC02D0000020809FD5009A
:101894001280000000B5054B5A69002902D010439C
:1018A400586101E082435A6100BDC0460010024005
:1018B40000B5054B9A69002902D01043986101E0F4
:1018C40082439A6100BDC0460010024000B5054B3A
:1018D400DA69002902D01043D86101E08243DA6159
:1018E40000BDC0460010024000B5054BDA6800296F
:1018F40002D01043D86001E08243DA6000BDC046E4
:101904000010024000B5054B1A69002902D01043AB
:10191400186101E082431A6100BDC0460010024014
:1019240008B5314B984207D1802000010121FFF70F
:10193400DBFF8020000152E08023DB05984205D1C3
:101944000120011CFFF7DEFF012024E0274B984211
:1019540005D102200121FFF7D5FF02201BE0244B13
:10196400984205D110200121FFF7CCFF102012E08E
:10197400204B984205D120200121FFF7C3FF2020EE
:1019840009E01D4B98420AD1802040000121FFF755
:10199400B9FF802040000021FFF7B4FF22E0174B7D
:1019A400984207D1802040020121FFF79DFF80204B
:1019B400400214E0124B984207D18020800201219A
:1019C400FFF792FF8020800209E00E4B984209D174
:1019D4008020C0020121FFF787FF8020C002002180
:1019E400FFF782FF08BDC046002C01400004004000
:1019F400001000400014004000200040004001405E
:101A0400004401400048014030B5194CC02502197A
:101A14002D065442624144190388002C04D0002A44
:101A240002D1144CA04203D17024A3434C88234315
:101A3400114CA04203D0114D0C892B402343038049
:101A44004B680F4CC3620B8803850319002B09D024
:101A5400002A07D10B4D4319002B03D00A4A8318DF
:101A6400002B01D18B7A03860123838230BDC046CB
:101A740000D4FEBF0004004000100040FFFCFFFF44
:101A840000C0FEBF00B8FEBF00BCFEBF00B501230E
:101A94000288002901D0134301E09A43131C0380F8
:101AA40000BD00B50630002904D0C28F80231B027C
:101AB400134302E0C38F5B045B0CC38700BD0000CB
:101AC40070B5038C012293430384058C8288048BB4
:101AD40073239C430B884E881C4302239D438B89AC
:101AE4003343124E2B438519002D0BD0104E85190C
:101AF400002D07D00F4E8519002D03D00E4E8519E9
:101B0400002D0DD10825AB43CD894E8A2B430425E6
:101B1400AB438D882B43094D2A400D8A35432A4314
:101B240082808A6804834263038470BD00C0FEBF60
:101B340000D4FEBF00B8FEBF00BCFEBFFFFCFFFF29
:101B440030B5028C124B13400384058C114A8388F0
:101B5400848B14400A88120214430F4AA4B22A4008
:101B64008D892D032A434D8892B22D032A430B4DB0
:101B740092B2A84205D10A4D2B400D8AAD012B43E8
:101B84009BB283808B6884830364028430BDC04627
:101B9400FFEFFFFFFF8CFFFFFFDFFFFF002C014083
:101BA400FFBFFFFF00B58389002A02D0194381815A
:101BB40001E08B43838100BDF0B5036801229343A8
:101BC40003604268234B0D1C13408A68C9681343A1
:101BD40043600268204B8DB01A406B68061C0B43AF
:101BE40029690B431343036082681C4B13406A69E1
:101BF4001343836003A8FFF7A9FD194B9E4201D14B
:101C0400099C05E0174B9E4201D10A9C00E0059C0B
:101C14002A68336801921A0400D564000199201CD3
:101C2400FEF758FA0199071C201CFEF797FA2A6858
:101C34000023520891425B41FF1833681A0404D50B
:101C4400094A3B075B0F17401F43BFB20DB0B78172
:101C5400F0BDC046FFCFFFFFF3E9FFFFFFFCFFFF2E
:101C64000038014000440040F0FF000000B50123AB
:101C74000268002901D0134301E09A43131C036056
:101C840000BDC905C90D01857047808CC005C00D14
:101C9400704710B58BB20124C9B28C401B0A211CB9
:101CA400022B01D1043002E0032B00D10830036879
:101CB400002A02D01943016001E08B43036010BD88
:101CC40010B5CBB201248AB29C40120A231C012A0B
:101CD40001D1026804E0022A01D1426800E082686E
:101CE4001340090C01228A40C069111C08405A1E85
:101CF4009341411E8841184010BD090C01238B40BB
:101D04000362704770B582780378002A19D00324DF
:101D14009908104A2340C031A3408900FF248D58FC
:101D2400261C9E40B5434678B60134409C402B1C8B
:101D340023438B5001781F230B40012199401160EC
:101D440006E01F22134001229A40131C024AD36763
:101D540070BDC04600E100E004E100E03031323300
:101D64003435363738392020202020300001020352
:041D74000405000062
:101D78005468726F74746C6520200A0D486F646F24
:101D880072212020202050697463682020202020A0
:101D9800CC015046504688131441757832202020D3
:101DA80020202059617720202020202020414343F3
:101DB8002058202020202041434320592020202043
:101DC80020414343205A202020202041757831208B
:101DD80020202020204779726F205820202020477B
:101DE80079726F2059202020204779726F205A205D
:101DF8002020204C69506F20566F6C742E5858580C
:101E0800787800644141552D2D46526F6C6C202026
:101E180020202020DC05DC05DC05DC05DC05DC05F4
:101E28000000F401F401F401F401F401DC05DC051F
:101E3800DC05DC05DC05DC05010101010101F4011B
:101E48000000000001020304010203040607080958
:04000005080002B538
:00000001FF
