:020000040800F2
:100000000010002025020008C50E0008C70E0008D9
:1000100000000000000000000000000000000000E0
:10002000000000000000000000000000CB0E0008EF
:100030000000000000000000CD0E0008690200086A
:1000400069020008690200086902000869020008E4
:10005000690200086902000869020008B108000886
:1000600069020008690200086902000869020008C4
:100070009D0D000869020008690200086902000875
:100080006D02000869020008000000006902000813
:100090006902000869020008690200086902000894
:1000A0006902000869020008690200086902000884
:1000B000690200080000000069020008000000005A
:0400C0005FF808F1EC
:1000C400002934D00123002210B488422CD3012407
:1000D4002407A14204D2814202D209011B01F8E79C
:1000E400E400A14204D2814202D249005B00F8E755
:1000F400884201D3401A1A434C08A04202D3001B81
:100104005C0822438C08A04202D3001B9C082243B3
:10011400CC08A04202D3001BDC082243002803D0F1
:100124001B0901D00909E3E7101C10BC7047002823
:1001340001D00020C04307B4024802A14018029035
:1001440003BDC046D90000000029F0D003B5FFF775
:10015400B9FF0EBC4243891A1847C046002941D052
:1001640010B4041C4C40A44601230022002900D5ED
:100174004942002800D5404288422CD30124240758
:10018400A14204D2814202D209011B01F8E7E40032
:10019400A14204D2814202D249005B00F8E78842BE
:1001A40001D3401A1A434C08A04202D3001B5C0836
:1001B40022438C08A04202D3001B9C082243CC0893
:1001C400A04202D3001BDC082243002803D01B09F1
:1001D40001D00909E3E7101C6446002C00D5404215
:1001E40010BC7047002806D003DB0020C043400841
:1001F40001E08020000607B4024802A140180290E2
:1002040003BDC046190000000029EBD003B5FFF779
:10021400A7FF0EBC4243891A1847C0467047C04620
:10022400002103E00A4B5B584350043109480A4B50
:1002340042189A42F6D3094A02E0002313600432BA
:10024400074B9A42F9D300F041FE00F03FF87047A3
:10025400C8160008000000204400002044000020CC
:10026400AC000020FEE7000000B5064B1A8AD10757
:1002740006D5022252421A82034B1A8801321A808E
:1002840000BDC0460004004086000020034A044B21
:1002940010885B6A0004C0187047C04686000020BE
:1002A4000004004008B5FFF7F1FFFA218900FFF7C9
:1002B40007FF08BD38B5041CFFF7E8FF051CFFF76E
:1002C400E5FF401BA042FAD338BD0000F0B58BB067
:1002D40000F0FCFDC020C002012100F0A5FFC748CA
:1002E400012100F0BDFFC648012100F0ABFF00F082
:1002F40067FD00F013FD00F0B1FA00F0BFFC25210A
:10030400032369442622272601246A440B7009A882
:1003140000236E44137033700425047008A9B9488F
:100324000895022600F0BEFEB64808A9089600F01B
:10033400B9FE291CB348221C00F0EDFE221CB14872
:10034400311C00F0E8FE90202025C00508A908957E
:1003540000F0A8FE9020C005291C221C00F0DBFE42
:10036400FFF794FFA84D06902B88A84C002B04D0CF
:100374002378002B01D100F095FB2378002B00D0CB
:10038400E8E12C88002C00D0E4E100F08BFB00F0C5
:10039400D5FA9F4B9F4D1B789F4F03939F4B1B8810
:1003A4000293E31902201E5E2B78F117701848405F
:1003B4004000FA2158438900FFF782FE6422984BDB
:1003C400101AE0520398002806D10298111C7043B9
:1003D400FFF7C4FE934BE05202340135062CE0D102
:1003E4008D4B00241B88251C0793261C8D4BEF5E28
:1003F4008D4B5B5F8A4AA85E642158434942FFF7EC
:10040400ADFE8A4B38180190019FF05C642178435B
:10041400FFF7A4FE8649874A0390AA5E60585342B8
:100424003818984203DB031C904200DD131C019F23
:10043400AF22F8173F184740BC460021920060469F
:10044400FF0F82424F4169461C22515E78420340AD
:1004540004914F2900DC0023774A754FB05C3B516F
:1004640058437649FFF77AFE754F0590E359019F8B
:100474007448FB1A9FB22B5E3AB2D318724A962183
:10048400B05C49005843FFF769FE6E49F2B26F52FF
:100494006B4F01996D4BE151039F022A0ED10599CF
:1004A4007A1810186A4A904206DBFA2252009042E7
:1004B40000DD101C80B204E0664802E0C019059F0C
:1004C400C0190136585304340235032E8ED1524BD1
:1004D400614C08201A5E614B962A14DD00229A565C
:1004E400002A23D15E490978FA291FD121780929E4
:1004F4001CD8049C962C19DC012119704148042154
:1005040000F009FE12E000229A56012A05D10021CA
:1005140019703C48042100F0FEFD514B1A78F92A69
:1005240004D82178092901D801321A704B4B3A4971
:100534001B785BB2002B04D000268B5F4F2B02DCB0
:1005440000231A1C02E0FA22322392004248007867
:100554000A2801D900200880098800270DB20297D3
:10056400BD4207DBFA200E1C8000854200DD061C1C
:1005740030B20290354CA446674602203F5E261CEA
:100584000024345F049766460427F65F02980396B6
:10059400049F06190398F61B361A1F1C9E4212DB91
:1005A4000026B54207DBFA27B8000FB20E1C8742BB
:1005B40000DD061C36B204983619371A039EBF1B99
:1005C400974200DD171C274E37640027BD420CDB21
:1005D4006F46398108B28446FA208000844501DDE3
:1005E4006F46388168460827C75F04983F1B3F1A47
:1005F40003983F189F4237DA1F1C4DE00300200088
:10060400014A0200000400484000002008000020C5
:1006140050000020090000202200002000000020DB
:100624004A000020440000208E0000201300002017
:10063400740000200200002010000020B80B00000D
:1006440060000020580000200C0000205200002010
:100654000CFEFFFF0CFE00000F0000206C000020C9
:1006640084000020002C01400027BD420CDB6F46B3
:10067400398108B28446FA208000844501DD6F4642
:10068400388168460827C75F04983F1B3F1A0398C0
:100694003F18974200DD171CF7630027BD420CDBAF
:1006A4006F46398108B28446FA208000844501DD12
:1006B4006F46388168460827C75F04983F1B3F1878
:1006C40003983F1A9F4201DA1F1C17E00027BD421E
:1006D4000CDB6F46398108B28446FA2080008445D9
:1006E40001DD6F46388168460827C75F04983F1BC1
:1006F4003F1803983F1A974200DD171CB763002781
:10070400BD420CDB6F46398108B28446FA20800072
:10071400844501DD6F46388168460827C75F049821
:100724003F193F1803983F189F4211DB00239D4255
:1007340006DBFA230DB29B009D4200DD191C0BB2AF
:1007440004991B19039C5B181B19934200DD131CAD
:10075400736302E0354B64221A70354800F04EFC96
:10076400FFF7A0FD334C2368C01A642855D92F4BDA
:100774001A7801321A70FFF795FD2F4B0F221A7069
:100784002E4B20601A7851B2002901DD013A1A700B
:100794002B4C2378002B0AD001222A480221134231
:1007A40000D0002200F0B7FC2378013B2370264AD6
:1007B400AF21138849008B4223D1244B01241A789A
:1007C40020480132D2B21A700421224006D0221CE1
:1007D40000F0A1FC1B480221002204E000F09BFC75
:1007E40018480221221C00F096FC194B00269B5F3E
:1007F400F92B12DC9020C0052021002200F08BFC94
:100804000BE013490027C85F1249884201DC013319
:1008140002E00A2B01D90A3B13800F4CFFF736FD87
:10082400069E801BA042F9D99AE5C0460F0000201D
:10083400002401407000002081000020800000207E
:1008440008000020000400488800002085000020E3
:10085400820000202B010000CF07000070B586B095
:1008640001A90323002501244B7180260223902033
:10087400F6010D71CB718C71C005019600F012FC6C
:10088400281C0E2100F060FC03A8082305714371A5
:100894008471039600F0D2FB05A80723037044700B
:1008A400847000F0DFFE06B070BD000070B5194B17
:1008B400194A596A80235069DB01184228D05361D0
:1008C4009022D205128A1A4222D0144B89B21A8875
:1008D4001C1C8A1A124B92B29A4203D9114B002261
:1008E4001A7014E0104BD018104B80B298420ED8F6
:1008F4000F4B002018700B480378052B07D80D4DBB
:100904000126EE540C4D5E000133725303702180B6
:1009140070BDC04600040040000401408A0000206D
:10092400881300008C0000200BFEFFFFCE070000A0
:100934000F0000203A0000202E000020F0B51D4BCF
:1009440000221D4F111C9C466446085D3B5C002B35
:100954002BD01A4D1A4E43005B5B945BE41A012CB6
:1009640023D0CCB2174E184D002C0AD1B34216DD59
:10097400FA24E400A34201DC144E09E0FA24A400A2
:100984000DE0B34207DDFA24E400A34205DC104E77
:100994009C19A4B203E00F4C01E0FA246400AC52A9
:1009A400074C1353044B00241C5401310232062912
:1009B400CAD1F0BDC01600083A0000202E00002065
:1009C40016000020E70300002200002018FCFFFFAF
:1009D40024FAFFFF0CFE000073B5051C0E1C8021D9
:1009E4002D48090200F019FC0128F8D080239B014E
:1009F400009380232848D02101225B0400F0F6FBF9
:100A0400264C03E0013CA4B2002C34D0224802213D
:100A140000F003FC0028F5D01F48291C00F0F8FB67
:100A24001E4C03E0013CA4B2002C24D01A488021BF
:100A340000F0F3FB0028F5D0002300938023164830
:100A4400D02101229B0400F0D1FB144C03E0013CB3
:100A5400A4B2002C0FD01048022100F0DEFB0028C5
:100A6400F5D00D48311C00F0D3FB0C4C08E0013CE0
:100A7400A4B2002C04D10A4B1A8801321A8009E06E
:100A84000548202100F0C9FB0028F0D002482021AD
:100A940000F0C8FB73BDC0460054004051C30000C1
:100AA4009600002070B586B080216B48090200F0E2
:100AB400B4FB0128F8D080239B0100936648D02121
:100AC4000122002300F092FB644C03E0013CA4B239
:100AD400002C26D06048022100F09FFB0028F5D0AE
:100AE4005D483B2100F094FB5C4C03E0013CA4B264
:100AF400002C16D05848402100F08FFB0028F5D078
:100B040090239B01009380239B045348D0210E2201
:100B140000F06CFB524D002316E0013CA4B2002C03
:100B240004D1504B1A88013285E04C4C4A480421C8
:100B340000F073FB0028F0D047482C7800F06AFBE3
:100B440002AB18552B7801332B702B780D2BECD975
:100B54004148202100F061FB0028F9D03E482021C3
:100B640000F060FB02AB9978D8780902014309B21E
:100B7400C817400F3C4A4118C91011801878597899
:100B84000002084300B2C117490F0918C9104942AD
:100B94005180197958790902014309B2C817400FE5
:100BA4004118C91091801A7A587A304912020243C6
:100BB4000A809A7AD87A120202434A80187B5A7BB6
:100BC4000002031C13435B428B80294B1A88002AC2
:100BD40033D0284800239C005D006D5E2658013305
:100BE4007519DBB22550022BF5D91D4922480B702B
:100BF40001231A400221002A00D01A1C00F08BFAAB
:100C04001B4B1B88012B13D11A4E0024A500FA217B
:100C1400A8594900FFF7A2FA0134E4B2A851022C02
:100C2400F4D90F4B14481C700221002200F073FA0F
:100C34000F4B1A88013A1A800CE00E4853009400B6
:100C44005D5A245801322C1BD2B25C52022AF5D9C7
:100C5400034B1A7006B070BD0054004051C300002D
:100C64009400002096000020A40000208E000020A4
:100C740040000020980000200004004870B58AB0AD
:100C8400224CC02308A90125089302230B718D71FE
:100C9400CD71201C00F006FA201C2A1C062100F04D
:100CA40041FA2A1C201C072100F03CFA184E194B6B
:100CB4000024301C019301A9AB23059302940394EF
:100CC40004940694079400F053FA291C124D301C26
:100CD40000F080FA281CFFF7EDFA80216B20FFF763
:100CE4007BFE281CFFF7E6FA6B200321FFF774FE56
:100CF400211C1A20FFF770FE1B201821FFF76CFE41
:100D04001C201021FFF768FE0AB070BD00040048E3
:100D1400005400400A0210008813000030B58BB064
:100D24000024032307A990200B71CC718025C005F2
:100D3400079500F0B7F901A90C718C60CC600C61C7
:100D44004C611348019400F01DF91148291C072235
:100D540000F037F9042101220D4800F054F909A8E4
:100D64000C230370012404234370847000F07AFC84
:100D7400074800F02BF90648211C00F019F9044833
:100D8400044900F04BF90028F9D00BB030BDC0463F
:100D9400002401400100000108B5074B0422196832
:100DA400114207D01A60186C9921C001FFF788F925
:100DB400024B188008BDC046002401408200002078
:100DC400F0B53C4C8DB0201C06AD00F073FA2F2317
:100DD4002B80394B0027291C201C07932F81AF72CD
:100DE4006F8000F0DBFA201C012100F019FB0BA836
:100DF4001023037001234770837000F033FC01213A
:100E04000A1C201C00F024FCF0231B0109A90993EF
:100E140090240223E4050B7103234B718F71CF716E
:100E2400201C00F03FF9201C0821022200F07AF96E
:100E3400201C0921022200F075F9201C0A2102223B
:100E440000F070F90222201C0B2100F06BF91B4EFC
:100E540001232B80FA239B00301C6B602F81AF721F
:100E64006F8000F027FA301C291C00F097FA01ACBF
:100E740070232380012363800223A381301C2782F3
:100E8400211C039700F0E6FA301C211C00F022FB21
:100E9400301C211C00F06AFB301C211C00F0A6FB56
:100EA400301C012100F0BCFA301C012100F0C3FA0F
:100EB4000DB0F0BD00040040FFFF0000002C014015
:100EC400704700B5FEE770477047000000B5254B3A
:100ED4000122196811431960586823490140596077
:100EE40018682249014019601868214901401960B5
:100EF4005868204901405960D96A0F208143D9625A
:100F0400186B1D4901401963596B914300225963C1
:100F14009A601A4A112111605A685A605A685A60D4
:100F24005968174A0A405A605968A02292030A4332
:100F34005A601968802252040A4380211A60890485
:100F44001868084A0842FBD0516803208143516065
:100F540051680220014351600C225968114008294C
:100F6400FBD100BD001002400CB8FFF8FFFFF6FEF5
:100F7400FFFFFBFFFFFFC0FFACFEFFFF00200240AE
:100F8400FF7FC0FF10B58A680B68C4681343CA6842
:100F940013430A6913434A691343044A224013431F
:100FA4000A7952031343C36010BDC04603D2FFFF46
:100FB40000B583680122002900D102221343836013
:100FC40000BD836A194381624261704710B581682C
:100FD400802212060A438260031C0022064C01325E
:100FE40010199968002801D00029F7DB9A680020BD
:100FF400824200DB186C10BD0010FFFF83680422DE
:1010040013438360704700B54368002A02D0194334
:10101400416001E08B43436000BD000000B5CB019B
:1010240003D58268044B134000E003680B40181C8E
:10103400431E984100BDC046FFFFFFFE10B58379F3
:101044000268002B23D0164BD1431C680C401C6053
:101054005C68214059600179C9180C6822430A6010
:1010640002689C68D1430C409C60DC682140D960D4
:101074004179102906D1996811439960D9680A43C6
:10108400DA600BE006480B1819680A4305E00449C6
:1010940003795B18196891430A1C1A6010BDC04695
:1010A40000040140F7B50B68019300231A1C0125C5
:1010B400019E95402E40AE4228D10D796F1E012F1E
:1010C40012D8846803279F40BC4384604F798468A6
:1010D4009F403C4384608788B74387808E798788A4
:1010E40096403E43B6B28680032607689E40F64388
:1010F4003740076007689D403D430560C5682E4042
:10110400C660CD79C6689D403543C560013202335F
:10111400102ACCD1F7BD00B5002A01D0816100E0CE
:10112400018500BD30B507230B40C908083189008B
:101134000C589B000F259D40AC430C500C589A4012
:10114400131C23430B5030BD30B503220A408908D9
:10115400064B02318900CC5892000F259540AC43D0
:10116400CC50CC5890402043C85030BD00000140C2
:1011740010B5026801239A4302600468124A2240AF
:101184008C68240222434C68224302600C680F4A94
:1011940022400261026813430360002383600A69EA
:1011A400C3608B6913438360826880231B021343EB
:1011B40083600268CB68134303604268044B1340A6
:1011C4004A691343436010BDFFE0CF00FFFFFFF007
:1011D400FF7FFF0700B501230268002901D01343F4
:1011E40001E09A43131C036000BD000010B589059B
:1011F400890D44680B4305490C402343029C234357
:1012040014041A1C2243426010BDC046009800FC1E
:1012140081627047406AC0B2704780690840431ECB
:1012240098417047C161704700B5054B5A69002960
:1012340002D01043586101E082435A6100BDC046A8
:101244000010024000B5054B9A69002902D01043F2
:10125400986101E082439A6100BDC04600100240DB
:1012640000B5054BDA69002902D01043D86101E0CA
:101274008243DA6100BDC0460010024000B5054B50
:10128400DA68002902D01043D86001E08243DA60B2
:1012940000BDC0460010024000B5054B1A69002984
:1012A40002D01043186101E082431A6100BDC046B8
:1012B4000010024008B5314B984207D1802000014C
:1012C4000121FFF7DBFF8020000152E08023DB05D2
:1012D400984205D10120011CFFF7DEFF012024E024
:1012E400274B984205D102200121FFF7D5FF0220A8
:1012F4001BE0244B984205D110200121FFF7CCFFBD
:10130400102012E0204B984205D120200121FFF744
:10131400C3FF202009E01D4B98420AD180204000E1
:101324000121FFF7B9FF802040000021FFF7B4FF3F
:1013340022E0174B984207D1802040020121FFF799
:101344009DFF8020400214E0124B984207D1802078
:1013540080020121FFF792FF8020800209E00E4BFA
:10136400984209D18020C0020121FFF787FF802025
:10137400C0020021FFF782FF08BDC046002C0140D7
:101384000004004000100040001400400020004011
:1013940000400140004401400048014030B5194C70
:1013A400C02502192D065442624144190388002CB9
:1013B40004D0002A02D1144CA04203D17024A343C8
:1013C4004C882343114CA04203D0114D0C892B406F
:1013D400234303804B680F4CC3620B8803850319B6
:1013E400002B09D0002A07D10B4D4319002B03D041
:1013F4000A4A8318002B01D18B7A03860123838246
:1014040030BDC04600D4FEBF0004004000100040C0
:10141400FFFCFFFF00C0FEBF00B8FEBF00BCFEBF64
:1014240000B501230288002901D0134301E09A4347
:10143400131C038000BD00B50630002904D0C28F00
:1014440080231B02134302E0C38F5B045B0CC3873E
:1014540000BD000070B5038C012293430384058C06
:101464008288048B73239C430B884E881C4302237D
:101474009D438B893343124E2B438519002D0BD08A
:10148400104E8519002D07D00F4E8519002D03D05D
:101494000E4E8519002D0DD10825AB43CD894E8AFA
:1014A4002B430425AB438D882B43094D2A400D8AD9
:1014B40035432A4382808A6804834263038470BD6F
:1014C40000C0FEBF00D4FEBF00B8FEBF00BCFEBF1C
:1014D400FFFCFFFFF0B5038C102293430384028CBE
:1014E4001D4C8388058B1D4E25400C881C4F2402FF
:1014F40025432024A2438C89ADB2240122434C8885
:1015040092B224012243841966427441C61992B2EC
:10151400002E01D0002C19D0124E33400E8AB60092
:1015240033439BB2002C11D08024A243CC892401E4
:10153400224392B24024A2438C88240122430A4CC1
:1015440092B223404C8AA40023439BB283808B68CD
:10155400058383630284F0BDFF8CFFFF00D4FEBFCC
:1015640000C0FEBFFFFBFFFFFFF7FFFF30B5028C9B
:10157400184B13400384058C8288848B73239C430B
:101584000B881C43144B2B408D892D022B434D8813
:101594009BB22D022B43114D9BB2A84214D1104D86
:1015A4002B40CD892D022B430E4D2B408D882D02CF
:1015B4002B430D4D9BB22A400D8A2D012A434D8A9F
:1015C40092B22D012A4392B282808A688483C263D4
:1015D400038430BDFFFEFFFFFFFDFFFF002C014031
:1015E400FFF7FFFFFFFB0000FFCFFFFF30B5028CCA
:1015F400124B13400384058C114A8388848B144056
:101604000A88120214430F4AA4B22A408D892D037A
:101614002A434D8892B22D032A430B4D92B2A8421D
:1016240005D10A4D2B400D8AAD012B439BB283801B
:101634008B6884830364028430BDC046FFEFFFFFE0
:10164400FF8CFFFFFFDFFFFF002C0140FFBFFFFF08
:1016540000B58389002A02D01943818101E08B43BC
:10166400838100BD70B582780378002A19D00324E1
:101674009908104A2340C031A3408900FF248D58A3
:10168400261C9E40B5434678B60134409C402B1C32
:1016940023438B5001781F230B4001219940116093
:1016A40006E01F22134001229A40131C024AD3670A
:1016B40070BDC04600E100E004E100E00200010367
:0416C4000405000019
:1016C800CC0150465046881314585858787800640E
:1016D8004141552D2D46DC05DC05DC05DC05DC0526
:1016E800DC050000F401F401F401F401F401DC0567
:1016F800DC05DC05DC05DC05DC0501010101010177
:04170800F4010000E8
:0400000508000225C8
:00000001FF
