:020000040800F2
:10000000F0090020514900085D1500085F1500083F
:1000100000000000000000000000000000000000E0
:100020000000000000000000000000006315000850
:100030000000000000000000651500087F4900086E
:100040008149000881490008814900088149000868
:1000500081490008814900088149000865170008A6
:100060008149000881490008814900088149000848
:10007000D71000088149000881490008814900081B
:10008000490100088149000800000000814900087A
:100090008149000881490008814900088149000818
:1000A000814900088149000881490008D7110008EA
:1000B000814900080000000081490008000000009C
:1000C00000F002F800F030F80CA030C8083824180E
:1000D0002D18A246671EAB4654465D46AC4201D180
:1000E00000F022F87E460F3E0FCCB6460126334282
:1000F00000D0FB1AA246AB4633431847044B00001E
:10010000244B00000023002400250026103A01D3D0
:1001100078C1FBD8520700D330C100D50B607047BF
:100120001FB51FBD10B510BD04F0FCFC1146FFF754
:10013000F7FF00F035F804F014FD03B4FFF7F2FF09
:1001400003BC04F019FD0000F948008AC007C00F85
:10015000002808D00120C043F5490882F5480088EE
:10016000401CF44908807047F24800880004F049B8
:10017000496A4018704710B5FFF7F6FF04467D2125
:10018000C90004F01FFC10BD00B50246FFF7ECFFEC
:10019000034600BFFFF7E8FFC01A9042FAD300BD44
:1001A00088B001F01CFA01210320400402F0D0FFC6
:1001B0000121E14802F0E8FF0121E04802F0D6FF0A
:1001C00001F010F900F048FFE120400200F0A0FF2C
:1001D00000F0E4FE04200690012168460177032127
:1001E000417700218177C17706A9D54802F0C8F987
:1001F0000120C003069006A90920C00602F0C0F93C
:1002000000220421CE4802F03CFA00220121C90359
:100210000920C00602F035FA01F086FDFEE3002455
:10022000FFF7A2FF0590C7480088002805DDC648F3
:100230000078002801D100F06CFDC3480078002848
:1002400072D1C04800880028FAD100F062FD01F0A8
:1002500082FE002431E0611C4900BC4A515E002945
:1002600003DD611C4900515E04E0611C4900B74A8E
:10027000515E49424800B64A125D50437D21C90093
:1002800004F0A0FB6421081A00B26100B14A505288
:10029000B148007800280ED1611C4900AB4A515E7C
:1002A000AE4A128851430846642104F095FB00B21F
:1002B0006100AB4A5052601CC4B2032CCBDB00245B
:1002C00092E06100A74A515E6200A24B9A5E5143E0
:1002D0000846642104F080FB6100A14A515E0D1ABA
:1002E000A149095D69430846642104F075FB029049
:1002F000A0009E490858401961009D4A515E49423C
:10030000884204DA60001146085E404211E0A00015
:100310009649085840196100954A515E884204DDAB
:1003200060001146085E04E09DE2A0008F49085875
:1003300040190646002D01DD284600E06842AF2145
:100340008900884200DD002680480021415E502956
:1003500000DA0026A00085490E508649095D7143E8
:100360000846854904F038FB0646A0008349085A30
:10037000281A00B201906100814A525E0199511819
:10038000804A125D51430846FF212D3104F024FBC1
:10039000074661007A4A01985052A00077490D50F3
:1003A000022C18D102988019C0197749884201DAC5
:1003B00008460BE002988019C019FF21F5318842E8
:1003C00001DD084602E002988019C01900B2610000
:1003D0006E4A505206E002988019C01900B26100BE
:1003E0006A4A5052601CC4B2032C00DA69E75748CD
:1003F0000821415E962919DD6548007800282ED134
:1004000064480078FA282AD1634800780A2826DA56
:100410004E480021415E962921DC01205C4908708C
:1004200001220421464802F02CF918E058480078CF
:10043000012807D1002056490870002204214048B5
:1004400002F01FF953480078FA2808DA5248007879
:100450000A2804DA4F480078401C4E4908700020F2
:10046000049003904A48007800280CD037480021B7
:10047000415E502902DA0020049004E07D20C00093
:10048000049032200390444800780A2804DD0020BC
:100490002E4908803C4808812C490020085E00282D
:1004A00001DA00200BE029490020085E7D21C90007
:1004B000884201DD084602E024490020085E334AF4
:1004C0000021515E4018114602228A5E51424018B6
:1004D0002E4904228A5E514241180398814201DA72
:1004E00003987CE019480021415E002901DA0020D0
:1004F0000BE016490020085E7D21C900884201DD1D
:10050000084602E011490020085E204A0021515EA1
:100510004018114602228A5E514240181B490422AB
:100520008A5E514241180498814237DD049856E0B2
:10053000000400400400002003002000015A0200D3
:1005400000040048BC000020DC00002098000020CF
:10055000CC000020DE000020BF000020CA000020E8
:10056000E4000020A8000020C10000206C01002051
:10057000D0000020C4000020B80B00006001002063
:10058000F0000020C70000200CFEFFFFEA00002062
:10059000A4000020C0000020BE000020F948002177
:1005A000415E002901DA00200BE0F6490020085ED8
:1005B0007D21C900884201DD084602E0F1490020A2
:1005C000085EF14A0021515E4018114602228A5EFF
:1005D00051424018EC4904228A5E51424018EB49CE
:1005E0004863E8480021415E002901DA00200BE061
:1005F000E4490020085E7D21C900884201DD0846EB
:1006000002E0E0490020085EDF4900228A5E514294
:100610004018DD4902228A5E51424118DA4A04201C
:10062000105E09180398814201DA039846E0D54824
:100630000021415E002901DA00200BE0D1490020B1
:10064000085E7D21C900884201DD084602E0CD49EF
:100650000020085ECC4900228A5E51424018CA49F7
:1006600002228A5E51424118C74A0420105E0918CE
:100670000498814201DD049820E0C2480021415ED7
:10068000002901DA00200BE0BE490020085E7D2130
:10069000C900884201DD084602E0BA490020085E30
:1006A000B94900228A5E51424018B74902228A5E47
:1006B00051424118B44A0420105E0818B349403131
:1006C0000860B0490020085E002801DA00200AE036
:1006D000AC480021415E7D20C000814200DD02E087
:1006E000A8490020085EA84900228A5E51424118AC
:1006F000A54A0220105E0818114604228A5E514263
:1007000041180398814201DA039846E09D48002190
:10071000415E002901DA00200BE09A490020085EC2
:100720007D21C900884201DD084602E0954900208C
:10073000085E954900228A5E51424118924A022081
:10074000105E0818114604228A5E5142411804982E
:10075000814201DD049820E08A480021415E0029A1
:1007600001DA00200BE087490020085E7D21C900E6
:10077000884201DD084602E082490020085E824985
:1007800000228A5E514241187F4A0220105E0818FA
:10079000114604228A5E514240187D4948637948D7
:1007A0000021415E002901DA00200BE0754900209C
:1007B000085E7D21C900884201DD084602E07149DA
:1007C0000020085E704A0021515E41180220105E30
:1007D00009180420105E09180398814201DA039871
:1007E0003EE068480021415E002901DA00200BE06C
:1007F00064490020085E7D21C900884201DD084669
:1008000002E060490020085E5F4A0021515E411805
:100810000220105E09180420105E09180498814215
:1008200001DD04981CE057480021415E002901DAEF
:1008300000200BE053490020085E7D21C90088425A
:1008400001DD084602E04F490020085E4E4A0021C3
:10085000515E41180220105E09180420105E08182D
:100860004C49086002E064204B4908704B4801F095
:1008700062FDFFF780FC4A490968401A642875D96F
:1008800045480078401C44490870FFF774FC44490F
:1008900008600F2043490870434800214156002951
:1008A00004DD0078401E40B23F4908703F480078A0
:1008B00000281ADD3D490878C10F09184910490080
:1008C000411A06D00122D1030920C00601F0D9FE49
:1008D00006E000220121C9030920C00601F0D1FE73
:1008E00032480078401E3149087031480088FF21A5
:1008F0005F31884224D12F480078401C2D49087070
:100900000878C10F091849104900411A0BD000227C
:100910000421294801F0B5FE0122D1030920C006B7
:1009200001F0AFFE22E001220421234801F0A9FEDC
:1009300000220121C9030920C00601F0A2FE15E032
:100940001E490020085EFF212D31884205DA184833
:100950000088401C1649088008E0154800880A28CD
:1009600004DD134800880A381149088004E000F0CB
:100970007BFC14200C49087000F06FFC0028F6D1B5
:1009800014E1000098000020EA000020002C014043
:100990000044014040000040BE000020002401400F
:1009A000D80000200000002006000020DC0000200D
:1009B00008000020F600002000040048A6000020E7
:1009C00080480078012808DC7F4800214156002932
:1009D000D6DD7C4800780028D2DD7A480078401EB9
:1009E0007849087008460078030004F0F7F80FCD46
:1009F000C0B2A496887A6C5E504234261809DE0094
:100A00000A21724800F041FC71490020085E00F0A4
:100A100052FC02216F4800F038FCC6E0D0E00A2109
:100A20006D4800F032FC6A490220085E00F043FC89
:100A30000221684800F029FCB7E00A21674800F06D
:100A400024FC63490420085E00F035FC0221614863
:100A500000F01BFCA9E00A21614800F016FC5C498B
:100A60000620085E00F027FC02215A4800F00DFC29
:100A70009BE00A215B4800F008FC55490820085E0D
:100A800000F019FC0221534800F0FFFB8DE00A2121
:100A9000554800F0FAFB4E490A20085E00F00BFCB6
:100AA00002214C4800F0F1FB7FE00A214F4800F0A2
:100AB000ECFB4F490020085E00F0FDFB0221454899
:100AC00000F0E3FB71E00A214A4800F0DEFB4A49EE
:100AD0000020085E00F0EFFB02213E4800F0D5FB4D
:100AE00063E00A21454800F0D0FB43490220085E3C
:100AF00000F0E1FB0221374800F0C7FB55E00A2176
:100B00003F4800F0C2FB3C490420085E00F0D3FBE4
:100B10000221304800F0B9FB47E00A21394800F0D3
:100B2000B4FB39490020085E00F0C5FB02212948CA
:100B300000F0ABFB39E00A21344800F0A6FB324953
:100B40000220085E00F0B7FB0221224800F09DFB66
:100B50002BE00A212E4800F098FB2B490420085E68
:100B600000F0A9FB02211B4800F08FFB1DE00221D1
:100B7000184800F08AFB0221164800F086FB02218B
:100B8000144800F082FB10E00A21224800F07DFBAF
:100B90000221104800F079FB02210E4800F075FB9D
:100BA00002210C4800F071FB00BF00BFFFF7DCFA28
:100BB0000599401A18490988884200D200E700BF09
:100BC000FFF72DFB00000020060000200C00002095
:100BD000980000200A0000201600002020000020BD
:100BE0002A000020340000203E00002048000020A1
:100BF000A600002052000020A80000205C00002079
:100C00006600002070000020AE0000207A00002066
:100C1000840000208E00002002000020F8B5054668
:100C20000E4600BF0121C903FE4801F073FF0128F1
:100C3000F8D001204003C3020122D0210090F948DE
:100C400001F0C0FE00240BE0601C84B2F648844230
:100C500006DDF6480088401C00B2F4490880F8BD63
:100C60000221F04801F056FF0028EDD02946ED485A
:100C700001F040FF00240BE0601C84B2EA4884428B
:100C800006DDEA480088401C00B2E8490880E6E733
:100C90008021E44801F03EFF0028EDD00020012330
:100CA0005B060122D0210090DE4801F08BFE00247B
:100CB0000BE0601C84B2DC48844206DDDB4800881F
:100CC000401C00B2D9490880C9E70221D54801F08B
:100CD00021FF0028EDD03146D24801F00BFF00245F
:100CE0000BE0601C84B2D048844206DDCF48008807
:100CF000401C00B2CD490880B1E72021C94801F06D
:100D000009FF0028EDD02021C64801F011FF00BFE7
:100D1000A5E710B586B000BF0121C903C14801F0A5
:100D2000F9FE0128F8D00120400300230122D02140
:100D30000090BC4801F046FE00240CE0601C84B228
:100D4000B948844207DDB9480088401C00B2B74961
:100D5000088006B010BD0221B24801F0DBFE002879
:100D6000ECD03B21AF4801F0C5FE00240BE0601C35
:100D700084B2AD48844206DDAC480088401C00B215
:100D8000AA490880E5E74021A64801F0C3FE0028F3
:100D9000EDD00920800201235B060E22D0210090B5
:100DA000A04801F00FFE0020A14908701FE00024B8
:100DB0000BE0601C84B29C48844206DD9B4800889E
:100DC000401C00B299490880C3E70421954801F00E
:100DD000A1FE0028EDD0934801F08EFE02A9944AAE
:100DE0001278885492480078401C914908709048C5
:100DF00000780E28DBDB002400BF2021894801F0A9
:100E000089FE0028F9D02021864801F091FE69462C
:100E1000897A0A026946C97A0A4311B24842C1175F
:100E2000490F0918C910834A11806946097A0A02D4
:100E30006946497A0A4311B24842C117490F091855
:100E4000C9107C4A51806946097B0A026946497B80
:100E50000A4311B24842C117490F0918C910754A0F
:100E600091806946087C0002497C0843404200B2F8
:100E7000714908806946887C0002C97C0843404269
:100E800000B26D4948806946087D0002497D0843EB
:100E9000404200B2684988806848008800285DDDCB
:100EA00000206349087014E06148007880006449BC
:100EB00008585F49097849005F4A515E40185C490B
:100EC000097889005E4A505059480078401C5849BA
:100ED0000870574800780328E6DB58490888C10F96
:100EE000091849104900411A07D000220121C903FD
:100EF0000920C00601F0C5FB05E00122D10309204D
:100F0000C00601F0BEFB4D480088012820D100201A
:100F10004749087012E0464909788900484A505804
:100F2000FF21F53103F058FD414909788900444A11
:100F300050503F480078401C3D4908703C480078BC
:100F40000328E8DB0122D1030920C00601F099FB48
:100F50003A480088401E394908801DE00020344985
:100F6000087015E03248007840003349085A30498B
:100F700009788900324A515A401A00B22C4909783E
:100F800049002D4A50522A480078401C28490870D0
:100F9000274800780328E5DB00BFDAE600B589B012
:100FA000C0200790022108A8017001218170C17042
:100FB00007A9244801F0E4FA01220621214801F0A2
:100FC00068FB012207211F4801F063FB1E480090C7
:100FD0000020019002900390AB2004900020059027
:100FE000069069460F4801F09CFB01210D4801F075
:100FF000D5FB1648FFF7C8F880216B20FFF70EFEDF
:101000001248FFF7C1F803216B20FFF707FE00210C
:101010001A20FFF703FE18211B20FFF7FFFD102108
:101020001C2015E00054004050C30000BA0000200E
:10103000F7000020AE000020A8000020BC00002027
:1010400078010020000400480A0210008813000004
:10105000FFF7E4FD09B000BD00B589B0042007909A
:10106000032108A801700021C17007A90920C0064A
:1010700001F086FA002001900021684601720020EC
:10108000039004900590069001A91D4801F046F8D0
:10109000072204211A4801F0F5F80122042118481A
:1010A00001F066F90C2168460170042141700121AC
:1010B000817003F07BFB124801F01AF901211048FE
:1010C00001F048F800BF0F490D4801F05BF9002816
:1010D000F9D009B000BD10B50948006804210840E6
:1010E00000280CD0042006490860054940310968F1
:1010F000C801054903F066FC00B20449088010BD30
:101100000024014001000001BA030000A6000020F5
:1011100010B58AB0044601220921C80601F0B9FAC7
:1011200001220A210920C00601F0B3FA032040027F
:101130000890022108A801710321417100218171E9
:10114000C17108A90920C00601F01AFA0294002012
:1011500003900490059007900C20069002A99148F6
:1011600003F08EF81B2168460171052141710121B0
:10117000817101A803F01AFB01228B49894803F011
:10118000A4FA01228949874803F09FFA0121854882
:1011900003F005F90AB010BD10B5854800780028A5
:1011A00018D18448007884490978884212D00120F7
:1011B0007F49087001227D497A4803F086FA7E480B
:1011C00002780078401C7C4B18707C48815C754824
:1011D00003F096F910BD10B57349724803F0B5FAE3
:1011E00000280FD070496F4803F0D6FA6D4803F01D
:1011F0008BF9C1B2724802780078401C704B1870AD
:10120000704881546949674803F09FFA002823D049
:101210006649644803F0C0FA674800786549097870
:1012200088420FD06248007800280BD062480278CC
:101230000078401C604B18706048815C594803F08E
:101240005FF909E000205A490870002257495548C3
:1012500003F03BFAFFF7A0FF10BD594800785A4948
:101260000978401AC0B27047574800785449097845
:10127000884208D0544801780078401C524A1070C7
:101280005048405C70470020FCE770B504460D46AE
:1012900000260BE03046711CCEB2215C4548027836
:1012A0000078401C434B187044488154AE42F1DB37
:1012B000FFF772FF70BDF0B589B00646B4B22020CA
:1012C0000890002E03DA704284B22D2008903FA2CD
:1012D00007CA05AB07C3002500200390049008E06F
:1012E0006846007B401CC1B2684601733A48201A28
:1012F00084B239488442F3DA09E06846407B401CF6
:10130000C1B2684641737D20C000201A84B27D209E
:10131000C0008442F1DA08E06846807B401CC1B21C
:10132000684681732046643884B2642CF4DA08E09D
:101330006846C07B401CC1B26846C17320460A386B
:1013400084B20A2CF4DA69460C7424A103C9029110
:101350000190002700251DE0052D02D1002F00D1AE
:1013600016E003A8405D05A9085C302806D0002FD0
:1013700004D101A908984855012708E0002F06D09C
:10138000681E03A9085C05A9085C01A9485500BFAF
:10139000681CC5B2062DDFDB062101A8FFF775FF2B
:1013A00009B0F0BD00380140050105000601060046
:1013B000FC000020FB000020FA0000208402002036
:1013C000F900002084010020F80000203031323381
:1013D000343536373839000010270000202020200F
:1013E0002030000000B58BB0564802F013F92F21D1
:1013F000684601845448099000216846018508A880
:1014000081726846418408A94E4802F075F90121AD
:101410004C4802F0F6F91021684601770021417727
:101420000121817707A803F0C1F90122114645483F
:1014300002F0E6FD45480590022168460176032149
:10144000417600218176C17605A90920C00601F008
:1014500097F8FF200130059005A93D4801F090F86C
:10146000022203210920C00601F013F902220821FB
:101470000920C00601F00DF902220B210920C00647
:1014800001F007F902220821314801F002F9012197
:10149000684601847D20C0000990002168460185CE
:1014A00008A88172684641842A4802F0B3F808A966
:1014B000284802F021F90120800702F0ABF808A9C2
:1014C0000120800702F018F9234802F0A3F808A9C8
:1014D000214802F011F97021684601800121418004
:1014E0000020029002216846818100210182694624
:1014F000184802F0BDF96946164802F09DFA69469F
:10150000154802F0B5F969460120800702F094FA07
:101510000121104802F075F901210E4802F097F9F7
:101520000121880702F093F90121880702F069F987
:101530000121094802F08BF90121074802F061F905
:101540000BB000BD00040040FFFF000008090000D0
:1015500000040048002C014000440140704700BFD7
:10156000FEE770477047000011205F4908605F4840
:1015700040685E49486008464068486008464068E0
:101580007F21C903884359494860084640680521BE
:10159000C904084355494860084600680121090606
:1015A00008435249086000BF5048006801214906BD
:1015B00008400028F8D04D484068800880004B491A
:1015C000486008464068022108434849486000BF17
:1015D000464840680C2108400828F9D1704710B5EA
:1015E00042480068012108434049086008464068B5
:1015F0003F4908403D494860084600683D49084069
:101600003A4908600846006801218904884337493F
:101610000860084640683F21090488433349486010
:101620000846C06A00090001C8620846006BFF2135
:10163000543188432D4908630846406B40084000F8
:10164000486300208860FFF78FFF10BDF8B50025C4
:10165000002400260027254840680C210840054644
:10166000002D04D0042D06D0082D2AD107E02248F1
:101670002249086029E020482049086025E01B48ED
:1016800040680F2189040840044618484068032137
:10169000C90308400646A00C841C002E04D118483B
:1016A0006043164908600BE01048C06A0007000F4D
:1016B000471C3946104803F085F960430F4908601C
:1016C00003E00D480D49086000BF00BF07484068AF
:1016D000F021084000090B490D5C08480068E8400B
:1016E00006490860F8BD00000020024000100240DA
:1016F0000CB8FFF8FFFFF6FE00127A000001002090
:1017000000093D000401002000B585B001208003E0
:101710000390002168460174032141740121817402
:101720000221C17403A90920C00600F029FF0E217F
:10173000002003F0D1F801208003019000216846C9
:101740000172082141720121817201A800F058FE46
:1017500007216846017001214170817003F026F86D
:1017600005B000BD10B55C48406A81B25B48406975
:10177000012292031040002834D01046574A50618D
:101780000920C006008A012292031040002829D0B7
:10179000534A12888A1A90B2524A904203DD0022BC
:1017A000514B1A701BE0FF22F532904217DD4F4A71
:1017B000904214DA00224E4B1A704B4A1278062AD5
:1017C0000DDA01224B4B484C24781A55464A1378BF
:1017D0001278521C444C22705A00474B9852404A8F
:1017E000118000BF10BD002073E04449095C414AEC
:1017F000515C00296BD04100414A515A3F4A125C6A
:1018000052003D4B9A5A891A012909DC41003C4A91
:10181000515A3A4A125C52009A5A891A012956DAE8
:10182000002823D13549095C4900334A515A7D22A9
:10183000D200891A01D5002113E03049095C490022
:101840002D4A515A7D22D200891A914201DD11465A
:1018500007E02A49095C4900274A515A7D22D200F3
:10186000891A09B24200274B995223E02349095CA7
:101870004900214A515A244A891A244A914201DADC
:10188000114613E01D49095C49001B4A515A1E4A82
:10189000891AFF22F532914201DD114606E017490F
:1018A000095C4900144A515A174A891A09B2420080
:1018B000144B99521149095C49000F4A515A420090
:1018C0000F4B995200210D4A125C0A4B9954411C4E
:1018D000C8B2062889DB70470004004000040140BC
:1018E0002C010020881300002E010020C4090000F4
:1018F000BE000020260100201A0100201401002053
:101900003001002098000020DC0500000CFEFFFFE5
:1019100010B5044600BF0221E44801F03DFE002856
:10192000F9D02146E14801F0D2FD00BF0121DF4896
:1019300001F032FE0028F9D0DC4801F0CFFD10BDE7
:1019400010B5A520FFF7E4FF10BDF8B505460E461B
:10195000174610210920C00600F091FEE806C00ECF
:10196000FFF7D6FF0090002403E0FFF7E9FF3055B2
:10197000641CBC42F9DB10210920C00600F07DFE8A
:101980000098F8BDF8B505460E4617461021092007
:10199000C00600F074FEE906C90E20221143084675
:1019A000FFF7B6FF0090002403E0305DFFF7B0FFC3
:1019B000641CBC42F9DB10210920C00600F05DFE6A
:1019C0000098F8BD13B50446012201A92046FFF78F
:1019D000D9FF1CBD38B50446012269462046FFF7F1
:1019E000B4FF6846007838BD10B510210920C00644
:1019F00000F045FEFF20FFF78BFF04461021092071
:101A0000C00600F03AFE204610BD10B51021092096
:101A1000C00600F034FEE220FFF77AFF04461021F2
:101A20000920C00600F029FE204610BD10B5102187
:101A30000920C00600F023FEE120FFF769FF0446FD
:101A400010210920C00600F018FE204610BD70B518
:101A5000054610210920C00600F011FE6020FFF7A6
:101A600057FFFFF76DFF044610210920C00600F064
:101A700004FE204670BD10B510210920C00600F0FC
:101A8000FEFD5020FFF744FF04467320FFF740FFA0
:101A900010210920C00600F0F0FD204610BD10B551
:101AA00010210920C00600F0EAFD5020FFF730FFAA
:101AB00004465320FFF72CFF10210920C00600F038
:101AC000DCFD204610BDF8B505460E461746102130
:101AD0000920C00600F0D3FD2907090FA8221143F1
:101AE0000846FFF715FF0090002403E0305DFFF784
:101AF0000FFF641CBC42F9DB10210920C00600F076
:101B0000BCFD0098F8BDF8B505460E461021092029
:101B1000C00600F0B4FD6120FFF7FAFE074600247E
:101B200003E0FFF70DFF2855641CB442F9DB1021D8
:101B30000920C00600F0A1FD3846F8BD10B55C488C
:101B40000068002802D05A480068804710BD5849F4
:101B50000860704710B504467E2C03D2E1B2052020
:101B6000FFF730FF10BD10B50446002C04D0012C47
:101B700007D0022C0FD109E026210620FFF722FF13
:101B800009E006210846FFF71DFF04E00E210620AC
:101B9000FFF718FF00BF00BF10BD70B504460D462B
:101BA0000526012C00D9012621460A31C8B2324649
:101BB0002946FFF7E7FE70BD704710B5FFF714FF29
:101BC00010BD00B587B03B480078002801D007B0B1
:101BD00000BD684600F01CFD02216846017100212D
:101BE00081710221C1710321417120200090694659
:101BF0000920C00600F0C4FC80200090694609203E
:101C0000C00600F0BDFC4020009069460920C006D7
:101C100000F0B6FC01216846017110200090694671
:101C20000920C00600F0ACFC002220210920C006DB
:101C300000F02FFD002280210920C00600F029FDC0
:101C4000002240210920C00600F023FD10210920B8
:101C5000C00600F012FD002168460181FF21053118
:101C600041810721090281810021C1810182012175
:101C700049024182102181820021C1820721018312
:101C800002A90A4801F011FB01210903074801F0EC
:101C9000DFFB0121054801F0AAFB0120054908707E
:101CA00000BF94E70348007870470000003001400F
:101CB000400100203C01002070B50446FEF754FAB4
:101CC00006467D21C90002F07DFE0546F048006809
:101CD000281AA04227D9EE480560EE48007800286F
:101CE00011D001281ED101220421EB4800F0C9FCCB
:101CF00000220121C9030920C00600F0C2FC002017
:101D0000E44908700EE000220421E34800F0B9FC29
:101D10000122D1030920C00600F0B3FC0120DD49F7
:101D2000087000BF00BF70BD10B5FFF74AFF092162
:101D30000020FFF747FE3F210120FFF743FE3F2130
:101D40000220FFF73FFE03210846FFF73BFE1A2162
:101D50000420FFF737FE3C210520FFF733FE062164
:101D60000846FFF72FFE70210720FFF72BFE092101
:101D70001120FFF727FE09211220FFF723FE09217A
:101D80001320FFF71FFE09211420FFF71BFE092176
:101D90001520FFF717FE09211620FFF713FE00217B
:101DA0001720FFF70FFE3F211C20FFF70BFE072136
:101DB0001D20FFF707FE1D20FFF70CFEFFF75BFE5F
:101DC0001D20FFF707FE3F211C20FFF7FBFD072129
:101DD0001D20FFF7F7FDFFF762FE0720FFF7FAFD72
:101DE00080210840002831D00422ACA10020FFF758
:101DF000C9FD0422ABA10120FFF7C4FD0422ABA161
:101E00000220FFF7BFFD0422AAA10320FFF7BAFDBD
:101E10000422AAA11046FFF7B5FD0422A9A10520BE
:101E2000FFF7B0FD0422A9A10C20FFF7ABFD0422AF
:101E3000A8A10D20FFF7A6FD0422A8A11046FFF7D8
:101E4000A1FD04229DA11046FFF79CFDFFF727FE90
:101E5000FFF7DBFDFFF7EAFD0522A2490A20FFF7A5
:101E600091FD05229F491020FFF78CFD0B210020DA
:101E7000FFF7A8FD6AE0FEF777F904467D21C90067
:101E800002F0A0FD8249086003E0FF20F530FFF773
:101E900013FFFFF792FE402108400028F5D008E02C
:101EA0000020FFF7D4FD092803D109218E48FFF750
:101EB0002AFE1720FFF78EFDC007C00F0028EFD0C5
:101EC000FFF7A3FD70210720FFF77CFD864800780F
:101ED00086490870844840784870834880788870C4
:101EE0008148C078C870C120087105220A20FFF718
:101EF00049FD05227D491020FFF744FDFFF785FDD0
:101F000070210720FFF75EFDFEF72EF904467D21C4
:101F1000C90002F057FD5E49086002E0FA20FFF7B1
:101F2000CBFEFFF74AFE402108400028F6D00120F2
:101F30006F49087000220421574800F0A2FB0022DC
:101F40000121C9030920C00600F09BFB6848007806
:101F5000002890D010BD10B5FFF72FFE402108409B
:101F6000002873D009216048FFF7CDFDFFF74DFD34
:101F700070210720FFF726FD5B48007880000028CD
:101F800001DA00200BE05848007880007D21C9006C
:101F9000884201DD084602E0534800788000554938
:101FA0000880514800798000FF38FF3802385249D4
:101FB000884201DA084611E04B4800798000FF387A
:101FC000FF380238FF21F531884201DD084605E07F
:101FD000454800798000FF38FF380238454948807D
:101FE0004148C0788000FF38FF38023842498842B3
:101FF00001DA084611E03C48C0788000FF38FF381D
:102000000238FF21F531884201DD084605E03648F7
:10201000C0788000FF38FF3802383649888032485F
:1020200040788000FF38FF3802383349884201DAAF
:10203000084612E02C4840788000FF38FF3802380C
:10204000FF21F531884202DD084606E01EE0264801
:1020500040788000FF38FF3802382649C88022487F
:10206000C0790007000F00280DD01F48C078F02865
:1020700002DDFF20F53008811B48C0780F2802DA06
:102080001D481C49088100201C49087010BD000033
:102090004C0100204A01002000040048404B01E2AE
:1020A00000000000C04B000000000000D0FC8C02CB
:1020B000000000009900392100000000D996821B21
:1020C0000000000024067FA600000000001273003C
:1020D0000000000046B4800000000000DF96821B74
:1020E00000000000F84B0008840300204501002098
:1020F00044010020980000200CFEFFFFBE000020DD
:1021000010B50446B648844207D10121401501F0BC
:1021100057F80021601501F053F810BD10B50022EA
:10212000C268B04B1A400C7964030B6823438C6877
:102130002343CC6823430C6923434C6923431A434C
:10214000C26010BD0021016001718160C160016148
:1021500041617047002904D0826801231A438260DC
:1021600003E0826802231A4382607047016170476E
:10217000002A03D003690B43036102E003698B4328
:1021800003617047002905D0C2680123DB031A43AD
:10219000C26004E0C2680123DB039A43C260704757
:1021A000002905D0C26801239B031A43C26004E0E2
:1021B000C26801239B039A43C2607047002905D07F
:1021C000C2680123DB051A43C26004E0C268012330
:1021D000DB059A43C26070470B04134303627047E8
:1021E00010B50A460021C1681F24A4060B46A3436C
:1021F00019460B4613431946C16010BD002905D08E
:10220000C26801239B051A43C26004E0C26801232F
:102210009B059A43C2607047002807D072498968BD
:102220000122D2051143704A916006E06E49896827
:102230000122D20591436C4A91607047002807D073
:1022400069498968012292051143674A916006E055
:1022500065498968012292059143634A91607047FC
:10226000002807D0604989680122120611435E4A9E
:10227000916006E05C4989680122120691435A4A3E
:102280009160704710B50B460021846A1C4384623C
:1022900000BF0C4614432146416110BD002905D002
:1022A000C26801235B031A43C26004E0C2680123D1
:1022B0005B039A43C2607047002905D0C2680123BE
:1022C0001B041A43C26004E0C26801231B049A4342
:1022D000C2607047002905D0C26801231B031A435E
:1022E000C26004E0C26801231B039A43C2607047C6
:1022F00030B501460020002200238C680125ED073F
:102300002C438C6000BF8C68E30FDB07521C0F244A
:102310002403A24201D0002BF5D18C68E40FE4071E
:10232000002C01D1086C00E0002030BD8168102233
:1023300011438160704781680422114381607047B6
:102340000146086C80B27047002904D0C26801239E
:102350001A43C26003E0C26852085200C26070476C
:10236000C26802239A43C260C2680A43C2607047CF
:10237000002A03D043680B43436002E043688B4369
:102380004360704730B50246002000230124240634
:102390000C40002C05D0946801252D06AC43234643
:1023A00000E013681C460C40002C01D0012000E026
:1023B000002030BD0160704710B5024600200023A8
:1023C00054680C40234614680C40002C03D0002BAA
:1023D00001D0012000E0002010BD01607047000026
:1023E0000024014003D2FFFF002701403A483B4947
:1023F0000860002048608860C860394848617047BC
:10240000002136498279002A35D00A4612680368CD
:102410009A430B461A600A46526803689A430B4671
:102420005A60027951180A6803681A430A602B4AF5
:10243000926803689A43294B9A601A46D2680368E7
:102440009A43264BDA604279102A0CD11A469268D8
:1024500003681A43214B9A601A46D26803681A43EC
:102460001E4BDA600DE01D49427951180A68036875
:102470001A430A6005E0027951180A6803689A4312
:102480000A6070470021016001710C214171002137
:1024900081717047114909690143104A1161704700
:1024A000014600200D4A52690A40002A01D001204D
:1024B00000E000207047094948617047014600204C
:1024C000064A52690A40002A01D0012000E000209B
:1024D00070470249486170470000940F00040140B2
:1024E000FFFF6B0010B504460920C006844209D1E5
:1024F0000121480400F056FE00210120400400F0B4
:1025000051FE3CE07448844208D10121000200F0F1
:1025100049FE0021200200F045FE30E06F48844271
:1025200008D10121000200F03DFE0021200200F050
:1025300039FE24E06A48844209D10121080500F0EF
:1025400031FE00210120000500F02CFE17E0654857
:10255000844208D10121400200F024FE00216002E3
:1025600000F020FE0BE06048844208D1012188057C
:1025700000F018FE00210120800500F013FE10BDC0
:10258000F0B50A4600210023002400BF3DE00125EC
:102590008D402B4615681D402C469C4234D1157940
:1025A000012D02D01579022D16D185684F00032622
:1025B000BE40B543856055794E00B54086683543C9
:1025C0008560858801268E40B5438580858896790B
:1025D0008E40B6B23543858005684F000326BE4065
:1025E000B543056015794E00B54006683543056072
:1025F000C5684F000326BE40B543C560D5794E007F
:10260000B540C6683543C560491C1029BFD3F0BD2D
:102610003649016000210171012141710021817160
:10262000C171704708B5012212040092009A0A4352
:102630000092009AC261C161009AC261C2690092AF
:10264000C269009208BD02460020138A0B40002B8D
:1026500001D0012000E0002070470146088A704741
:1026600002460020938A0B40002B01D0012000E09D
:10267000002070470146888A704781617047018554
:102680007047002A01D0816100E001857047818296
:102690007047F0B5002300244D07EE0E1546B540F7
:1026A0002B46CD10AE0005462035AD594E07F70E2E
:1026B0000F26BE40B543CE10B60007462037BD51A9
:1026C000CD10AE003D46AD591D432C46CD10AD009A
:1026D0003E467451F0BD0000000400480008004868
:1026E000000C00480010004800140048FFFF0000E4
:1026F00010B50446F948844209D10121480500F08B
:102700006DFD00210120400500F068FD08E0012179
:10271000880500F063FD00210120800500F05EFDCA
:1027200010BD10B50A46002103685B085B0003601A
:102730000168EB4B19409468240253682343194302
:1027400001600F2424061368A34303610368012476
:102750002343036000218160C160146993692343AE
:102760001946816083680124E40323438360D168B0
:1027700003680B4303604168DA4B194053691943FE
:10278000416010BD0021016041608160C160016154
:102790000121C9034161002181617047002904D0F2
:1027A000026801231A43026003E0026852085200E3
:1027B00002607047016849084900016001680168CA
:1027C0000122114301607047002A03D003680B43C4
:1027D000036002E003688B4303607047002905D063
:1027E000026801235B049A43026004E0026801234B
:1027F0005B041A4302607047002905D00268012378
:102800009B041A43026004E0026801239B049A437C
:1028100002607047002905D0C2680123DB031A4318
:10282000C26004E0C2680123DB039A43C2607047C0
:1028300070B50B460021C168AB4C2140FE241C4002
:1028400015020726360235402C432143C16070BD76
:10285000002905D002680123DB041A43026004E06A
:1028600002680123DB049A4302607047002905D007
:10287000026801231B041A43026004E0026801237A
:102880001B049A43026070470A4600214168890A86
:10289000890293059B0D194341607047002905D0BB
:1028A00042680123DB021A43426004E042680123CC
:1028B000DB029A4342607047002905D04268012339
:1028C0005B061A43426004E0426801235B069A43B8
:1028D00042607047002905D0426801231B061A4355
:1028E000426004E0426801231B069A43426070473D
:1028F00010B50A4600214168FF2424040B46A34377
:102900001946130423401943416010BD002905D125
:10291000426801239B029A43426004E0426801231B
:102920009B021A4342607047002905D04268012388
:102930005B031A43426004E0426801235B039A434D
:1029400042607047002905D0426801239B031A4367
:10295000426004E0426801239B039A43426070474F
:10296000002905D0426801231B031A43426004E09A
:10297000426801231B039A4342607047002905D037
:1029800042680123DB039A43426004E0426801236A
:10299000DB031A4342607047014688697F22520474
:1029A0001040000C704710B50146002200208B69D2
:1029B0000124240423401A46002A00D101E001200A
:1029C000800210BDF0B50C4600214168474D2940FA
:1029D000A505AD0D1604FF273F043E4035431D43BA
:1029E000059E354329434160F0BD002905D00268AA
:1029F00001239B051A43026004E0026801239B0542
:102A00009A4302607047002905D042690123DB0325
:102A10001A43426104E042690123DB039A434261A5
:102A20007047002905D042690123DB071A43426140
:102A300003E042695200520842617047002905D004
:102A4000426901231B031A43426104E042690123E6
:102A50001B039A43426170470A4600214169090BF2
:102A6000090313051B0D19434161704710B50A4650
:102A7000002141691E4B194013041D4CE4432340BF
:102A80001943416110BD002905D002680123DB050F
:102A90001A43026004E002680123DB059A430260E6
:102AA0007047002905D0026801239B061A43026083
:102AB00004E0026801239B069A43026070470146C6
:102AC000086AC0B2704708B5024600200090009224
:102AD0000098401800900098006808BD005400401D
:102AE000FFE0CF00FF7FFF0701F8FFFF009800FC29
:102AF000FFFF00F0816270470146486AC0B270472C
:102B0000002A03D003680B43036002E003688B4391
:102B10000360704710B502460023002093691C46ED
:102B20000C402346002B01D0012000E0002010BD06
:102B3000C161704770B502460023002000243F2584
:102B40002D020D40002D04D01568802635402C46FE
:102B50000BE0C0250D40002D04D0156840263540FF
:102B60002C4602E015680D402C4693691D460D4029
:102B70002B46002B03D0002C01D0012000E00020C8
:102B800070BDC16170470000FB4800680121084327
:102B9000F949086008464068F8490840F649486025
:102BA00008460068F6490840F3490860084600688E
:102BB000012189048843F0490860084640683F21A4
:102BC00009048843EC4948600846C06A00090001CE
:102BD000C8620846006BFF2154318843E649086308
:102BE0000846406B400840004863002088607047FA
:102BF0000021E14A917011468870704710B5024675
:102C00000021002300205111002902D1DA4C236851
:102C10000BE0012902D1D84C236A06E0022902D137
:102C2000D54C636A01E0D44C636BD106C90E012414
:102C30008C401C40002C01D0012000E0002010BD81
:102C400038B5002000900024002500BF1120FFF7B8
:102C5000D5FF05460098401C009005210903009807
:102C6000884201D0002DF1D01120FFF7C7FF0028C6
:102C700001D0012400E00024204638BD0146002098
:102C8000BD4A1068F82302469A431046CA00104312
:102C9000B94A10607047002806D0B7490968012278
:102CA0001143B54A116005E0B34909684908490074
:102CB000B14A1160704701460020AF4A506BF823BB
:102CC00002469A431046CA001043AB4A506370470D
:102CD000002806D0A849496B01221143A64A516336
:102CE00005E0A549496B49084900A34A516370476B
:102CF000002806D0A049496B042291439E4A5163A3
:102D000005E09D49496B042211439B4A516370477A
:102D10009949096A49084900974A11621146096AA6
:102D200004229143944A11621146096A01431162D7
:102D300070479149096A182291438F4A11621146DE
:102D4000096A014311627047002806D08A49496A1E
:102D500001221143884A516205E08749496A4908BE
:102D60004900854A51627047834A52687B23DB03DE
:102D70009A43814B5A601A46526803460B431A43E2
:102D80007D4B5A607047002807D07B4909680122B3
:102D900012061143784A116006E07749096801225A
:102DA00012069143744A11607047002807D0724997
:102DB000496B0122120411436F4A516306E06E49C8
:102DC000496B0122120491436B4A516370470146DB
:102DD0000020694AD06A0009000102460A431046F1
:102DE000654AD0627047002807D06349096801220C
:102DF000D2041143604A116006E05F49096801226C
:102E0000D20491435C4A116070475B49C8717047B6
:102E100001460020584A50688008800002460A4354
:102E20001046554A50607047534840680C2108408E
:102E3000704701460020504A5068F02302469A43EA
:102E4000104602460A4310464B4A506070470146FE
:102E50000020494A506807231B0202469A43104645
:102E600002460A431046444A506070474249496846
:102E7000012292039143404A51601146496882B24F
:102E800011433D4A51601146096B921591433A4AEC
:102E900011631146096B020C1143374A11637047E5
:102EA0003549096B40229143334A11631146096B3E
:102EB0000143116370473049096B102291432E4A38
:102EC00011631146096B0143116370470021010F23
:102ED000012906D1284A126B92089200264B1A63E8
:102EE00006E0254A126B03231B049A43224B1A6304
:102EF000214A126B0243204B1A6370471E49096B2B
:102F0000802291431C4A11631146096B01431163EE
:102F10007047FEB50446002500260020029001906F
:102F200000900027144840680C2108400546002DF9
:102F300006D0042D07D0082D08D00C2D37D133E052
:102F40001048206036E00F48206033E00A484068AF
:102F50000F21890408400646074840680321C90339
:102F600008400290B00C861C029800280ED106483A
:102F70003746474316E00000001002400CB8FFF847
:102F8000FFFFF6FE00127A0000093D00AC48C06A5F
:102F90000007000F401C0190AA48019901F012FDA2
:102FA00070430746276005E0A748206002E0A54877
:102FB000206000BF00BFA2484068F02108400546DD
:102FC0002D09A248405D009021680098C1406160D1
:102FD0009B48406807210902084005462D0A9B4886
:102FE000405D009061680098C140A1609448006B0A
:102FF000FF2101310840884202D09548E0600DE091
:103000008F484068012189030840884203D0A068A6
:103010004008E06002E0A0688008E0608848006B3B
:1030200040210840402802D08A48206102E0012067
:10303000C00320618248006B10210840102802D094
:103040008048606101E0206860617D48006B800716
:10305000800F002802D1A068A06119E07848006BB9
:103060008007800F012802D12068A06110E0744819
:10307000006B8007800F022802D18003A06107E067
:103080006F48006B8007800F032801D16D48A06155
:103090006B48006B032109040840002802D1A06896
:1030A000E06120E06648006B03210904084001212B
:1030B0000904884202D12068E06114E06048006B96
:1030C00003210904084001214904884202D18010EB
:1030D000E06108E05A48006B032109040840884277
:1030E00001D15848E0615648006B80210840802893
:1030F00002D05548206200E02762FEBD5049096AAF
:1031000001434F4A11627047002807D04C49096AB1
:103110000122D20311434A4A116206E04849096A72
:103120000122D2039143464A11627047002807D01A
:103130004349096A012212041143414A116206E01F
:103140003F49096A0122120491433D4A11627047C6
:10315000002905D03A4A52690243394B5A6104E0CA
:10316000374A52698243364B5A617047002905D06D
:10317000334A92690243324B9A6104E0304A9269C1
:1031800082432F4B9A617047002905D02C4AD2699F
:1031900002432B4BDA6104E0294AD2698243284B6F
:1031A000DA617047002905D0254A926A0243244B10
:1031B0009A6204E0224A926A8243214B9A627047E3
:1031C000002905D01E4AD26802431D4BDA6004E094
:1031D0001B4AD26882431A4BDA607047002905D037
:1031E000174A12690243164B1A6104E0144A126925
:1031F0008243134B1A617047002905D0104A527A56
:1032000002430F4B5A7204E00D4A527A82430C4B30
:103210005A7270470A48406A012109060843084962
:103220004862704701460020054A92680A40002A19
:1032300001D0012000E000207047014988727047EA
:103240000010024000127A00006CDC0250010020E5
:10325000809FD5001280000010B50446E3488442E8
:1032600008D101218014FFF7ABFF0021A014FFF764
:10327000A7FF0AE0DE48844207D101210014FFF7CE
:10328000ADFF00212014FFF7A9FF10BD0021018030
:1032900041800721090281800021C1800181418193
:1032A0008181C18107210182704710B50022028807
:1032B000C1239B011A400B88CC892343CC8823432C
:1032C0000C8923434C8923438C8923431A4302806E
:1032D0008288C84B1A408B881A4382800B8A0382EB
:1032E0000288C54B1A404B881A430280838BC34C1B
:1032F0002340838310BD0021018041808180C180F3
:1033000002218160002181817047F0B58FB00546B0
:103310000C4600200E9002270D9001200C900026F4
:1033200000200290A88BB349BF390840A88302202F
:103330002884A88B0E90A068022802D100200D904E
:1033400038E0A088002802D101200C9001E0022082
:103350000C9003A8FFF7DDFD03980290E08801219F
:10336000490288420AD1A168029A120A0A235A43E2
:10337000104601F027FB401D86B20CE00C9841017D
:10338000029801F01FFB0A2148430190A16801F057
:1033900019FB401D86B20A21304601F013FB064698
:1033A000F007C00F0D900D98301AC003070C0D9850
:1033B00000020D90022F01DBFF2F02DD022700200B
:1033C0000D90E0880D99084338432884A088A1898E
:1033D000084361880843218808430121C902084342
:1033E0000E9908430E900E98A8830FB0F0BD0029E7
:1033F00004D0028840231A43028004E002887E4BF6
:103400003C3B1A4002807047002904D08288102378
:103410001A43828004E08288774B0C3B1A408280FA
:103420007047002905D0828B01239B021A438283B7
:1034300003E0828B724B1A40828370470A46002158
:1034400081886C4B19400B461343194681807047A5
:1034500082886C4B1A40828082880A43828070473F
:1034600001229203914204D102880B461A43028042
:1034700003E00288644B1A40028070475E4AFC3ABF
:10348000914205D00288FF2301331A43028004E0F1
:103490000288594BFC3B1A4002807047002904D037
:1034A000828804231A43828003E08288524B1A40A8
:1034B00082807047002904D0828808231A438280C2
:1034C00004E082884C4B1B1F1A4082807047002208
:1034D00002460C321170704781817047014600220C
:1034E0000A460C3210787047014688897047028876
:1034F000424B1A40028002880A430280704700292A
:1035000005D0028801235B031A43028003E002888E
:103510003E4B1A400280704701880122120311437A
:103520000180704702460020012901D0108B00E085
:10353000908A70470146088A7047002A03D0838822
:103540000B43838002E083888B43838070478288AB
:103550002F4B1A40828082880A438280704730B5A0
:10356000002400230C110125A540ABB2002A03D092
:1035700085881D43858002E085889D43858030BD18
:10358000014608890322D20210407047014608898B
:1035900003225202104070470246002013890B405C
:1035A000002B01D0012000E000207047CA430281B7
:1035B0007047F0B5024600200024002300250F07C5
:1035C0003F0F0126BE40B4B20B1101269E40B3B29C
:1035D00096881E40354616892640002E03D0002DC1
:1035E00001D0012000E00020F0BD000000300140CB
:1035F00000380040FFF00000FBFF0000FFF7000074
:10360000FFFB0000FFEF0000FFBF0000FFDF000036
:10361000FF9F000010B50446F748844208D10121FD
:10362000C014FFF7CDFD0021E014FFF7C9FD62E0F3
:1036300001208007844208D101210846FFF7CEFD12
:1036400000210120FFF7CAFD55E0EC48844208D173
:1036500001210220FFF7C2FD00210220FFF7BEFD7D
:1036600049E0E748844208D101211020FFF7B6FD68
:1036700000211020FFF7B2FD3DE0E248844208D16E
:1036800001212020FFF7AAFD00212020FFF7A6FD41
:1036900031E0DD48844208D101218015FFF79EFD0D
:1036A0000021A015FFF79AFD25E0D848844209D1F2
:1036B00001210804FFF784FD002101200004FFF729
:1036C0007FFD18E0D248844209D101214804FFF768
:1036D00077FD002101204004FFF772FD0BE0CD488B
:1036E000844208D101218804FFF76AFD00210120EE
:1036F0008004FFF765FD10BD00220288BE4B984292
:1037000006D001239B07984202D0BC4B984203D1BC
:10371000C14B1A404B881A43B94B984203D0BF4B58
:103720001A400B891A4302804B68C3620B880385D9
:10373000B14B984208D0B54B984205D0B44B984253
:1037400002D0B44B984201D18B7A03860123838245
:1037500070470021C94341600021018001814180FF
:10376000817270470185828270470A460021018874
:10377000A94B19400B46134319460180704741621B
:103780007047C16270470146486A70470146088D1C
:103790007047002904D0028802231A43028004E003
:1037A00002889D4B6E331A4002807047002904D076
:1037B000028804231A43028004E00288964B6C338B
:1037C0001A4002807047002904D0028880231A43DF
:1037D000028004E00288904B103B1A400280704740
:1037E00002888D4B68331A40028002880A430280A7
:1037F00070470288894B1A40028002880A4302807F
:103800007047002904D0028801231A43028004E093
:103810000288814B6F331A40028070470A884B88B8
:103820001A438B881A43CB881A430B891A434B8956
:103830001A438B891A4344231A527047002101808E
:1038400041808180C180018141818181704700294F
:1038500007D04422125A0123DB031A4344231A528D
:1038600005E04422125A53045B0C44221352704761
:1038700070B5002400220023058C674E6F3635405A
:103880000584028C8388048B634D2C40B51E2C402C
:103890000D882C43751E2A408D892A434D882A4362
:1038A000554DA84208D0594DA84205D0584DA842C0
:1038B00002D0584DA84212D1574D68352A40CD89C3
:1038C0002A43554D6C352A408D882A43524D903DF0
:1038D0002B40534D2B400D8A2B434D8A2B43838025
:1038E00004838D684563028470BD70B50024002296
:1038F0000023058C484E603635400584028C838851
:10390000048B484D2C40454D2C400D782D062D0C38
:103910002C43414D50352A408D892D052D0C2A43CD
:103920004D882D052D0C2A43334DA84202D0374D2A
:10393000A8421CD13C4D2B400D8AAD042D0C2B43CD
:103940002D4DA84213D1344D103D2A40CD892D056F
:103950002D0C2A43304D30352A408D882D052D0CF5
:103960002A43324D2B404D8AAD042D0C2B438380CE
:1039700004838D688563028470BD70B500240022C5
:103980000023058C244E903E35400584028C8388AC
:10399000848B214D2C40204D6D352C400D882C43BF
:1039A0001F4D2A400D7B2D062D0C2A438D782D06A8
:1039B0002D0C2A43104DA84217D11C4D2A408D7B57
:1039C0002D062D0C2A43184D2A400D792D062D0C5D
:1039D0002A43174D2B40174D2B400D8A2D052D0CDA
:1039E0002B434D8A2D052D0C2B43838084838D68BA
:1039F000C563028470BD0000002C0140000400403B
:103A00000010004000140040002000400040014031
:103A100000440140004801408FFF0000FFFC00000F
:103A2000FFFD0000FF8F0000FFFB0000FFF700001C
:103A3000FFEF0000FFDF000070B50022002300242C
:103A4000058CF94E35400584038C8488828BF74DB4
:103A50002A40F74D2A400D782D062D0C2A43F54DAE
:103A60002B400D7B2D072D0C2B438D782D072D0C16
:103A70002B43F14DA84205D1F04D2C400D8AAD05E8
:103A80002D0C2C43848082838D680564038470BD73
:103A9000002101804180818081608181C18101821A
:103AA0004182704770B50346002000241846183044
:103AB00001258D40ACB21D8CA5431D84002901D089
:103AC000082909D14D10281805687026B5430560EE
:103AD0000568154305600DE00D1F2D046D0C2818B9
:103AE000056807263603B543056005681606360CDB
:103AF0003543056070BD4163704781637047C163A2
:103B00007047016470470A460021018BCC4B194075
:103B10000B4613431946018370470A460021018B67
:103B2000C24B194013061B0C1943018370470A4608
:103B30000021818BC24B19400B46134319468183E8
:103B400070470A460021818BB84B194013061B0CA5
:103B5000194381837047002904D0828801231A43C6
:103B6000828004E08288B64B6F331A4082807047AF
:103B70000A460021018BB24B683319400B461343B0
:103B80001946018370470A460021018BAD4B19404D
:103B900013061B0C1943018370470A460021818BD1
:103BA000A74B683319400B4613431946818370476E
:103BB0000A460021818BA34B194013061B0C1943A5
:103BC000818370470A460021018B9D4B6C3319405D
:103BD0000B4613431946018370470A460021018BA7
:103BE000994B194013061B0C1943018370470A4671
:103BF0000021818B924B6C3319400B4613431946BD
:103C0000818370470A460021818B8F4B1940130630
:103C10001B0C1943818370470A460021018B884B96
:103C2000103B19400B4613431946018370470A465F
:103C30000021018B4904490C13061B0C1943018315
:103C400070470A460021818B7D4B103B19400B4683
:103C500013431946818370470A460021818B49042A
:103C6000490C13061B0C1943818370470A46002137
:103C7000018C734B6E3319400B4613431946018474
:103C800070470A460021018C6D4B683319400B4682
:103C900013431946018470470A460021018C684B82
:103CA0005033194013051B0C1943018470470A4611
:103CB0000021018C624B103B194013051B0C19436A
:103CC000018470470A460021018C604B194013069D
:103CD0001B0C1943018470470A460021018C594B83
:103CE000194013061B0C1943018470470A46002132
:103CF000018C504B194013071B0C1943018470476A
:103D000002894F4B68331A40028102890A430281BB
:103D1000704730B5002301248C40A3B2048C9C432F
:103D20000484048C15468D40ADB22C43048430BD10
:103D300030B5002304248C40A3B2048C9C4304843B
:103D4000048C15468D40ADB22C43048430BD00294F
:103D500004D0828804231A43828004E08288384B8E
:103D60006C331A4082807047828B394B1A408283B1
:103D7000828B0B061B0C1A4382837047F8B50C46E6
:103D80000021002500260096068C274F3E40068421
:103D9000818B058C2607360C00962E4E3140160678
:103DA000360C31431E07360C31432B4E354001276C
:103DB0003F03009E3E43354381830584F8BD828BDB
:103DC0001F4B64331A408283828B0A43828370477D
:103DD000F8B50C460021002500260096068C184FE9
:103DE000903F3E400684818B058C2606360C00965B
:103DF000134E833E31401E05360C16433143174E99
:103E00003540FF270137009E3E43354381830584BB
:103E1000F8BD028B0E4B1A400283028B0B061B0C63
:103E20001A43028370470000FFEF0000FF8F00007D
:103E3000FFFC0000FFDF0000002C0140FFBF00007E
:103E40008FFF0000FFF70000FFFB0000FFFD0000F8
:103E5000FFF30000FF0C0000FF5F0000FFF5000013
:103E6000F8B50C460021002500260096068CE64F8A
:103E70003E400684018B058C2605360C0096E34EE9
:103E800031401E07360C31431606360C3143DE4EE8
:103E9000903E35401027009E3E4335430183058404
:103EA000F8BD028BD84B1B1D1A400283028B0A43BC
:103EB00002837047F0B50C4600210025068CD24FD6
:103EC0000F373E400684018B058CCF4EE33E3140D8
:103ED0001E05360C16433143CB4EB61D3540012628
:103EE0002643354301830584F0BD70B505460C4675
:103EF000208800280AD12389A28861882846FFF7F4
:103F0000D9FFE1882846FFF7CCFF25E02088042868
:103F10000AD12389A28861882846FFF7A1FFE1889A
:103F20002846FFF776FF17E0208808280AD1238962
:103F3000A28861882846FFF74BFFE1882846FFF7F3
:103F40003EFF09E02389A28861882846FFF716FF13
:103F5000E1882846FFF708FF70BD002101804180FD
:103F6000012181800021C18001817047F8B505469B
:103F70000C46002601276088002801D1022600E0B7
:103F80000026A088012801D1022700E0012720880F
:103F9000002814D12389A28861882846FFF78AFF68
:103FA000E1882846FFF77DFF23893A4631462846B7
:103FB000FFF756FFE1882846FFF72BFF13E0238920
:103FC000A28861882846FFF74BFFE1882846FFF763
:103FD00020FF23893A4631462846FFF76BFFE188E8
:103FE0002846FFF75EFFF8BD0146486B7047014663
:103FF000886B70470146C86B70470146086C704774
:10400000002A03D083890B43838102E083898B4399
:10401000838170478182704702460020138A0B40DB
:10402000002B01D0012000E000207047CA4302822B
:10403000704730B50246002000230024158A0D4049
:104040002B4695890D402C46002B03D0002C01D027
:10405000012000E0002030BDCA430282704710B545
:104060000B4613434824235210BD002A03D08389F2
:104070000B43838102E083898B438381704700294E
:1040800004D0828808231A43828004E082885E4B31
:1040900008331A408280704701895B4A0932114017
:1040A000018170470A4600210189574B603B194046
:1040B0000B46134319460181704730B504460D463F
:1040C00029462046FFF7EEFF20890721084320817B
:1040D00030BDF8B504460D4616461F46602D06D184
:1040E0003B46012231462046FFF7BAFE05E03B463B
:1040F000012231462046FFF7DDFE29462046FFF724
:10410000D1FF2089072108432081F8BD30B50C4636
:1041100000210189C9B21D062D0C154325432943F1
:10412000018130BDFFB505460E46174600243A46CC
:1041300031462846039BFFF7E9FF2C8932480930B6
:104140000440072004433048603804407020044392
:104150002C81FFBDF0B504460D4616461F463B4672
:10416000324629462046FFF7D1FF208901218903E5
:1041700008432081F0BD8288234B603B1A40828037
:1041800082880A438280704702891F4B09331A4094
:10419000028102890A430281704702891A4B703BEF
:1041A0001A40028102890A4302817047F0B50C4629
:1041B0000021002500260189058B068C124F093746
:1041C00039400F4627433946114F3D40FF270237FC
:1041D0003D430D4F9A3F3E401F053F0C17433E4362
:1041E000018105830684F0BD002904D082888023E4
:1041F0001A43828004E08288034B703B1A4082801D
:104200007047502211527047EFFF0000FF0C000072
:10421000FCFC000010B50446F848844209D1012195
:104220008803FEF7CDFF002101208003FEF7C8FFC1
:1042300025E0F348844209D101214804FEF7CEFF6E
:10424000002101204004FEF7C9FF18E0ED48844238
:1042500009D101218804FEF7C1FF0021012080045B
:10426000FEF7BCFF0BE0E848844208D10121C804F6
:10427000FEF7B4FF00210120C004FEF7AFFF10BD20
:10428000F0B58BB004460D46002700200A900026AA
:10429000206840084000206066680321090330461A
:1042A00088430646A868064366602668D7480640E5
:1042B000E968686808432969084306432660A668D8
:1042C0000321090230468843064668690643A66012
:1042D00001A8FEF71EFEC948844202D107980A9041
:1042E00007E0C748844202D108980A9001E0039889
:1042F0000A9020680121C903084000280CD02968D1
:104300000A9A500000F05EFB074629680A9A50009E
:1043100000F058FB0E4609E029680A9800F052FBAD
:10432000074629680A9800F04DFB0E4628684008A9
:10433000B04200D87F1C20680121C9030840002832
:1043400006D03807460F3846B14908403043074683
:10435000A7810BB0F0BD4B21C90101600021416074
:104360008160C1600C21016100214161704710B57D
:10437000002242680F2424021346A3431A464C68C5
:104380000B6823438C682343CC6823431A43426061
:1043900010BD0021016041608160C160704700294B
:1043A00004D0026801231A43026003E00268520845
:1043B000520002607047002A03D003680B43036079
:1043C00002E003688B4303607047002905D0026850
:1043D0000123DB031A43026004E002680123DB03CC
:1043E0009A4302607047002905D082680123DB02EE
:1043F0001A43826004E082680123DB029A438260F0
:104400007047002905D042680123DB041A4342604B
:1044100004E042680123DB049A43426070470029AC
:1044200005D0426801239B041A43426004E04268BD
:1044300001239B049A4342607047002A03D04368DB
:104440000B43436002E043688B434360704700299D
:1044500005D042680123DB031A43426004E042684E
:104460000123DB039A4342607047002905D042686C
:104470000123DB051A43426004E042680123DB05A7
:104480009A43426070474269120E120642614269C5
:104490000A4342617047028AFF231B021A400282CC
:1044A000028A0A4302827047002904D0026802236C
:1044B0001A43026003E0026802239A4302607047D5
:1044C000826803231B059A43826082680A438260E4
:1044D0007047002905D0426801231B051A4342603A
:1044E00004E0426801231B059A434260704742681A
:1044F00003235B059A43426042680A434260704767
:10450000CA05D20D028570470146888CC005C00DD2
:10451000704742681202120A426042680B061A4350
:1045200042607047002905D0026801235B031A43EB
:10453000026004E0026801235B039A430260704753
:1045400002680123DB029A43026002680A430260A8
:104550007047426810239A43426042680A434260AF
:104560007047426820239A43426042680A4342608F
:104570007047002905D0426801239B031A4342601B
:1045800004E0426801239B039A434260704700297C
:1045900004D0826808231A43826003E082680823FB
:1045A0009A4382607047028AD2B20282028A0B0268
:1045B0001A4302827047002904D0826820231A43DC
:1045C000826003E0826820239A438260704700295A
:1045D00004D0826810231A43826003E082681023AB
:1045E0009A4382607047826807235B049A43826023
:1045F00082684B041A438260704700000038014013
:104600000044004000480040004C0040F3E9FFFF38
:10461000F0FF000042691202120A426142690B0671
:104620001A4342617047826804239A438260826819
:104630000A4382607047002904D0826802231A432B
:10464000826003E0826802239A43826070470029F7
:1046500005D0826801239B031A43826004E08268CC
:1046600001239B039A438260704782680123DB0326
:104670009A43826082680A438260704702681F23FF
:104680005B059A43026002684B051A43026070475B
:1046900002681F231B049A43026002680B041A433A
:1046A00002607047002A03D083680B43836002E0F6
:1046B00083688B4383607047826801235B039A435E
:1046C000826082680A4382607047F8B5034600241E
:1046D000002600960025002018460E04340ECEB2A7
:1046E00000960127009EB7403D46022C01D1001DD7
:1046F00002E0032C00D10830002A03D006682E43C4
:10470000066002E00668AE430660F8BD002A03D0EA
:10471000038B0B43038302E0038B8B4303837047BC
:10472000826801231B039A43826082680A43826085
:10473000704702460020D3690B40002B01D00120B6
:1047400000E0002070470162704770B502460B46DA
:1047500000240021002500201E04350ED9B20126B8
:104760008E403146012D02D11668314006E0022DFF
:1047700002D15668314001E0966831401C0C012698
:10478000A6403446D6693440002903D0002C01D01D
:10479000012000E0002070BD10B5002300220B0CAA
:1047A00001249C402246026210BD00000021827854
:1047B000002A27D0274A03231B02D21803789B1014
:1047C0009B00D15802789207D30EFF229A400B46E5
:1047D0009343194642789207120E03789B07DB0E2B
:1047E0009A4011431B4A03231B02D21803789B10E3
:1047F0009B00D1500278D306DB0E01229A40154B64
:104800001A6007E00278D306DB0E01229A40114BB2
:1048100080331A607047002905D00F4A126902439D
:104820000D4B1A6104E00C4A126982430A4B1A616B
:104830007047042806D10949096904221143074A2F
:10484000116105E00549096904229143034A116198
:104850007047000000E100E000ED00E000E000E053
:104860003A4800688007800F384908600020886057
:1048700000213648C160016141618069FF21013139
:104880000843324988617047014600202F4A10686A
:104890008008800002460A4310462C4A1060704788
:1048A000002905D0294A12680243284B1A6004E007
:1048B000264A12688243254B1A607047002905D0AA
:1048C000224A12680243214B1A6004E01F4A126810
:1048D00082431E4B1A60704730B500228B071C0FB5
:1048E0000F23A3401A46194B08338C10A4001B5900
:1048F0009343164C08348D10AD00635123468C1041
:10490000A4001B598C07250F0446AC4023430F4CD1
:1049100008348D10AD00635130BD0C4989690143E5
:104920000A4A9161704701460020084A9269FF23B4
:1049300001331A40002A01D0012000E00020704716
:10494000024989690143014A9161704700000140B1
:104950000F4880F308880F480168090E0E4A9142FB
:1049600005D10E480E4901600E480F4901600F48FD
:1049700080470F480047FEE7FEE7FEE7FEE7FEE759
:10498000FEE700000B480C490C4A0D4B7047000035
:10499000F0090020040000001F0000001810024071
:1049A000010000000000014000000000DF150008C9
:1049B000C1000008F0030020F0090020F0050020ED
:1049C000F0050020002203098B422CD3030A8B42FE
:1049D00011D300239C464EE003460B433CD40022F7
:1049E00043088B4231D303098B421CD3030A8B4209
:1049F00001D394463FE0C3098B4201D3CB01C01AD7
:104A0000524183098B4201D38B01C01A52414309A1
:104A10008B4201D34B01C01A524103098B4201D38F
:104A20000B01C01A5241C3088B4201D3CB00C01AFC
:104A3000524183088B4201D38B00C01A5241430874
:104A40008B4201D34B00C01A5241411A00D2014699
:104A50005241104670475DE0CA0F00D04942031032
:104A600000D34042534000229C4603098B422DD381
:104A7000030A8B4212D3FC22890112BA030A8B4229
:104A80000CD3890192118B4208D3890192118B4278
:104A900004D389013AD0921100E08909C3098B42FD
:104AA00001D3CB01C01A524183098B4201D38B0140
:104AB000C01A524143098B4201D34B01C01A5241E3
:104AC00003098B4201D30B01C01A5241C3088B4228
:104AD00001D3CB00C01A524183088B4201D38B0013
:104AE000C01A5241D9D243088B4201D34B00C01A9D
:104AF0005241411A00D20146634652415B101046B2
:104B000001D34042002B00D54942704763465B10F9
:104B100000D3404201B50020C046C04602BD7047E8
:104B200070477047754600F023F8AE4605006946A9
:104B30005346C008C000854618B020B5FFF722FFD5
:104B400060BC00274908B6460026C0C5C0C5C0C520
:104B5000C0C5C0C5C0C5C0C5C0C5403D49008D4623
:104B600070470446C046C0462046FBF7E6FA000000
:104B7000004870479003002001491820ABBEFEE7B3
:104B800026000200704770B58C180578401C6B0732
:104B90005B0F01D10378401C2A1106D10278401C1A
:104BA00003E00678401C0E70491C5B1EF9D12B07F0
:104BB00005D40023521E0DD40B70491CFAE703786C
:104BC000401CCB1A921C03E01D780D70491C5B1C25
:104BD000521EF9D5A142D8D3002070BD30B474461E
:104BE000641E2578641CAB4204D3635D5B00E3184C
:104BF00030BC18471D46F8E765656565650000002F
:104C0000204C00080000002060010000864B0008D6
:104C1000C84C000860010020900800000401000852
:104C20002163D00738120A0D5468726F74746C6572
:104C30002020526F6C6C20013E50697463680A4CEE
:104C4000596177137E20417578310A4A320A28115A
:104C50004C69506F20566F6C742E4779726F2058D4
:104C600014390A7A590A3A5A324B43431D390A39E0
:104C70001D390A391D280820486F646F72210A21E6
:104C80002BF4010205180CFEF40124F40164100950
:104C90002D2D46414155787816CC0158585867500B
:104CA0004650468813022414846CDC023809010241
:104CB000030406070809099B05DC023A010141A922
:084CC000160118293F694C00A0
:040000050800495155
:00000001FF
