:020000040800F2
:10000000E8090020AD3600088D0F00088F0F0008AA
:1000100000000000000000000000000000000000E0
:10002000000000000000000000000000910F000828
:100030000000000000000000930F0008DB360008FD
:10004000DD360008DD360008DD360008DD36000844
:10005000DD360008DD360008DD3600080511000831
:10006000DD360008DD360008DD360008DD36000824
:10007000A50B0008DD360008DD360008DD36000877
:1000800049010008DD36000800000000DD360008E8
:10009000DD360008DD360008DD360008DD360008F4
:1000A000DD360008DD360008DD360008910C00085A
:1000B000DD36000800000000DD360008000000000A
:1000C00000F002F800F030F80CA030C8083824180E
:1000D0002D18A246671EAB4654465D46AC4201D180
:1000E00000F022F87E460F3E0FCCB6460126334282
:1000F00000D0FB1AA246AB46334318475C380000D9
:100100007C3800000023002400250026103A01D38B
:1001100078C1FBD8520700D330C100D50B607047BF
:100120001FB51FBD10B510BD03F0AAFB1146FFF7A8
:10013000F7FF00F033F803F0C2FB03B4FFF7F2FF60
:1001400003BC03F0C7FB0000FB48018AC90706D0C7
:100150000121C9430182F9494889401C48817047FF
:10016000F648F5494089496A00044018704710B5BF
:10017000F248F1494089496A000440187D21C900CC
:1001800003F0CEFA10BD00B50346FFF7E9FF0246C3
:10019000FFF7E6FF801A9842FAD300BD88B000F05E
:1001A000F9FE03200121400402F049F90121E4484D
:1001B00002F069F90121E34802F04AF900F03EFE3D
:1001C00000F0B4FCE120400200F006FD00F050FC1D
:1001D0000420009001216846017103214171002132
:1001E0008171C171D84E6946304601F00AFD09257A
:1001F0007401ED0669462846009401F002FD0022D4
:100200000421304601F061FD00222146284601F01C
:100210005CFD01F0C3F90024FFF7A2FFC74D059074
:10022000688A002804D0A879002801D100F042FB98
:10023000C2488179408A014321D0C0496420C870F6
:10024000C24801F006FCFFF792FFBC4C616A401AFD
:10025000642874D9E078401CE070FFF788FF606282
:100260000F20207001202056002801DD401E607004
:10027000A07900287ED0C0077DD00122C6E100F021
:1002800019FB01F095FAAD48AC4E818A03910079D3
:10029000DE3602906700B8190225455F002D01DDAA
:1002A000284600E06842A5491F31095D48437D2189
:1002B0004000C90003F034FA6421081A9F493A311A
:1002C000C8530298002807D103986421684303F0BB
:1002D00031FA9A494031C853641CE4B2032CD9D393
:1002E00096480024DE30015F0691944893496500EA
:1002F00028303A31405F495F4843642103F01AFADD
:100300008E494031495F0E1A8C4864211630005DD9
:10031000704303F00FFA02908D48A700C1598A1963
:1003200086493431495F4B429A4201DA194602E06C
:100330008A4200DC1146002E02DD334601E098E1DE
:100340007342AF229200934200DD0021069A502AA8
:1003500000DA0021C15179481930005D48437D49D8
:1003600003F0E8F903907A480C38C05B301A02B207
:10037000724801E053E148E170494C300492405F1B
:100380001C31095D80184843FF212D3103F0D2F95B
:100390006A49049A4C314A536D490C39CE51029A3C
:1003A0000399022C13D05118081864494631485358
:1003B000641CE4B2032C98D3604C0820DE34205E29
:1003C000962822DD5D48817800290DD030E0511853
:1003D00008186149884202DB4942884200DD08462C
:1003E000564946318880E3E74179FA2920D1C1781E
:1003F0000A291DD2069996291ADC012181700A4624
:100400000421514801F061FC12E04C4DA87801280C
:1004100006D10020A870024604214B4801F055FC8B
:100420006879FA2804D2E9780A2901D2401C687157
:100430004248002281781346002905D0A15E502948
:1004400002DB7D22D2003223C0780A2804D90020A2
:1004500020804148208109E00020205E002801DA48
:10046000002105E07D21C900884201DC0021615E98
:10047000324800264630865F0225455F89194F1BAA
:100480000421415E781A984201DA18461DE00020E6
:10049000205E002801DA002704E07D27FF00B84233
:1004A00000DC0746BF197F1B7F1A974201DD10460B
:1004B0000BE0002801DA002704E07D27FF00B842A6
:1004C00000DC0746B819401B401A244F786300200F
:1004D000205E002801DA002404E07D24E400A0422C
:1004E00000DC0446A41B641B64189C4201DA1C4611
:1004F0001BE0002801DA002404E07D24E400A0428F
:1005000000DC0446A41B641B6418944201DD1446FD
:100510000BE0002801DA002404E07D24E400A0427E
:1005200000DC0446A41B641B64180C4F40373C607D
:10053000002815DA002418E0000400400000002024
:1005400003002000015A020000040048002401407A
:1005500064010020B80B00000CFEFFFF002C0140DE
:100560007D24E400A04200DC0446A41B6419641A44
:100570009C4201DA1C461BE0002801DA002404E05A
:100580007D24E400A04200DC0446A41B6419641A24
:10059000944201DD14460BE0002801DA002404E057
:1005A0007D24E400A04200DC0446A41B6419641A04
:1005B0008B4F7C637519002801DA002404E07D2448
:1005C000E400A04200DC04460C192C199C4201DA1C
:1005D0001A4617E0002801DA002304E07D23DB003F
:1005E000984200DC0346CB18EB1893420ADC002843
:1005F00001DA002004E07D22D200904200DD1046A6
:1006000008182A18774802601AE6002201210920FA
:10061000C903C00601F059FBA079401EA071A08952
:100620000146FF395F3907D01022A25EFF212D312C
:100630008A421ADA401C1BE0E079401CE071C007D6
:1006400006D000220421684801F03FFB012205E0AA
:1006500001220421644801F038FB00220121092015
:10066000C903C00601F031FB03E00A2801D90A38AA
:10067000A081142500F046FB002873D000F048FB51
:100680006570F7E72078012805D801216156002917
:1006900068DD002866D0401EC0B22070030003F061
:1006A0004BF90F9880766C6259514941372D231BC5
:1006B00010098F000A214D4800F036FB4B498C3160
:1006C00058E04A480A210A3000F02EFB47498C3195
:1006D0005AE000F039FB6EE044480A21143000F083
:1006E00023FB42498C3159E040480A211E3000F07A
:1006F0001BFB3E498C310620085EEAE73B480A2195
:10070000283000F011FB39498C310820085EE0E701
:1007100036480A21323000F007FB34498C310A2078
:10072000085ED6E731480A213C3000F0FDFA10207F
:10073000205ECEE72D480A21463000F0F5FA2B491D
:100740002A3917E029480A21503000F0EDFA2749EC
:100750002A3919E025480A215A3000F0E5FA2349E0
:100760002A391BE02CE021480A21643000F0DCFA31
:100770001E4924390020085EABE71C480A216E3070
:1007800000F0D2FA194924390220085EA1E717487F
:100790000A21783000F0C8FA144924390420085E90
:1007A00097E712480221443800F0BEFA0F480221B0
:1007B000443800F0B9FA0D480221443800F0B4FA88
:1007C000FFF7CEFC0599411A2089814200D322E52A
:1007D00058E706480A21823000F0A6FAE1E7000057
:1007E0000044014040000040000400485200002046
:1007F000F3B50124C24F81B0E4032146384601F02D
:100800000BFC0128F9D001204003C3020090012213
:10081000D021384601F090FB0026BA4CBA4D03E0D7
:10082000761CB6B2AE4236D80221384601F0F4FB4F
:100830000028F5D03E463846019901F0E0FB00273C
:1008400003E07F1CBFB2AF4225D88021304601F0C3
:10085000E3FB0028F5D00020012300905B06012275
:10086000D021304601F068FB002703E07F1CBFB2B7
:10087000AF4210D80221304601F0CEFB0028F5D05F
:1008800037463046029901F0BAFB002607E0761C95
:10089000B6B2AE4203D92088401C2080FEBD202184
:1008A000384601F0B9FB0028F1D02021384601F08C
:1008B000BAFBFEBDF0B5924D85B00121C9032846B3
:1008C00001F0AAFB0128F8D001204003009000238A
:1008D0000122D021284601F02FFB00248A4E07E098
:1008E000641CA4B2B44203D986480188491CADE017
:1008F0000221284601F090FB0028F1D03B21284638
:1009000001F07DFB002403E0641CA4B2B442EBD8E8
:100910004021284601F080FB0028F5D00920800204
:10092000012300905B060E22D021284601F004FB33
:10093000764C00202070002703E07F1CBFB2B74236
:10094000D2D80421284601F067FB0028F5D02846BC
:1009500001F057FB0146207801AA1154401CC0B297
:1009600020700E28E7D32021284601F055FB0028EF
:10097000F9D02021284601F056FB6946C888674D0A
:1009800040BA00B24042C117490F0818C110604870
:1009900001806946898849BA09B24942CA17520F8B
:1009A0005118C91041806946098949BA09B24942BA
:1009B000CA17520F5118C91081806946888940BAF8
:1009C0004142544801806946C98949BA4942418037
:1009D0006946098A49BA494281804F490F88002FE8
:1009E00037D000212170C9B28A004E00AB58865F13
:1009F000491C9B19C9B2AB5021700329F3D3F807E6
:100A000001D0002200E0012201210920C903C00613
:100A100001F05BF940480088012814D100202070C3
:100A2000C6B2B700FF21E859F53102F083FEE85164
:100A3000761CF0B220700328F2D301220920D103E2
:100A4000C00601F042F934480188491E018005B012
:100A5000F0BD00212170C9B24A008E00835AAE5BFE
:100A6000491C9B1BC9B2835221700329F3D3EEE7C3
:100A700010B58AB0C020009002206946087101209C
:100A80008871274CC871204601F0BBF8012206216D
:100A9000204601F022F901220721204601F01DF92C
:100AA0002048029000200390AB21154C0490059043
:100AB00007900691089002A9204601F03CF9012117
:100AC000204601F071F9184C2046FFF75CFB8021AD
:100AD0006B20FFF78DFE2046FFF755FB03216B20AF
:100AE000FFF786FE00211A20FFF782FE18211B2047
:100AF000FFF77EFE10211C20FFF77AFE0AB010BD22
:100B000000540040EA00002050C30000EC00002028
:100B10002E0000202800002012000020700100207C
:100B2000000400480A0210008813000030B589B0A4
:100B30000425032069460095087100240920CC7122
:100B4000C00601F05EF8694603940C74059406949F
:100B5000079408941C4C03A9204600F0B9FE072214
:100B60000421204600F036FF01220421204600F037
:100B70008AFF0C20694608724D720120887202A813
:100B800002F00AFD204600F048FF0121204600F057
:100B9000BAFE0E4D2046294600F07DFF0028F9D010
:100BA00009B030BD10B50848016849070AD50421CD
:100BB00001600548403000680549C00102F0B0FD01
:100BC0000449088010BD000000240140010000011C
:100BD000BA0300001000002070B509210546CE06BA
:100BE0008AB00122304601F078F801220A2130460D
:100BF00001F073F80320400200900220694608715A
:100C00000320487100248C71CC71304600F0F9FF4C
:100C1000039504940594069408940C207B4C07904B
:100C200003A9204602F0AFFA1B206946087205208E
:100C300048720120887202A802F0AEFC01227449B9
:100C4000204602F04CFC01227249204602F047FC8B
:100C50000121204602F0FBFA0AB070BD70B56E4C5F
:100C60002079002813D1E078A17888420FD00120A4
:100C7000664D207102466749284602F030FC6748FD
:100C8000A278815C521CA270284602F06BFB70BDFA
:100C900070B55F4E5D4D3146284602F05BFC5E4C00
:100CA00000280BD03146284602F070FC284602F09E
:100CB0005DFB5B4A61785054491C6170554E284673
:100CC000314602F047FC002811D03146284602F098
:100CD0005DFCA278E07882420AD02079002807D013
:100CE0004E48815C521CA270284602F03BFB70BD4E
:100CF0000020207102463146284602F0F0FBFFF743
:100D0000ADFF70BD444841780078081AC0B2704702
:100D100041490A784878824204D04148805C521C9C
:100D20000A70704700207047F0B400223B4D3A4CE7
:100D300006E0865CE378521CEE545B1CD2B2E37092
:100D40008A42F6DBF0BC89E770B5202288B081B218
:100D5000002802DA404281B22D2232A019C802AD29
:100D600019C50020009001907D20314DC0006C42DB
:100D700005E06E4633785B1C4919337089B2A14295
:100D8000F7D205E06C4663785B1C091A637089B280
:100D90008142F7D205E06B469878401C6439987020
:100DA00089B26429F7D205E06B46D878401C0A392D
:100DB000D87089B20A29F7D2684601711DA103C90A
:100DC000069105900021084602AC6B4605AE03E093
:100DD000052801D100290FD01D5C655D302D04D0A0
:100DE000002904D13254012106E0002904D01D1845
:100DF000203DED7F655D3554401CC0B20628E7D329
:100E000006213046FFF790FF08B070BD0038014062
:100E10000501050006010600ED0000207C0200200F
:100E20007C01002030313233343536373839000018
:100E3000F0D8FFFF2020202020300000F0B54D4EDC
:100E40008BB0304601F0DAFC2F20694608804A4812
:100E5000019000240C818C724C80304601F024FDFE
:100E60000121304601F091FD1020694608754C754E
:100E700001258D7505A802F08FFB01221146304631
:100E800002F084F83D480390022669460E74032060
:100E900048748C740927CC74FF0603A9384600F007
:100EA000B0FE2802039003A9354800F0AAFE0222F2
:100EB0000321384600F011FF02220821384600F0D5
:100EC0000CFF02220B21384600F007FF0222082106
:100ED0002B4800F002FF69467D200D80C000019084
:100EE0000C81284F8C724C80384601F087FC694693
:100EF000384601F0D9FCA80701F080FC6946A80734
:100F000001F0D2FC204801F079FC69461E4801F04E
:100F1000CBFC7020694608834D8308948E840C8531
:100F200006A9384601F061FD06A9384601F006FE23
:100F300006A9154801F059FD06A9A80701F0FEFD14
:100F40000121384601F021FD0121384601F041FD23
:100F50000121880701F03DFD0121880701F015FD01
:100F60000121094801F035FD0121074801F00DFD7F
:100F70000BB0F0BD00040040FFFF000008090000B6
:100F800000040048002C0140004401407047FEE787
:100F90007047704710B53F48016801221143016056
:100FA00041683D4A1140416001683C4A114001607E
:100FB0000168012292049143016041683F221204BA
:100FC00091434160C16A09090901C162016BFF22B5
:100FD000543291430163416B490849004163002148
:100FE000816000F02EF810BD70B52A4D69680C20A4
:100FF00001402B482B4C03D0042901D0082901D0F3
:10100000206014E06A68696803239202DB03160F0C
:101010001940B61C002907D0E96A0907090F491CC5
:1010200002F07EFB7043EBE71F484643266068688A
:101030001C490006000F091D085C2168C1402160A1
:1010400070BD1A491120086012484168416041682A
:10105000416041687F22D20391434160416805228B
:10106000D20411434160016801221206114301605C
:1010700001688901FCD5416889088900416041689F
:1010800002221143416041680907890F0229FAD100
:1010900070470000001002400CB8FFF8FFFFF6FE9A
:1010A00000127A00F400002000093D0000200240F8
:1010B00070B586B00125AD0300266846009506711F
:1010C00003214171012484710221C1710920694603
:1010D000C00600F096FD0E21002002F0C3FA68461B
:1010E0000295067308214173847302A800F000FD85
:1010F0000721684601744474847404A802F04CFA11
:1011000006B070BD30B53648406A83B23548416993
:10111000490426D50121890341610920C006008ABE
:1011200040041ED5304A314C5088181A81B2002034
:10113000A14201D9107013E00C46FF3C2C4DF63C47
:10114000AC420DD22B4C20701078062808D2264DC8
:1011500001240A352C544400AD1D2953401CE9E7F5
:10116000538030BDF0B5204A0020121D117849008F
:101170008E46911D135CCC5C002C1DD01A4C450092
:101180001C34675B5E000C3CA65BAC46BF1B012FAA
:1011900012D0002815D0184C184F3419BC4202DB6D
:1011A0007F42BC4200DD3C46154F7C530E4F6446E7
:1011B0001C373E530024CC54401CC0B20628D9D35F
:1011C000F0BD7546675B7D25ED007C1B01D50024D5
:1011D00002E0AC4200DD2C46094F3C80E6E700000F
:1011E00000040040000401400801002088130000B2
:1011F000CF0700000300002024FAFFFF0CFEFFFFD2
:10120000DE00002070B5CC4C05460221204601F0DE
:10121000C1FA0028F9D02946204601F06CFA0121D4
:10122000204601F0B7FA0028F9D0204601F067FA0D
:1012300070BDF8B504460F46092015461021C006BA
:1012400000F041FDE006C00EFFF7DCFF064600247B
:1012500003E000F06FF93855641CAC42F9DB09205B
:101260001021C00600F02DFD3046F8BDF8B504464B
:101270000E46092015461021C00600F024FDE006A8
:10128000C00E2030FFF7BEFF0746002403E0305DAC
:10129000FFF7B8FF641CAC42F9DB09201021C0063F
:1012A00000F00FFD3846F8BD13B5012201A9FFF784
:1012B000DDFF1CBD08B501226946FFF7BAFF68468D
:1012C000007808BD70B50925ED061021284600F00C
:1012D000FAFCFF20FFF796FF04461021284600F095
:1012E000F0FC204670BD70B50925ED06102128469A
:1012F00000F0E9FCE220FFF785FF044610212846B4
:1013000000F0DFFC204670BD70B50925ED06102108
:10131000284600F0D8FCE120FFF774FF04461021B6
:10132000284600F0CEFC204670BD70B50925ED06BC
:101330001021284600F0C7FC6020FFF763FF00F093
:10134000F9F804461021284600F0BBFC204670BD89
:1013500070B50925ED061021284600F0B4FC502098
:10136000FFF750FF04467320FFF74CFF102128467B
:1013700000F0A7FC204670BD70B50925ED061021D0
:10138000284600F0A0FC5020FFF73CFF0446532005
:10139000FFF738FF1021284600F093FC204670BD6F
:1013A000F8B504460E46092015461021C00600F087
:1013B0008AFC2007000FA8210843FFF723FF0746F8
:1013C000002403E0305DFFF71DFF641CAC42F9DB35
:1013D00009201021C00600F074FC3846F8BDF8B5AD
:1013E00007460D4609201021C00600F06CFC612064
:1013F000FFF708FF0646002403E000F09BF838558D
:10140000641CAC42F9DB09201021C00600F059FC35
:101410003046F8BD49484068002800D00047704772
:101420004649486070477E2802D2C1B205203BE79A
:101430007047002806D0012806D0022806D10E21C8
:10144000062031E72621FBE70621F9E77047052250
:10145000012800D901220A30C0B207E7704731E7FE
:10146000F0B5364D87B0287800285ED1684600F088
:1014700000FC02216846017100248471C1710321BE
:1014800041712020009009206946C00600F0B9FB98
:101490008020009009206946C00600F0B2FB402081
:1014A000009009206946C00600F0ABFB01266846A3
:1014B0000671102709206946C006009700F0A1FBBD
:1014C000092000222021C00600F007FC092000228C
:1014D0008021C00600F001FC092000224021C00646
:1014E00000F0FBFB09201021C00600F0EAFB684673
:1014F000FF21048105314181072109028181C481D5
:101500000482710241828782C482072101830A4CCE
:1015100002A9204601F021F8A114204601F0BBF8F1
:101520000121204601F094F82E7007B0F0BD034869
:1015300000787047A52065E60030014030010020AA
:1015400070B50546FEF70CFE7D21C90002F0E8F8F3
:10155000BF4C6168411AA9421FD96060BD486178DB
:1015600009264501F60600290CD0012915D10122D2
:10157000042100F0AAFB00222946304600F0A5FB1A
:10158000002009E00022042100F09FFB01222946EF
:10159000304600F09AFB0120607070BD70B5FFF717
:1015A0005FFF09210020FFF77FFE3F210120FFF7A9
:1015B0007BFE3F210220FFF777FE03210846FFF75D
:1015C00073FE1A210420FFF76FFE3C210520FFF770
:1015D0006BFE06210846FFF767FE70210720FFF724
:1015E00063FE09211120FFF75FFE09211220FFF79A
:1015F0005BFE09211320FFF757FE09211420FFF796
:1016000053FE09211520FFF74FFE09211620FFF791
:101610004BFE00211720FFF747FE3F211C20FFF75C
:1016200043FE07211D20FFF73FFE1D20FFF742FE6E
:10163000FFF78EFE1D20FFF73DFE3F211C20FFF728
:1016400033FE07211D20FFF72FFEFFF795FE072031
:10165000FFF730FE000631D504227FA10020FFF7FE
:1016600005FE04227EA10120FFF700FE04227EA1D8
:101670000220FFF7FBFD04227DA10320FFF7F6FD0A
:1016800004227DA11046FFF7F1FD04227CA1052074
:10169000FFF7ECFD04227CA10C20FFF7E7FD0422FC
:1016A0007BA10D20FFF7E2FD04227BA11046FFF78E
:1016B000DDFD042270A11046FFF7D8FDFFF75CFEA8
:1016C000FFF711FEFFF720FE052275490A20FFF7FC
:1016D000CDFD052272491020FFF7C8FD0B21002027
:1016E000FFF7E2FD7D25ED00594C5DE0FEF738FD8A
:1016F000294602F015F8FF26F536606002E0304614
:10170000FFF71EFFFFF7ABFE4006F8D508E000200C
:10171000FFF70BFE092803D109216248FFF75FFE9E
:101720001720FFF7C7FDC007F1D0FFF7DCFD7021E0
:101730000720FFF7B9FD5B484549027808310A7078
:1017400042784A7082788A70C078C870C120087167
:1017500005220A20FFF78AFD3D49052208311020A5
:10176000FFF784FDFFF7BFFD70210720FFF79CFD09
:10177000FEF7F6FC294601F0D3FF606002E0FA2094
:10178000FFF7DEFEFFF76BFE4006F8D50120207064
:10179000002204212F4800F098FA0121092000229C
:1017A000C903C00600F091FA207800289ED070BDD1
:1017B00070B5FFF754FE400648D509213948FFF7B8
:1017C0000EFEFFF790FD70210720FFF76DFD3549F4
:1017D0007D220878D2008000904200D91046324C19
:1017E000324B208008798200FF3AFF3A5842023A91
:1017F0009A4201DA1A4602E0824200DD0246628025
:10180000CD78AA00FF3AFF3A023A9A4201DA1A4624
:1018100002E0824200DD0246A2804A789200FF3A4E
:10182000FF3A023A9A4201DA1A4602E0824200DDA9
:101830000246E280C979090705D0F02D00D9208140
:101840000F2D00D223811A490020087070BD0000BE
:101850003801002000040048404B01E20000000075
:10186000C04B000000000000D0FC8C020000000013
:101870009900392100000000D996821B0000000069
:1018800024067FA600000000001273000000000084
:1018900046B4800000000000DF96821B00000000BC
:1018A000523900087C030020DE0000200CFEFFFF00
:1018B00003000020864910B5884208D14415012153
:1018C000204600F0F2FD0021204600F0EEFD10BDA4
:1018D00030B5C3687F4A8C6813400A680D7922438B
:1018E000CC686D032C4322430C69496922430A43A7
:1018F0001A43C26030BD0021016001718160C16086
:101900000161416170470029816801D0012200E036
:10191000022211438160704701617047002A026909
:1019200001D00A4300E08A43026170470122D203DA
:101930000029C16801D0114300E09143C1607047A4
:10194000012292030029C16801D0114300E09143B4
:10195000C16070470122D2050029C16801D011433E
:1019600000E09143C1607047090411430162704770
:10197000C2681F239B069A430A43C2607047012234
:1019800092050029C16801D0114300E09143C16074
:10199000704701225049D2050028886801D01043C1
:1019A00000E090438860704701224B49920500286F
:1019B000886801D0104300E090438860704701229E
:1019C000454912060028886801D0104300E0904382
:1019D00088607047836A0B438362426170470122CB
:1019E00052030029C16801D0114300E09143C16056
:1019F0007047012212040029C16801D0114300E0A0
:101A00009143C1607047012212030029C16801D0CF
:101A1000114300E09143C1607047826800210123B7
:101A2000DB071A4382600F231B038268491CD20F15
:101A3000D207994201D0002AF7D18168002901DB41
:101A4000006C70470020704781681022114381604C
:101A5000704781680422114381607047006C80B236
:101A600070470029C16802D00122114301E04908F2
:101A70004900C1607047C26802239A43C260C268CD
:101A80000A43C2607047002A426801D00A4300E05E
:101A90008A434260704702460020CB0104D5926819
:101AA00001231B069A4300E012680A4200D001207D
:101AB00070470160704702465368002012680B406F
:101AC0000A4202D0002B00D001207047016070470D
:101AD0000024014003D2FFFF0027014030482F4976
:101AE0000160002141608160C1602E494161704701
:101AF00010B583792A490268002B26D00B689343DE
:101B00000B604A6803689A434A6002795218136866
:101B10000468234313608A6803689A438A60CA682A
:101B200003689A43CA604279102A05D051180A689E
:101B3000006802430A6010BD8A6803681A438A601D
:101B4000CA6800680243CA6010BD00794018016885
:101B50009143016010BD0021016001710C224271AE
:101B6000817170470E490A6902430A6170470C4A45
:101B70000146526900200A4200D0012070470849FE
:101B800048617047064A0146526900200A4200D067
:101B90000120704702494861704700000000940F1F
:101BA00000040140FFFF6B00092110B5C9068842FF
:101BB00002D101214C0404E05049884209D101219D
:101BC0000402204600F068FC0021204600F064FC7E
:101BD00010BD4B49884202D101210402F1E7494975
:101BE000884202D101210C05EBE74749884202D126
:101BF00001214402E5E745498842E9D101218C05EC
:101C0000DFE7F0B50022012423460D6893401D4014
:101C10009D422AD10D79012D01D0022D12D1876864
:101C200055000326AE40B74387604E79AE408568C5
:101C30002E43866085889D43858085888B79934077
:101C40001D438580066855000323AB409E43066014
:101C50000E790768AE403E430660C6689E43C66084
:101C6000CB79AB40C5682B43C360521C102ACBD341
:101C7000F0BD27490160002101710122427181718B
:101C8000C1717047012208B512040A430092C26173
:101C9000C1610099C161C169C069009008BD024677
:101CA000128A00200A4200D001207047008A704743
:101CB0000246928A00200A4200D001207047808AA2
:101CC00070478161704701857047002A01D08161AA
:101CD000704701857047818270474B07DB0E9A4041
:101CE000C90810B589000818016A0F249C40A14357
:101CF0000162016A1143016210BD00000004004846
:101D000000080048000C004800100048001400487B
:101D1000FFFF0000D24910B5884202D101214C05D5
:101D200001E001218C05204600F0C8FB002120467F
:101D300000F0C4FB10BD10B50268520852000260EA
:101D40000268C84B8C681A4024024B681443234332
:101D500003600F230A681B069A430261026801238D
:101D60001A43026000228260C2600B698A691A43CA
:101D7000826082680123DB031A438260CA680368B9
:101D8000134303604268B84B49691A4011434160EC
:101D900010BD0021016041608160C1600122D20359
:101DA00001614261816170470029016802D001220E
:101DB000114301E049084900016070470168490882
:101DC0004900016001680168012211430160704708
:101DD000002A026801D00A4300E08A43026070478B
:101DE000012252040029016801D0914300E011430F
:101DF00001607047012292040029016801D011435B
:101E000000E09143016070470122D2030029C168BC
:101E100001D0114300E09143C160704710B5C36821
:101E2000924C52072340FE242140520D1143194386
:101E3000C16010BD0122D2040029016801D0114304
:101E400000E09143016070470122120400290168FB
:101E500001D0114300E09143016070474268890559
:101E6000920A9202890D1143416070470122D20209
:101E70000029416801D0114300E09143416070475F
:101E8000012252060029416801D0114300E091432C
:101E900041607047012212060029416801D01143B8
:101EA00000E09143416070474268FF231B049A435E
:101EB00009041143416070470122920200294168E0
:101EC00002D01143416070479143FBE70122520366
:101ED0000029416801D0114300E0914341607047FF
:101EE000012292030029416801D0114300E091438F
:101EF00041607047012212030029416801D011435B
:101F000000E09143416070470122D20300294168FB
:101F100001D0914300E01143416070478069FE2188
:101F2000000C084070470146896900200122120414
:101F3000114200D09011704770B5049D4468890526
:101F4000890D12044A4E1143194334402943214359
:101F5000416070BD012292050029016801D0114342
:101F600000E09143016070470122D20300294169DA
:101F700001D0114300E0914341617047002941695C
:101F800003D00122D207114301E049004908416111
:101F90007047012212030029416901D0114300E07A
:101FA00091434161704742690905120B1203090D03
:101FB00011434161704742692E4B09051A400909D6
:101FC0001143416170470122D2050029016801D007
:101FD000114300E0914301607047012292060029FD
:101FE000016801D0114300E0914301607047006A2D
:101FF000C0B2704708B540180090006808BD816203
:102000007047406AC0B27047002A026801D00A4394
:1020100000E08A43026070470246926900200A424B
:1020200000D001207047C161704710B500238A04B9
:10203000920E02D00268802404E00A06920F026821
:1020400002D04024224000E00A408069084202D0C9
:10205000002A00D00123184610BDC161704700005E
:1020600000540040FFE0CF00FF7FFF0701F8FFFFB3
:10207000009800FCFFFF00F0F848016801221143BE
:1020800001604168F64A114041600168F54A11401B
:1020900001600168012292049143016041683F227E
:1020A000120491434160C16A09090901C162016BCF
:1020B000FF22543291430163416B49084900416357
:1020C000002181607047E54900228A70887070475E
:1020D00003460020E1495A090CD0012A0CD0022AFB
:1020E0000CD0496BDA06D20E012393400B4200D08C
:1020F000012070470968F5E7096AF3E7496AF1E7E3
:1021000018B500200524240300901120FFF7E0FFFC
:102110000099491C0091A14201D00028F5D011205E
:10212000FFF7D6FF002800D0012018BDCB4A116868
:10213000F8239943C000084310607047C74900283E
:10214000086802D00122104301E040084000086006
:102150007047C24A516BF8239943C000084350634B
:102160007047BE490028486B02D00122104301E0AD
:102170004008400048637047B84904220028486B73
:1021800001D0904300E0104348637047B3490A6AA6
:10219000520852000A620A6A04239A430A620A6ACF
:1021A00002430A627047AD490A6A18239A430A62D9
:1021B0000A6A02430A627047A8490028486A02D0A6
:1021C0000122104301E0400840004862704710B50A
:1021D000A24A53687B24E403A34353605368084333
:1021E0000343536010BD01229C4912060028086871
:1021F00001D0104300E090430860704701229749E6
:1022000012040028486B01D0104300E0904348635B
:102210007047924AD16A090909010143D1627047A6
:1022200001228E49D2040028086801D0104300E042
:102230009043086070478949C8717047874A516860
:1022400089088900014351607047844840680C2127
:1022500008407047814A5168F02399430143516017
:1022600070477E4A516807231B029943014351601E
:1022700070477A494A6801239B039A434A604A6837
:1022800083B21A434A600A6B8B159A430A630A6B3E
:10229000000C02430A63704770490A6B40239A435B
:1022A0000A630A6B02430A6370476C490A6B102386
:1022B0009A430A630A6B02430A637047020F674935
:1022C000012A0A6B07D003231B049A430A630A6B93
:1022D00002430A63704792089200F7E75F490A6B6E
:1022E00080239A430A630A6B02430A637047F8B576
:1022F0005A4D0446696800200C225B4E114005D0FF
:10230000042903D0082903D00C2918D0266018E02E
:102310006968686803228902D2030F0F1040BF1C4E
:10232000002809D0E86A0107090F3046491C01F06E
:10233000F7F97843206004E04C487843FAE74C49C9
:10234000216069684B4B0906090F5A5C21680F46EA
:10235000D74067606A685205520F9A5CD740A76001
:102360002A6BD20501D4444A05E06A68520401D4BC
:102370007A0800E0BA08E2602A6B53063F4A03D4A9
:102380003E4B1233236100E022612B6BDB0601D44C
:10239000666100E061612B6B9B070ED02B6B9B0786
:1023A0009B0F012B0BD02B6B9B079B0F022B08D095
:1023B0002B6BDB439B0706D006E0A76104E0A1611D
:1023C00002E0A26100E0A6612B6B9B039B0F0FD084
:1023D0002B6B9B039B0F012B0CD0296B8903890F5F
:1023E000022909D0296B8903890F032906D006E049
:1023F000E76104E0E16102E0E26100E0E661296B8F
:10240000090600D41A482062F8BD14490A6A02433A
:102410000A62704711490028184A086A01D010431F
:1024200000E090430862704701220C491204002822
:10243000086A01D0104300E0904308627047074AE1
:102440000029516901D0014300E081435161704787
:10245000024A0029916913D0014312E000100240A2
:102460000CB8FFF8FFFFF6FE00127A0000093D00ED
:10247000006CDC0245010020809FD5000080000038
:102480008143916170471F4A0029D16901D00143FE
:1024900000E08143D16170471A4A0029916A01D056
:1024A000014300E0814391627047164A0029D168D8
:1024B00001D0014300E08143D1607047114A0029F7
:1024C000116901D0014300E08143116170470D4A59
:1024D0000029517A01D0014300E0814351727047D5
:1024E0000848416A01221206114341627047054AB9
:1024F0000146926800200A4200D00120704701493D
:102500008872704700100240B24910B5884209D164
:10251000841401212046FFF7C8FF00212046FFF761
:10252000C4FF10BDAC498842FBD1041401212046F0
:10253000FFF7C4FF00212046FFF7C0FF10BD0021B8
:1025400001800722418012028280C1800181418185
:102550008181C18107210182704730B50388C12282
:10256000920113400A88CC890D892243CC882C43E0
:1025700022434C8922438C8922431A430280828859
:10258000964B1A408B88134383800A8A0282028802
:10259000042349889A4311430180818B904A11405A
:1025A000818330BD0021018041808180C180022271
:1025B000826081817047F0B505460C4602200021FB
:1025C000AA8B89B00126854BBF3B1A40AA83288479
:1025D000AF8BA268022A24D0A088002800D002264F
:1025E0006846FFF784FEE1880098CA1FFF3AFA3A6E
:1025F00029D0710101F094F80A214843A16801F043
:102600008FF8401D80B20A2101F08AF8C107C90F76
:10261000401AC003000C0902821EFE2A01D30220C8
:102620000021E288084302432A8420886188A28925
:102630000843A1881143084301213843C9020843D4
:10264000A88309B0F0BD000A0A225043A168D6E76A
:1026500040220029018801D0114300E0914301800C
:10266000704710220029818801D0114300E0914376
:10267000818070470029818B03D00122920211438F
:1026800001E0584A1140818370478288534B1A40B9
:102690000A43828070478288534B1A408280828826
:1026A0000A4382807047012292039142018801D13E
:1026B000114301E04D4A1140018070474C4A91425C
:1026C000018803D0FF220132114300E01140018054
:1026D000704704220029818801D0114300E0914312
:1026E0008180704708220029818801D0114300E0D1
:1026F0009143818070470173704781817047007BEF
:102700007047808970470288354B1A4002800288E2
:102710000A43028070470029018803D00122520336
:10272000114301E0334A11400180704701880122C2
:102730001203114301807047012901D0008B7047BB
:10274000808A7047008A7047002A828801D00A4335
:1027500000E08A43828070478288274B1A4082803B
:1027600082880A4382807047090901238B40002A2E
:10277000828899B201D00A4300E08A438280704780
:1027800000890321C90208407047008903214902DA
:10279000084070470246128900200A4200D00120FA
:1027A0007047C9430181704730B50D0701222D0FD5
:1027B00014460346AC40002009098A4091B29A8829
:1027C000A4B20A401989214202D0002A00D0012077
:1027D00030BD00000030014000380040FFF0000034
:1027E000FFF70000FFFB0000FFEF0000FFBF00004D
:1027F000FFFE0000FFDF0000FF9F0000F94910B559
:10280000884202D10121C4143AE00121890788429B
:1028100006D101210846FFF751FE0021012008E002
:10282000F149884208D101210220FFF747FE00212B
:102830000220FFF743FE10BDEC49884206D101217A
:102840001020FFF73BFE00211020F2E7E849884204
:1028500006D101212020FFF731FE00212020E8E7EA
:10286000E449884207D1841501212046FFF726FE5E
:1028700000212046DDE7E049884209D101210C040E
:102880002046FFF712FE00212046FFF70EFE10BD86
:10289000DA49884202D101214C04F1E7D849884243
:1028A000F5D101218C04EBE710B50288CD4B98429D
:1028B00006D00124A407A04202D0CB4CA04203D1F1
:1028C0007024A2434C882243C84CA04203D0CD4C74
:1028D00022400C89224302804A68C2620A8802852B
:1028E000984208D0C44A904205D0C44A904202D0CF
:1028F000C34A904201D1897A01860121818210BDAB
:102900000021C94341600021018001814180817221
:102910007047018582827047028870239A430A4378
:102920000280704741627047C1627047406A7047D9
:10293000008D704702220029018801D0114300E078
:1029400091430180704704220029018801D011437E
:1029500000E091430180704780220029018801D066
:10296000114300E0914301807047028808239A4395
:10297000028002880A43028070470288A14B1A40F5
:10298000028002880A43028070470029018802D031
:102990000122114301E0490849000180704710B548
:1029A0000A884B88CC881A438B8823431A430B89A7
:1029B0001A434B8989891A430A434030828010BDEB
:1029C0000021018041808180C1800181418181811C
:1029D000704740300029818803D00122D20311437F
:1029E00001E04904490C8180704730B5028C5208DF
:1029F00052000284038C8288048B7025AC43A408A7
:102A00000D88A40025430224A3438C891C434B88D2
:102A10002343744CA04208D0774CA04205D0774C99
:102A2000A04202D0764CA0420DD10824A343CC8909
:102A30001C4304239C438B882343724C22400C8A02
:102A400014434A8A22438280058389684163038450
:102A500030BD70B5028C10239A430284048C8288A6
:102A6000038B694D2B400D782D062D0C1D43202323
:102A70009C438B891B051E0C4B8826431B051B0C96
:102A8000584C3343A04202D05B4EB04219D15F4E46
:102A900032400E8AB604360C3243A04211D1802453
:102AA000A343CC892405240C1C4340239C438B88DE
:102AB0001B051B0C2343564C22404C8AA404240CB7
:102AC00022438280058389688163038470BD30B5A9
:102AD000028C504B1A400284038C8288848B7025B0
:102AE000AC43A4080D88A40025434B4C23400C7B29
:102AF0002406240C1C438B781B061B0C2343394CE7
:102B0000A04215D1424C23408C7B2406240C1C434C
:102B10003E4B1C400B791B061B0C23433F4C2240B1
:102B20000C8A2405240C14434A8A1205120C2243F1
:102B3000828085838968C163038430BD30B5028C8F
:102B4000374B1A400284048C8388828B2E4D2A4096
:102B50000D782D062D0C1543324A14400A7B1207BE
:102B6000120C22438C782407240C14431D4A9042F3
:102B700005D12D4A13400A8A9205120C1343838013
:102B8000858389680164048430BD0021018041800F
:102B9000818081608181C18101824182704730B52D
:102BA000034618330124058C8C40A5430584002975
:102BB00010D008290ED0091F0804400CC018016865
:102BC00007231B039943016001681206120C11438D
:102BD000016030BD4808C018016870239943016046
:102BE0000168F4E7002C01400004004000100040A0
:102BF000001400400020004000400140004401401B
:102C000000480140FFFC0000FF8C0000FFFB0000BB
:102C1000FFF70000FFFE0000FFFD0000FFCF0000F7
:102C2000FFEF0000FFDF0000FFBF000041637047BF
:102C300081637047C163704701647047028B7023E2
:102C40009A430A4302837047028BF64B09021A40EB
:102C5000114301837047828B70239A430A43828316
:102C60007047828BEF4B09021A40114381837047F2
:102C70000029818802D00122114301E0490849005E
:102C800081807047028B08239A430A43028370476E
:102C9000028BE54B09021A40114301837047828B76
:102CA00008239A430A4382837047828BDE4B0902D2
:102CB0001A40114381837047028B04239A430A43CD
:102CC00002837047028BD94B09021A4011430183DA
:102CD0007047828B04239A430A4382837047828B16
:102CE000D24B09021A40114381837047028B802323
:102CF0009A430A4302837047028B5204520C090222
:102D0000114301837047828B80239A430A43828355
:102D10007047828B5204520C090211438183704721
:102D2000028C02239A430A4302847047028C0823D0
:102D30009A430A4302847047028C20239A43090174
:102D4000114301847047028C80239A430901114387
:102D500001847047028CB64B09021A40114301846A
:102D60007047028CB04B09021A401143018470472E
:102D7000028CB04B09031A40114301847047028949
:102D800008239A43028102890A430281704710B5E1
:102D90000123048C8B409C430484038C8A4013439E
:102DA000038410BD10B50423048C8B409C43048421
:102DB000038C8A401343038410BD042200298188B8
:102DC00001D0114300E0914381807047828B9A4B80
:102DD0001A408283828B09020A4382837047828B66
:102DE0000C239A438283828B0A4382837047028B2F
:102DF000914B1A400283028B09020A4302837047F7
:102E0000F0B5048C1026B4430484058B048C8B4FDE
:102E10001B0309013D402B4312021A43A0239C438C
:102E20000C43344302830484F0BD028B0C239A4389
:102E30000283028B0A430283704770B5048C6408D6
:102E400064000484058B048C1B011343F3260A22BF
:102E5000B54394432B430C4301210C430383048467
:102E600070BDF8B5044608884E888A880B890D46DF
:102E700000281DD0042824D00828208C2AD070498E
:102E800008402084A08B278C31036C4E1202304006
:102E90000243180310436B4AA08317400F430121DC
:102EA00009030F432784E9882046FFF78FFFF8BD09
:102EB00031462046FFF7C1FFE9882046FFF7B5FFFE
:102EC000F8BD31462046FFF79BFFE9882046FFF713
:102ED0008EFFF8BD5C4908402084A18B208C37020E
:102EE000F3261B01B14313430B435849A383084006
:102EF000FF213843013108432084E9882046FFF749
:102F00006EFFF8BD00210180418001228280C180D6
:102F100001817047F8B50C4649880026012507460F
:102F2000002900D10226A288012A00D1022520888A
:102F300023890028384610D0FFF762FFE188384621
:102F4000FFF755FF23892A4631463846FFF775FFBC
:102F5000E1883846FFF769FFF8BDFFF76EFFE188AB
:102F60003846FFF762FF23892A4631463846FFF785
:102F700047FFE1883846FFF73AFFF8BD406B7047DE
:102F8000806B7047C06B7047006C7047002A828965
:102F900001D00A4300E08A438281704781827047F2
:102FA0000246128A00200A4200D001207047C9431D
:102FB000018270470246138A002092890B400A4022
:102FC000002B02D0002A00D001207047C9430182A3
:102FD00070471143403001817047002A828901D037
:102FE0000A4300E08A4382817047082200298188D1
:102FF00001D0114300E09143818070470189C908E5
:10300000C90001817047028970239A430A430281F3
:10301000704710B50446FFF7F6FF208907210843E3
:10302000208110BDFF8F0000FFF70000FFFB0000B4
:10303000FFFD0000FFDF0000FFF30000FF0C0000B9
:10304000FFEF0000FF5F0000FFFE0000FFF5000043
:1030500070B516460D46044660290CD00122314653
:10306000FFF7EBFE29462046FFF7CDFF2089072119
:103070000843208170BD01223146FFF7C1FEF1E710
:1030800010B504891B021343E4B20B4323430381AD
:1030900010BD10B50446FFF7F3FF2089C108C90031
:1030A00007200143702081430143218110BD10B5E9
:1030B0000446FFF7E5FF20890121890308432081A9
:1030C00010BD828870239A43828082880A4382805E
:1030D00070470289D208D200028102890A43028124
:1030E0007047028980239A43028102890A43028140
:1030F000704770B50689048B058CF608F6000E4300
:103100000C4906810C40FF2102310C43AA218D435A
:103110001901114329430483018470BD80220029D1
:10312000818801D0114300E0914381807047403095
:1031300001827047FCFC0000F74910B5884209D1B4
:1031400001218C032046FFF7B0F900212046FFF74C
:10315000ACF910BDF149884202D101214C0404E0D0
:10316000EF49884209D101218C042046FFF7A6F9D6
:1031700000212046FFF7A2F910BDEA498842FBD1A1
:103180000121CC04F1E730B50446006889B00D4652
:103190004008400020606068032109038843A96853
:1031A000014361602068E049EA68084069681143AA
:1031B0002A69024311432160A06803210902884360
:1031C00069690143A1606846FFF791F8D2488442DB
:1031D00001D1069805E0D148844201D1079800E06A
:1031E000029821680904296800D5400000F098FA87
:1031F0002A6852088A4200D8401C2168090404D574
:103200000107CA4A490F10400843A08109B030BDE8
:103210004B21C90101600021416081600C22C16025
:1032200002614161704710B542680F231B029A4347
:1032300018C923430C6849680C4323431343436074
:1032400010BD0021016041608160C16070470029AC
:10325000016802D00122114301E0490849000160E0
:103260007047002A026801D00A4300E08A430260E6
:1032700070470122D2030029016801D0114300E008
:103280009143016070470122D2020029816801D078
:10329000114300E09143816070470122D20400296C
:1032A000416801D0114300E0914341607047012221
:1032B00092040029416801D0114300E0914341602C
:1032C0007047002A426801D00A4300E08A43426006
:1032D00070470122D2030029416801D0114300E068
:1032E0009143416070470122D2050029416801D015
:1032F000114300E09143416070474269120E12068B
:10330000426142690A4342617047028A120A12020C
:103310000282028A0A43028270470222002901685F
:1033200001D0114300E0914301607047826803239C
:103330001B059A43826082680A43826070470122BB
:1033400012050029416801D0114300E0914341601A
:103350007047426803235B059A43426042680A4310
:1033600042607047C905C90D01857047808CC00552
:10337000C00D704742681202120A42604268090694
:103380000A4342607047012252030029016801D0BC
:10339000114300E091430160704702680123DB02A2
:1033A0009A43026002680A43026070474268102331
:1033B0009A43426042680A43426070474268202351
:1033C0009A43426042680A43426070470122920376
:1033D0000029416801D0114300E0914341607047EA
:1033E00008220029816801D0114300E091438160E7
:1033F0007047028AD2B20282028A09020A4302821A
:10340000704720220029816801D0114300E09143D8
:103410008160704710220029816801D0114300E0CB
:10342000914381607047826807235B049A438260FE
:10343000826849040A438260704742691202120A94
:103440004261426909060A43426170478268042367
:103450009A43826082680A43826070470222002990
:10346000816801D0114300E09143816070470122DF
:1034700092030029816801D0114300E091438160EB
:10348000704782680123DB039A43826082680A43A3
:103490008260704702681F235B059A4302600268DE
:1034A00049050A430260704702681F231B049A43C0
:1034B0000260026809040A4302607047002A8268B9
:1034C00001D00A4300E08A4382607047826801238A
:1034D0005B039A43826082680A438260704710B53A
:1034E0000B041C0E01238B40022C02D0032C02D0B3
:1034F00002E0001D00E008300168002A01D01943F5
:1035000000E09943016010BD002A028B01D00A43FC
:1035100000E08A43028370470038014000440040C5
:1035200000480040004C0040F3E9FFFFF0FF0000BE
:10353000826801231B039A43826082680A43826087
:10354000E9E70246D26900200A42E4D00120E2E71E
:103550000162E0E730B50A04130E0122144600258B
:103560008C40012B0ED0022B0ED08368090C234017
:10357000C0698A401040002B02D0002800D00125ED
:10358000284630BD0368F1E74368EFE70A0C0121E4
:1035900091400162BFE7000030B5837801210278D5
:1035A000002B15D09408174BA400E4182368920749
:1035B000D50EFF22AA40934342789207120EAA40EA
:1035C0001A4322600078C006C00E81400E4804E015
:1035D000D006C00E81400C488030016030BD0B4ADF
:1035E0000029116901D0014300E081431161704756
:1035F000042207490428086902D0904308617047F3
:103600001043FBE700E400E000E100E000ED00E033
:1036100000E000E0244801688907890F016000216B
:103620008160C160016141618169821511438161DD
:1036300070471D4A1168890889000143116070476D
:10364000194A0029116801D0014300E0814311604B
:103650007047154A0029116801D0014300E08143F9
:10366000116070478A07130F10B50F229A408C081B
:103670000D49A40061188C6894438C608A68984056
:1036800002438A6010BD08498A6902438A61704713
:10369000054900208969C90500D501207047024904
:1036A0008A6902438A617047000001400F4880F335
:1036B00008880F480168090E0E4A914205D10E484C
:1036C0000E4901600E480F4901600F4880470F48BE
:1036D0000047FEE7FEE7FEE7FEE7FEE7FEE7000045
:1036E0000B480C490C4A0D4B70470000E8090020BC
:1036F000040000001F00000018100240010000003C
:103700000000014000000000950F0008C100000803
:10371000E8030020E8090020E8050020E805002073
:10372000002203098B422CD3030A8B4211D30023BE
:103730009C464EE003460B433CD4002243088B4298
:1037400031D303098B421CD3030A8B4201D3944625
:103750003FE0C3098B4201D3CB01C01A5241830918
:103760008B4201D38B01C01A524143098B4201D3D2
:103770004B01C01A524103098B4201D30B01C01AFD
:103780005241C3088B4201D3CB00C01A5241830877
:103790008B4201D38B00C01A524143088B4201D3A4
:1037A0004B00C01A5241411A00D201465241104604
:1037B00070475DE0CA0F00D04942031000D3404279
:1037C000534000229C4603098B422DD3030A8B42AF
:1037D00012D3FC22890112BA030A8B420CD389014D
:1037E00092118B4208D3890192118B4204D3890133
:1037F0003AD0921100E08909C3098B4201D3CB0171
:10380000C01A524183098B4201D38B01C01A524125
:1038100043098B4201D34B01C01A524103098B4229
:1038200001D30B01C01A5241C3088B4201D3CB0014
:10383000C01A524183088B4201D38B00C01A5241F7
:10384000D9D243088B4201D34B00C01A5241411ACE
:1038500000D20146634652415B10104601D34042FC
:10386000002B00D54942704763465B1000D34042AD
:1038700001B50020C046C04602BD70477047704782
:10388000754600F023F8AE46050069465346C00869
:10389000C000854618B020B5FFF722FF60BC0027A6
:1038A0004908B6460026C0C5C0C5C0C5C0C5C0C50C
:1038B000C0C5C0C5C0C5403D49008D4670470446DF
:1038C000C046C0462046FCF738FC00000048704760
:1038D0008803002001491820ABBEFEE72600020045
:1038E000704770B58C180578401C6B075B0F01D1D1
:1038F0000378401C2A1106D10278401C03E00678A8
:10390000401C0E70491C5B1EF9D12B0705D4002307
:10391000521E0DD40B70491CFAE70378401CCB1AD9
:10392000921C03E01D780D70491C5B1C521EF9D5DA
:10393000A142D8D3002070BD30B47446641E2578EF
:10394000641CAB4200D21D46635D5B00E31830BCD3
:103950001847656565656500783900080000002036
:1039600058010000E2380008203A00085801002001
:103970009008000004010008312264121443D007AB
:10398000230A0D100DF401CC012D2D46414155782F
:103990007804125858580718504650468813381063
:1039A0005468726F74746C652020526F6C6C2001C7
:1039B0003E50697463680A4C596177137E204175E3
:1039C00078310A4A320A28114C69506F20566F6CC0
:1039D000742E4779726F205814390A7A590A3A5A64
:1039E000324B43431D390A391D390A391D28082035
:1039F000486F646F72210A29CE2902B50CFEF401CA
:103A0000846CDC02780901020304060708090D3BF7
:103A10000501010B14DC05020119293C994D000038
:04000005080036AD0C
:00000001FF
