:020000040800F2
:100000000010002039020008911200089312000825
:1000100000000000000000000000000000000000E0
:100020000000000000000000000000009512000821
:100030000000000000000000971200087D02000888
:100040007D0200087D0200087D0200087D02000894
:100050007D0200087D0200087D020008E509000815
:100060007D0200087D0200087D0200087D02000874
:100070003D0E00087D0200087D0200087D02000898
:10008000810200087D020008000000007D020008D7
:100090007D0200087D0200087D0200087D02000844
:1000A0007D0200087D0200087D020008450F00085F
:1000B0007D020008000000007D0200080000000032
:0400C0005FF808F1EC
:1000C40002B4714649084900095C49008E4402BCE7
:1000D4007047C046002934D00123002210B488425E
:1000E4002CD301242407A14204D2814202D2090163
:1000F4001B01F8E7E400A14204D2814202D2490084
:100104005B00F8E7884201D3401A1A434C08A04226
:1001140002D3001B5C0822438C08A04202D3001BBC
:100124009C082243CC08A04202D3001BDC082243D3
:10013400002803D01B0901D00909E3E7101C10BCF7
:100144007047002801D00020C04307B4024802A130
:100154004018029003BDC046D90000000029F0D029
:1001640003B5FFF7B9FF0EBC4243891A1847C046CE
:10017400002941D010B4041C4C40A44601230022A1
:10018400002900D54942002800D5404288422CD39A
:1001940001242407A14204D2814202D209011B0195
:1001A400F8E7E400A14204D2814202D249005B0094
:1001B400F8E7884201D3401A1A434C08A04202D3FC
:1001C400001B5C0822438C08A04202D3001B9C083D
:1001D4002243CC08A04202D3001BDC08224300289F
:1001E40003D01B0901D00909E3E7101C6446002C65
:1001F40000D5404210BC7047002806D003DB002025
:10020400C043400801E08020000607B4024802A170
:100214004018029003BDC046190000000029EBD02D
:1002240003B5FFF7A7FF0EBC4243891A1847C0461F
:100234007047C046002103E00A4B5B584350043129
:1002440009480A4B42189A42F6D3094A02E00023AD
:1002540013600432074B9A42F9D301F01BF800F003
:100264003DF870471423000800000020D800002047
:10027400D800002058030020FEE70000054B1A8A2E
:10028400D10706D5022252421A82034B1A88013240
:100294001A8070470004004024010020034A044BE4
:1002A40010885B6A0004C0187047C046240100200F
:1002B4000004004008B5FFF7F1FFFA218900FFF7B9
:1002C40009FF08BD38B5041CFFF7E8FF051CFFF75C
:1002D400E5FF401BA042FAD338BD0000F0B58BB057
:1002E40000F0D8FFC020C002012101F00FFDCB486F
:1002F400012101F023FD0121C94801F013FD00F0A3
:1003040015FF00F05DFDE120400200F0ABFD00F0C0
:1003140007FD012309A825210370694403230B70F9
:10032400262227236B4400246A440426BD4808A9D6
:100334001C7014700896802501F082FB90202D0219
:10034400C00508A9089501F07BFBB648311C221CA6
:1003540001F0C2FB9020C005291C221C01F0BCFB4B
:1003640001F0F2F9FFF79AFFAF4C06902388AF4DE6
:10037400002B04D02B78002B01D100F0DDFB2B786F
:10038400002B00D0E7E12488002C00D0E3E100F04A
:10039400D3FB01F03DF9A64B1B780093A54B1B88BA
:1003A4000193A54F65007B1902201E5EA34BF11734
:1003B4007018E35C48404000FA2158438900FFF775
:1003C40089FE64219E4B009A081AE852002A05D13E
:1003D40001987043FFF7CCFE9A4BE8520134032C8A
:1003E400DFD13F88002507972C1C0095954B944A34
:1003F400E65E954BA05EE35E642158434942FFF7F5
:10040400B7FE924B3018009E0190F05C019E64216F
:100414007043FFF7ADFE8E4A8E4BA95803907018B7
:10042400E15E4B42984203DB031E8B4200DD0B1C52
:10043400019EF11770184840AF26B600C70F00217F
:1004440086424F41079E7F4236B23B4004964F2E70
:1004540000DC0B1C5351009E7F4A8049B05C58431A
:10046400FFF786FE7E4E0590A95901987D4F431AE9
:100474009BB2029318B2E35F0099C0187A4BCB5C2D
:10048400962158434900FFF773FE019B029AAB5132
:10049400009EE253F3B2039E022B0ED1059973180A
:1004A4001818724B984206DBFA235B00984200DD71
:1004B400181C80B204E06E4802E08019059E801981
:1004C4006C4E04353053009E023401360096032EE0
:1004D4008CD1594C684F0820235E684D962B14DD4F
:1004E4000023FB56002B23D1654B1B78FA2B1FD11D
:1004F4002B78092B1CD8049E962E19DC012249481E
:1005040004213A7001F0E8FA12E00023FB56012BB3
:1005140005D10022434804213A7001F0DDFA584B1A
:100524001A78F92A04D82978092901D801321A70CD
:100534000022BA56002A04D00020235E4F2B02DC8E
:100544000022111C02E0FA21322289002B780A2BA6
:1005540003D900232380454B2381208803B2002B39
:1005640008DBFA25041CAD00AB4200DD2C1C25B2CF
:10057400AC4601E00026B4463E4C3E4E0027E75F01
:100584003C4C0225755F0426A45FBC440194019E83
:100594006446641BA41B944201DA944616E0002BC3
:1005A4000BDB6C46FA262080B400A34201DD6E46C4
:1005B40034806C460026A65F00E00026F619019CF4
:1005C400761B341BA4468C4200DD8C462D4C6646BB
:1005D4006663002B0BDB6E46FA243080A600B34220
:1005E40001DD6C4626806C460026A65F00E00026EE
:1005F400F61B019C761B3619944696424DDB002B64
:1006040042DB6E46FA243080A600B34201DD6C461C
:1006140026806C460026A65F37E0C0460300200013
:10062400015A0200000400487A0000204000002023
:10063400E200002020000020A80000207C00002010
:100644001E010020DC000020160100209000002084
:10065400080100204200002083000020B80B0000A5
:10066400F8000020EC0000207F0000200CFEFFFFBB
:100674000CFE0000E600002004010020820000209F
:1006840006010020002C01400026F61B019C761B6D
:10069400A419A4468C4200DD8C46B24C66462664FE
:1006A400002B0BDB6E46FA243080A600B34201DD3A
:1006B4006C4626806C460026A65F00E00026F61BEA
:1006C400019C7619361B964201DA009216E0002B43
:1006D4000BDB6E46FA243080A600B34201DD6C4683
:1006E40026806C460026A65F00E00026F61B019CCF
:1006F4007619361B00968E4200DD00919A4E009CBE
:100704007463002B0BDB6C46FA262080B400A342F2
:1007140001DD6E4634806C460026A65F00E00026AC
:10072400F619019C76193619964210DB002B06DB6C
:10073400FA229200934200DD101C00B200E0002077
:10074400C2195219019D52198A4200DD0A1C8023E4
:10075400DB051A6402E0854B64221A70844801F0B8
:1007640052F9FFF7A7FD834C2668801B642853D9F0
:100774007E4B1A7801321A70FFF79CFD7E4B0F22D4
:100784001A707E4B20601A7851B2002901DD013ABB
:100794001A707B4C2278002A0DD0012390208021EE
:1007A4001A40C0050902002A00D01A1C01F094F96D
:1007B4002378013B2370734AAF21138849008B428D
:1007C4001DD1714B01241D7870480135EDB21D70A7
:1007D4000421254008D0002201F07EF990208021D8
:1007E400C0050902221C07E0221C01F075F99020C3
:1007F4008021C00509022A1C01F06EF90CE064494D
:100804000024085F2C21FF31884201DC013302E01F
:100814000A2B01D90A3B138000F0DEFB00280ED01E
:1008240000F0E6FB554B14221A70F5E7524B18788A
:1008340001280ED8514A127852B2002A07DCFFF779
:100844002DFD069E534B801B9842EFD98AE5002864
:10085400F5D00138C0B218700E28F0D84E4CFFF70E
:100864002FFC7074665E564E463E383028201810B1
:1008740008004A480A2100F0CFFB494B0025585F85
:100884005CE048480A2100F0C7FB454B0226985F0C
:1008940054E045480A2100F0BFFB414B0421585E57
:1008A4004CE042480A2100F0B7FB3D4B0622985E1B
:1008B40044E03F480A2100F0AFFB394B0825585F5C
:1008C4003CE03C480A2100F0A7FB354B0A26985F20
:1008D40034E039480A2100F09FFB2D4B1CE03748D7
:1008E4000A2100F099FB364B0022985E26E0354839
:1008F4000A2100F091FB324B0225585F1EE032487A
:100904000A2100F089FB2E4B0426985F16E02F483D
:100914000A2100F081FB2E4B0021585E0EE02D4889
:100924000A2100F079FB2A4B0222985E06E02A484D
:100934000A2100F071FB264B0425585F00F084FB6C
:100944000BE026480A2100F067FB201C022100F07E
:1009540063FB201C022100F05FFB201C022100F03D
:100964005BFB6CE7002C0140004401408200002046
:10097400002401402801002005010020140100206A
:1009840040000020D80000201C0100200004004882
:10099400E4000020CF0700000A000020000000202F
:1009A400A800002048000020860000201600002037
:1009B40093000020360000209D000020220000202B
:1009C4001601002066000020700000205200002064
:1009D400F20000205C0000202C0000200C0000200D
:1009E400194B1A4A596A80235069DB0170B51842C1
:1009F40028D053619022D205128A1A4222D0144B75
:100A040089B21A881C1C8A1A124B92B29A4203D9D0
:100A1400114B00221A7014E0104BD018104B80B206
:100A240098420ED80F4B002018700B480378052B02
:100A340007D80D4D0126EE549D1905700B48B3409F
:100A44001A52218070BDC0460004004000040140D9
:100A54002C010020881300002E0100200BFEFFFF54
:100A6400CE07000082000020C0000020B400002057
:100A740073B5061C0D1C80212C48090201F097F85F
:100A84000128F8D080239B01009380232748D0219C
:100A940001225B0401F074F8254C2448022101F082
:100AA40086F8002804D1013CA4B2002CF5D133E02F
:100AB4001E48311C01F076F81D4C1C48802101F0C1
:100AC40076F8002804D1013CA4B2002CF5D123E02F
:100AD4000023009380231548D02101229B0401F0B8
:100AE4004FF8134C1148022101F061F8002804D199
:100AF400013CA4B2002CF5D10EE00C48291C01F0F5
:100B040051F80B4C0948202101F051F8002808D174
:100B1400013CA4B2002CF5D1064B1A8801321A808C
:100B240003E00248202101F048F873BD005400405E
:100B340051C30000DA000020F0B589B0802170486C
:100B4400090201F034F80128F8D080239B010093B6
:100B54006B48D0210122002301F012F8694C684847
:100B6400022101F024F8002804D1013CA4B2002C95
:100B7400F5D133E062483B2101F014F8614C604840
:100B8400402101F014F8002804D1013CA4B2002C47
:100B9400F5D123E090239B01009380239B045848C4
:100BA400D0210E2200F0ECFF574C002307E05448FC
:100BB400257800F0F9FF04AB5855237801332370EE
:100BC40023780D2B0FD84F4D4D48042100F0EFFF33
:100BD4000028ECD1013DADB2002DF5D14B4B1A8864
:100BE40001321A8089E04648202100F0E0FF002805
:100BF400F9D04348202100F0E0FF04AB9878D9787D
:100C04000002084300B2C117490F0918404AC9102D
:100C140049421180187859780002084300B2C1177C
:100C2400490F0918C91049425180187959790002AD
:100C3400084300B2C117490F0918C91049429180ED
:100C4400197A587A0902334A014349421180997A40
:100C5400D87A0902014349425180197B5B7B09021E
:100C64000B432D485B4293800388111C03932B4D47
:100C7400002B36D000225700CB5F284896009C46B4
:100C8400335801329C446746D2B23750022AF2D913
:100C9400039B2270902080210122C0050902134287
:100CA40000D0002200F018FF1B4F3B88012B13D10A
:100CB4000026B700FA21E8594900FFF759FA01362E
:100CC400F6B2E851022EF4D990208021C005090221
:100CD4000122267000F000FF0F4F3B88013B3B8050
:100CE4000BE0039B5A0098008E5A28580133301A9F
:100CF400DBB28852022BF5D9237009B0F0BDC0468F
:100D04000054004051C300003C010020DA000020E0
:100D1400F2000020160100207A000020300100209B
:100D240070B5234C8AB0C02301A901250193201C6E
:100D340002230B718D71CD7100F082FE201C2A1CE0
:100D4400062100F0CFFE2A1C201C072100F0CAFE59
:100D5400184E194B00240393301CAB2303A90793AB
:100D64000494059406940894099400F0CDFE291C7B
:100D7400124D301C00F0FAFE281CFFF7A3FA802164
:100D84006B20FFF775FE281CFFF79CFA6B200321EC
:100D9400FFF76EFE211C1A20FFF76AFE1B201821A4
:100DA400FFF766FE1C201021FFF762FE0AB070BD3B
:100DB40000040048005400400A0210008813000098
:100DC40030B590208BB002A9002403230425C0056C
:100DD4000B71CC71029500F033FE04A914480C7118
:100DE4008C60CC600C614C61049400F0D3FD10481D
:100DF400291C072200F0ECFD291C01220C4800F0FC
:100E040007FE012401A80C2303704570847001F0CF
:100E1400EBF9074800F0E1FD0548211C00F0D0FD86
:100E24000348044900F0FEFD0028F9D00BB030BDA2
:100E3400002401400100000108B5074B0422196891
:100E4400114207D01A60186C0449C001FFF742F937
:100E5400034B188008BDC04600240140BA030000BB
:100E6400E400002070B59025ED058AB0061C092128
:100E7400281C012200F036FE0122281C0A2100F061
:100E840031FEC023DB0002A90293281C0223164D65
:100E940000240B7103234B718C71CC7100F0D0FDD5
:100EA40004A90C23281C0594069407940994089318
:100EB400049601F0F3F801A81B2301240370052311
:100EC4004370847001F090F9281C221C074901F03A
:100ED4004FF9281C221C064901F04AF9281C211C40
:100EE40001F034F90AB070BD003801400501050075
:100EF4000601060010B50C4B1A78002A13D10B4AD0
:100F04000B4C1178227891420DD0012209480A49EC
:100F14001A7001F02DF9237806485A1C2270074AEA
:100F2400D15C01F01DF910BD3E0100203F020020FC
:100F34003D01002000380140060106004202002065
:100F440010B51C481C4901F02AF900280CD0194896
:100F5400194901F043F9194B16481C78621C1A70A0
:100F640001F002F9164B18551248164901F017F909
:100F740000281DD00F48134901F030F91249134AD3
:100F840008781378124998420AD00878002807D0C4
:100F9400591C11700F4A0748D15C01F0E1F807E0D1
:100FA40000220A700348074901F0E2F8FFF7A2FFA4
:100FB40010BDC04600380140050105004002002074
:100FC4003F010020060106003F0200203D010020F1
:100FD4003E01002042020020034B1878034B1B788B
:100FE400C01AC0B27047C04640020020410200202F
:100FF400064A074913780978994204D0591C11709C
:10100400044AD05C00E000207047C0464102002042
:10101400400200203F010020F8B5094A1478151C4D
:10102400231C1A1B5E1CD2B2F6B28A4204DA875C15
:10103400044AD754331CF4E72B70FFF75BFFF8BD69
:101044003F02002042020020F0B520238BB084B27E
:101054000193002803DA64422D23A4B201932E4F96
:1010640007AE301C391C0A2201F0EEF803AD002350
:101074000393AB80294A591CC9B2944204D9284B22
:10108400E418A4B20B1CF5E72B706B78254A591CA5
:10109400C9B2944204D9244BE418A4B20B1CF5E75A
:1010A4006B70AB785A1CD2B2632C03D9643CA4B2E3
:1010B400131CF7E7AB70EB785A1CD2B2092C03D996
:1010C4000A3CA4B2131CF7E72C71391C05AC0A3195
:1010D400201C0622EB7001F0B7F800210B1CCAB2E9
:1010E400052A01D1002B0FD06A5CB25C302A03D0F0
:1010F400002B03D1019B05E0002B05D06B18013BAD
:101104001B78F35C6354012301310629E7D1201CC9
:10111400FFF782FF0BB0F0BDD02200080F270000BC
:10112400F0D8FFFFE703000018FCFFFFF0B5514FB4
:101134008DB0381C04AC00F06FFE2F2323804E4B7F
:101144000026381C211C05932681A672668000F0B7
:10115400D7FE381C0121012500F00EFF01A8102341
:1011640003704670857001F03FF82A1C381C291C56
:1011740000F08AFF414B02AF0293902002233B719F
:10118400391C0323C0057B71BE71FE7100F058FC4D
:101194008023AB40391C3A48029300F051FC902064
:1011A400C0050321022200F09DFC9020C005082107
:1011B400022200F097FC9020C0050B210222314F3F
:1011C40000F090FC022208212D4800F08BFCFA2349
:1011D4009B00381C636025802681A672668000F01F
:1011E4001BFE211C381C00F08BFE8020C00500F083
:1011F40013FE8020211CC00500F082FE224800F06E
:101204000BFE211C204800F07BFE07AC70232380DA
:10121400381C0223211CA38165800996268200F0D4
:10122400C3FE381C211C00F0FDFE211C164800F0F2
:10123400BBFE8020211CC00500F0F4FE381C291CD4
:1012440000F09AFE381C291C00F0A0FE8020291C06
:10125400C00500F09BFE8020291CC00500F08CFE18
:10126400291C094800F092FE0748291C00F084FE5E
:101274000DB0F0BD00040040FFFF000008090000AD
:1012840000040048002C0140004401407047FEE780
:1012940070477047244B012219681143196058683C
:1012A40022490140596018682149014019601868B1
:1012B40020490140196058681F4901405960D96AA2
:1012C4000F208143D962186B1C4901401963596B83
:1012D4009143002259639A60194A112111605A6896
:1012E4005A605A685A605968164A0A405A605968DE
:1012F400A02292030A435A601968802252040A43C6
:101304001A601968084A8801FBD551680320814393
:101314005160516802200143516059680C220A400F
:10132400082AFAD17047C046001002400CB8FFF8F2
:10133400FFFFF6FEFFFFFBFFFFFFC0FFACFEFFFF5A
:1013440000200240FF7FC0FF10B5041C09480221A1
:1013540000F05BFD0028F9D00648211C00F050FD88
:101364000448012100F051FD0028F9D0014800F0A3
:1013740049FD10BD00300140F8B5041C90200D1C3F
:10138400C0051021171C00F0A5FB1F202040FFF70B
:10139400DBFF2C1C061C631BBB4205DAA520FFF7F0
:1013A400D3FF20700134F6E79020C005102100F02F
:1013B4008FFB301CF8BDF8B5041C90200D1CC00533
:1013C4001021171C00F086FB1F200440202020431E
:1013D400FFF7BAFF2C1C061C631BBB4204DA2078FF
:1013E400FFF7B2FF0134F7E79020C005102100F0A9
:1013F4006FFB301CF8BD07B56B46D9710733191C58
:101404000122FFF7D8FF0EBD13B56C460734211C2B
:101414000122FFF7B1FF207816BD38B59024E4050A
:10142400201C102100F056FBFF20FFF78DFF102138
:10143400051C201C00F04CFB281C38BD38B590243A
:10144400E405201C102100F045FBE220FFF77CFF9F
:101454001021051C201C00F03BFB281C38BD38B5AE
:101464009024E405201C102100F034FBE120FFF758
:101474006BFF1021051C201C00F02AFB281C38BD22
:1014840038B59024E4051021201C00F023FB6020D3
:10149400FFF75AFFA520FFF757FF1021051C201C5A
:1014A40000F016FB281C38BD38B59024E405102143
:1014B400201C00F00FFB5020FFF746FF051C732093
:1014C400FFF742FF201C102100F002FB281C38BD4E
:1014D40038B59024E4051021201C00F0FBFA5020BC
:1014E400FFF732FF051C5320FFF72EFF201C1021AD
:1014F40000F0EEFA281C38BDF8B5051C9020C00594
:101504000F1C102100F0E6FA6120FFF71DFF2C1CD0
:10151400061C631BBB4205DAA520FFF715FF2070EC
:101524000134F6E79020C005102100F0D1FA301CF8
:10153400F8BD08B5FFF771FF08BD0000F0B5324BE8
:1015440089B01D78002D5DD101AC201C00F0B4FAE7
:1015540002232371E371902003236371C0052023C8
:10156400211C0193A57100F06BFA90208023C00523
:10157400211C019300F064FA90204023C005211C33
:10158400019300F05DFA902001261027C005211C6C
:101594002671019700F054FA9020C00520212A1CDE
:1015A40000F0A0FA9020C00580212A1C00F09AFACD
:1015B40090202A1CC005402100F094FA9020C00518
:1015C400391C00F085FA822303A9B3404B80E02341
:1015D400DB008B8080239B004B810C4807230B820C
:1015E4000D80CD800D818F81CD8100F0CBFB8021DA
:1015F4000648490100F0FAFB0448311C00F0ECFBFA
:10160400014B1E7009B0F0BD4203002000300140C0
:1016140038B5FFF78EFF410657D52C4C0921201C05
:10162400FFF76AFFFFF70AFF70210720FFF7E3FEC9
:1016340027492278FA259200AD00201C0B1CAA42EF
:1016440000DD2A1C0A80027992000B2A07DDFD21A5
:1016540089008A4205DC1F4C121992B203E01E4A2B
:1016640001E0FA2252005A80C27891000B2907DD6A
:10167400FD24A400A14205DC164C091989B203E03B
:10168400154901E0FA2149009980417889000B2924
:1016940007DDFD24A400A14205DC0E4C091989B222
:1016A40003E00D4901E0FA214900D980C179080716
:1016B40008D0F02A02D9FA22520002E00E2A01D8F8
:1016C400064A1A81064B00221A7038BD49030020CD
:1016D400A800002000FEFFFF0CFE00000CFEFFFF30
:1016E4008200002010B5041CFEF7D8FDFA21890001
:1016F400FEF7F0FC114B1A68811AA1421DD9104C57
:10170400186022780F480421012A0AD100F0E4F974
:1017140090208021C0050902002200F0DDF9002399
:101724000AE0002200F0D8F990208021C0050902C7
:10173400012200F0D1F90123237010BD54030020CD
:10174400520300200004004870B5FFF7F7FE09219A
:101754000020FFF750FE3F210120FFF74CFE3F2100
:101764000220FFF748FE0320011CFFF744FE1A2164
:101774000420FFF740FE3C210520FFF73CFE062035
:10178400011CFFF738FE70210720FFF734FE092102
:101794001120FFF730FE09211220FFF72CFE09214A
:1017A4001320FFF728FE09211420FFF724FE092146
:1017B4001520FFF720FE09211620FFF71CFE00214B
:1017C4001720FFF718FE3F211C20FFF714FE072106
:1017D4001D20FFF710FE1D20FFF716FEFFF764FE25
:1017E4001D20FFF711FE3F211C20FFF704FE0721F7
:1017F4001D20FFF700FEFFF76BFE0720FFF704FE36
:10180400030635D5574904220020FFF7D4FD564C72
:101814000422211C0120FFF7CEFD5449042202209A
:10182400FFF7C9FD611D04220320FFF7C4FD504DDD
:101834000420291C021CFFF7BEFD4E49042205208A
:10184400FFF7B9FD211C0A3104220C20FFF7B3FD78
:10185400211C0F3104220D20FFF7ADFD0420464961
:10186400021CFFF7A8FD0420291C021CFFF7A3FD9E
:10187400FFF72EFEFFF7E2FDFFF7F1FD3F4C0522D7
:10188400211C0A20FFF797FD211C10200522FFF7D9
:1018940092FD00200B21FFF7AEFD394D2B78002B74
:1018A4005ED1FEF7FBFCFA218900FEF713FC354EEE
:1018B4003060FFF73EFE43060CD4FA204000FFF7E9
:1018C40011FFF6E7FFF7DCFD011E092902D12E48BE
:1018D400FFF712FE1720FFF797FD01231840F1D000
:1018E400FFF7ACFD70210720FFF785FD264B274C41
:1018F4001A78211C22705A780A2062709A78A27091
:10190400DB780522E370C1232371FFF754FD052220
:10191400211C1020FFF74FFDFFF790FD70210720D9
:10192400FFF769FDFEF7BAFCFA218900FEF7D2FB46
:101934003060FFF7FEFD430603D4FA20FFF7D2FE22
:10194400F7E701231248042100222B7000F0C4F8A9
:1019540090208021C0050902002200F0BDF89CE718
:1019640070BDC046F9220008E0220008FE220008EB
:1019740003230008082300080D230008F4220008AC
:1019840043030020540300204903002044030020A3
:10199400000400480B688A6810B51A43CB68C46811
:1019A4001A430B691A434B691A43044B23401343EC
:1019B4000A7952031343C36010BDC04603D2FFFF2C
:1019C40083680122002900D10222134383607047F7
:1019D400836A1943816242617047826880231B06CF
:1019E40013438360F0231B028268013BD20FD207AA
:1019F400002B01D0002AF7D18368002B01DB006C97
:101A040000E000207047836804221343836070471A
:101A14004368002A02D01943416001E08B434360CC
:101A240070470000CB0103D58268044B134000E0EB
:101A340003680B40591E8B41D8B27047FFFFFFFE6D
:101A4400F7B50B68019300230124019A9C402240BE
:101A5400A2422CD10D796C1E012C14D887685C002D
:101A64000326A640B74387604E798768A640341C96
:101A74003C4384608488944384808A7984889A402F
:101A8400224392B282805A00032407689440E443BC
:101A940027400760076895403D430560C5682C40B2
:101AA400C460CD79C46895402A1C2243C2600133C6
:101AB400102BC9D1F7BD0000044B012203600023A1
:101AC400037142718371C3717047C046FFFF000008
:101AD4008161704701857047002A01D0816100E06F
:101AE4000185704707230B40C9088900401810B5C9
:101AF400016A9B000F249C40A1430162016A9A4041
:101B0400131C0B43036210BD026801239A43026055
:101B140030B5134A04688D6822402C0222434C6875
:101B24000D68224302600F4ACC682A4002610268B1
:101B340013430360002383608A69C3600B69134302
:101B44008360826880231B021343836003682343FA
:101B540003604268044B13404A691343436030BD39
:101B6400FFE0CF00FFFFFFF0FF7FFF0701230268C4
:101B7400002901D0134301E09A43131C036070470A
:101B840030B54568064C89052C40039D2C432343FE
:101B94008C0D191C214314040A1C2243426030BDDD
:101BA400009800FC81627047406AC0B27047806947
:101BB4000840431E9841C0B27047C161704700009D
:101BC400F8B54B4D041C68680C231840FEF778FAEE
:101BD4001F1F1F1F1F1F1F1F071F1F1F1D006E68B2
:101BE400C023B6026A68360F5B0202361A4201D17C
:101BF400404807E03E4B4048D96A0F231940013161
:101C0400FEF768FA7043206004E03C4B00E03A4B76
:101C1400236000206A683A4B1206120F21689A5C0E
:101C24000E1CD6406660321C6E687605760F9B5D8E
:101C3400DA40A2602B6BDE0501D4324B06E02C4B5C
:101C44005B685E0401D4530800E09308E3602B6BE7
:101C54005E0601D42C4B01E080231B0223612B6B15
:101C6400DE0602D4244B636100E061612F6B032321
:101C74001F4E1F4201D1A26112E0376B1F40012F9A
:101C840001D1A1610CE0376B1F40022F02D18023E8
:101C94001B0204E0366B3340032B01D1164BA361C6
:101CA400C0232F6B9B02124E1F4201D1E26116E04A
:101CB400376B80221F405202974201D1E1610EE04E
:101CC400316B802219409202914202D180231B027F
:101CD40004E0326B1A409A4201D1074BE3612B6B4B
:101CE4001A0602D4054B236200E02062F8BDC04608
:101CF4000010024000093D0000127A00006CDC0272
:101D0400C6000020809FD50012800000044B5A6951
:101D1400002902D01043586101E082435A617047A0
:101D240000100240044B9A69002902D010439861C4
:101D340001E082439A61704700100240044BDA6963
:101D4400002902D01043D86101E08243DA61704770
:101D540000100240044BDA68002902D01043D86016
:101D640001E08243DA60704700100240044B1A69B4
:101D7400002902D01043186101E082431A617047C0
:101D8400001002400388C122920110B51A40CC8988
:101D94000B882343CC8823430C8923434C89234356
:101DA4008C892343134303808288094B13408A8818
:101DB400134383800B8A04220382038893434A8853
:101DC40013430380828B034B1340838310BDC046AF
:101DD400FFF0FFFFFFF7FFFF40230288002901D037
:101DE400134301E09A43131C038070478288034B1A
:101DF400134083808388194381807047FFEFFFFF7E
:101E040001737047007BC0B2704700890840431ECD
:101E14009841C0B27047000008B5314B984207D1D1
:101E2400802000010121FFF795FF8020000152E08E
:101E34008023DB05984205D10120011CFFF796FFA2
:101E4400012024E0274B984205D102200121FFF70D
:101E54008DFF02201BE0244B984205D11020012164
:101E6400FFF784FF102012E0204B984205D1202078
:101E74000121FFF77BFF202009E01D4B98420AD186
:101E8400802040000121FFF771FF802040000021E5
:101E9400FFF76CFF22E0174B984207D180204002E5
:101EA4000121FFF757FF8020400214E0124B9842B3
:101EB40007D1802080020121FFF74CFF802080029F
:101EC40009E00E4B984209D18020C0020121FFF79E
:101ED40041FF8020C0020021FFF73CFF08BDC0463F
:101EE400002C014000040040001000400014004099
:101EF40000200040004001400044014000480140EF
:101F04000388164A30B59BB2904206D08024E4057B
:101F1400A04202D0124CA04203D17024A3434C88A7
:101F24002343104CA04203D00F4D0C892B40234374
:101F340003804B68C3620B880385904208D00B4B27
:101F4400984205D00A4B984202D00A4B984201D1DC
:101F54008B7A03860123838230BDC046002C014066
:101F64000004004000100040FFFCFFFF004001405F
:101F7400004401400048014001230288002901D0A7
:101F8400134301E09A43131C038070470630002971
:101F940004D0C28F80231B02134302E0C38F5B046F
:101FA4005B0CC38770470000038C012293430384B6
:101FB40070B5058C8288048B73239C430B884E88F0
:101FC4001C4302239D438B8992B233432B43104D10
:101FD400A84208D00F4DA84205D00F4DA84202D008
:101FE4000E4DA8420DD10825AB43CD894E8A2B4313
:101FF4000425AB438D882B43094D2A400D8A354374
:102004002A4382808A6804834263038470BDC04685
:10201400002C0140004001400044014000480140C0
:10202400FFFCFFFF028C134B30B513400384058C77
:10203400114A8388848B9BB214400A881202144389
:102044000E4AA4B22A408D892D032A434D8892B2A8
:102054002D032A430A4D92B2A84205D1094D2B40C3
:102064000D8AAD012B439BB283808B688483036408
:10207400028430BDFFEFFFFFFF8CFFFFFFDFFFFF98
:10208400002C0140FFBFFFFF8389002A02D01943BF
:10209400818101E08B438381704700000368012242
:1020A4009343F0B503604268224B0D1C89681340CA
:1020B4000B4343600268204B69681A40EB688BB09D
:1020C4000B432969041C0B431343036082681B4BB5
:1020D40013406A691343836001A8FFF771FD184B2D
:1020E4009C4201D1079E05E0164B9C4201D1089EFB
:1020F40000E0039E23682F68190400D57600391C7C
:10210400301CFDF7E7FF391C051C301CFEF726F8D0
:102114007F080023B9425B41ED1823681A0404D5F3
:10212400094A2B075B0F15401D43ADB2A5810BB0C7
:10213400F0BDC046FFCFFFFFF3E9FFFFFFFCFFFF49
:102144000038014000440040F0FF00000123026811
:10215400002901D0134301E09A43131C0360704724
:10216400C905C90D01857047808CC005C00D704735
:102174008BB210B5C9B201248C401B0A211C022B5E
:1021840001D1043002E0032B00D108300368002A97
:1021940002D01943016001E08B43036010BDCBB250
:1021A40010B501248AB29C40120A231C012A01D1D1
:1021B400026804E0022A01D1426800E08268134008
:1021C400C2690020834208D0090C01208840011C08
:1021D400101C0840411E8841C0B210BD090C0123E7
:1021E4008B40036270470000827870B50378002A40
:1021F4001DD09908124A0324890089182340C0225B
:10220400A3409200FF248D58261C9E40B543467877
:10221400B60134409C402B1C23438B5002781F236F
:102224001A40012393401A1C054B1A6006E01F2232
:10223400134001229A40131C024AD36770BDC04662
:1022440000E100E004E100E0F0B50F2A35D9031CF9
:102254000B439C0735D1161C103E36093501451930
:1022640010350C1C031C27681F6067685F60A76833
:102274009F60E7681034DF601033AB42F3D1731C06
:102284001B01C518C9180F231340032B1BD91C1F8E
:10229400A4080134A4000023CE58EE500433A34212
:1022A400FAD1ED18C91803231A4005D00023CC5CD9
:1022B400EC5401339342FAD1F0BD051C002AF5D148
:1022C400FAE7051CF2E71A1CF8E7C046303132334E
:1022D400343536373839202020202030C04B0000D8
:1022E400009900392100001273000046B4800000F8
:1022F4006565656565404B01E200D0FC8C0200D940
:1023040096821B0024067FA600DF96821B00000035
:102314005468726F74746C6520200A0D486F646F82
:102324007221202020205961772020202020202085
:10233400CC014779726F205820202020414343204C
:102344005A2020202020417578322020202020206F
:102354001400504650468813526F6C6C2020202085
:102364002020414343205820202020204143432063
:102374005920202020204779726F205920202020C6
:102384004779726F205A20202020F4015858587839
:1023940078006441415550697463682020202020EE
:1023A4002D2D46417578312020202020204C695065
:1023B4006F20566F6C742E000000F401F401F401D8
:1023C4000CFEF401DC05DC05DC05DC05DC05DC05C4
:1023D40001010101010100000000010203040102E6
:0823E4000304060708090000CC
:0400000508000239B4
:00000001FF
